:1000000000800020BD01000029A30000E1A2000043
:10001000E1A20000E1A20000E1A20000E1A20000D4
:10002000E1A20000E1A20000E1A2000029A300007B
:1000300029A30000E1A20000D5980000D998000093
:1000400029A3000029A3000029A3000029A3000080
:1000500029A3000029A3000029A3000029A3000070
:1000600029A3000029A3000029A3000029A3000060
:1000700029A3000029A3000029A3000029A3000050
:1000800029A3000029A3000029A3000029A3000040
:1000900029A300004D8BFF1F29A3000029A3000006
:1000A000398900004589000029A3000029A3000028
:1000B00029A3000029A3000029A3000029A3000010
:1000C00029A3000029A3000029A3000029A3000000
:1000D00029A3000029A3000029A3000029A30000F0
:1000E00029A3000029A3000029A3000029A30000E0
:1000F00029A300000DB3000029A3000029A30000DC
:1001000029A3000029A3000029A3000029A30000BF
:1001100029A3000029A3000029A3000029A30000AF
:1001200029A3000029A3000029A3000029A300009F
:1001300029A3000029A3000029A3000029A300008F
:1001400029A3000029A3000029A3000029A300007F
:10015000D59A0000E99A0000FD9A0000119B00006A
:1001600029A3000059B6000029A3000029A300001C
:1001700029A3000029A3000029A3000029A300004F
:1001800029A3000029A3000029A3000029A300003F
:1001900029A3000029A3000029A3000029A300002F
:1001A00029A3000029A3000029A3000029A300001F
:1001B00029A3000029A3000029A30000564B4CF2FC
:1001C000205210B51A804DF628121A8000BF00BFC9
:1001D00008F0F4FD514B4FF010621A60504A9A60DB
:1001E000504ADA60504A136813F4807304D14F49BF
:1001F0000B604FF4A85313604D4B1A78110703D5C9
:100200001A7842F008021A704A4B4B492A221A7097
:100210004A4A4B4B8B4204D252F8040F43F8040B6A
:10022000F8E7484B484900228B4202D243F8042B9E
:10023000FAE74649464A002352F8230041F82300D2
:1002400001336F2BF8D1434B434A802103F8011B44
:100250009342FBD1414B3D4A1A60414B8A221A70AE
:10026000A3F5805324225A70A0221A709A7992071B
:10027000FCD59A79D406FCD43A4A937903F00C035E
:10028000082B384BF9D103221A7140225A719A79FE
:100290009006FCD5334A9179324B4906FBD5324A58
:1002A000324911600221516020221A709A7902F0BD
:1002B0000C020C2AFAD12E4B2E4A1A602E4B2F4AD2
:1002C0001A6000225A60072243F8042C2C4AC3F813
:1002D0000C2D62B60AF0C6F9144B1B68DA0705D577
:1002E00028480AF0ABF9284B284A1A60284B1B789B
:1002F0005B0609D5244C254B22689A4204D121483B
:100300000AF09CF9002323600AF012F80DF0B0FE09
:1003100009F00AFFFEE700BF0E20054030800440D0
:10032000823F04000100002B10D0034014D0034092
:1003300002D0074000E00740E89FFF1F2877010038
:100340002089FF1FE89FFF1F54A5FF1F0084FF1F88
:100350000000000000E400E05FE400E008ED00E0E1
:100360000050064000400640448004400000030165
:1003700004800440C010050014E000E0FF76010096
:100380000000202031BF60641CE00340A5C3945AE4
:1003900000F00740FFFFFFFFFFFFFFFFFFFFFFFF32
:1003A000FFFFFFFFFFFFFFFFFFFFFFFFFFFFFFFF5D
:1003B000FFFFFFFFFFFFFFFFFFFFFFFFFFFFFFFF4D
:1003C000FFFFFFFFFFFFFFFFFFFFFFFFFFFFFFFF3D
:1003D000FFFFFFFFFFFFFFFFFFFFFFFFFFFFFFFF2D
:1003E000FFFFFFFFFFFFFFFFFFFFFFFFFFFFFFFF1D
:1003F000FFFFFFFFFFFFFFFFFFFFFFFFFFFFFFFF0D
:10040000FFFFFFFFFFFFFFFFFFFFFFFFDEF9FFFF23
:1004100010B5054C237833B9044B13B10448AFF33E
:1004200000800123237010BDE89FFF1F0000000023
:1004300024770100084B10B51BB108490848AFF3F9
:1004400000800848036803B910BD074B002BFBD0A0
:10045000BDE81040184700BF00000000EC9FFF1FE0
:1004600024770100E89FFF1F0000000008B501216C
:1004700028200AF017FB0C200AF06EFA2820002131
:100480000AF06CF908BD00BFF8B5431E092B14D85B
:10049000124C07460E461A2004F1090501E014F833
:1004A000010F00210AF0FEFAAC42F8D136B931460C
:1004B0002820BDE8F8400AF051B9F8BD084BDC5DD2
:1004C000012120460AF0EEFA204600210AF0D6FA71
:1004D00031462820BDE8F8400AF040B9E55D01004A
:1004E000E45D0100704700BF0020704710B508228E
:1004F000BF4904460FF0D2F9002800F05781BD49EA
:1005000020460EF081FF002800F04D81BA492046B8
:100510000EF07AFF002800F05B81B84920460EF00B
:1005200073FF002800F05181B54920460EF06CFFA2
:10053000002800F05081B34920460EF065FF0028E6
:1005400000F04F81B04920460EF05EFF002800F019
:100550004581AE4920460EF057FF002800F0448147
:10056000AB4920460EF050FF002800F0AD81A949AC
:1005700020460EF049FF002800F0A981A649204638
:100580000EF042FF002800F0A581A44920460EF09D
:100590003BFF002800F0A181A14920460EF034FF66
:1005A000002800F09D819F4920460EF02DFF002875
:1005B00000F099819C4920460EF026FF002800F0AB
:1005C00095819A4920460EF01FFF002800F0918186
:1005D000974920460EF018FF002800F08D819549BC
:1005E00020460EF011FF002800F08C819249204631
:1005F0000EF00AFF002800F08281904920460EF09C
:1006000003FF002800F0CE818D4920460EF0FCFE4D
:10061000002800F0C4818B4920460EF0F5FE00282A
:1006200000F0BA81884920460EF0EEFE002800F066
:10063000B0811622854920460FF030F9002800F0DD
:100640007E821522824920460FF028F9002800F00A
:10065000688208227F4920460FF020F9002800F028
:10066000528207227C4920460FF018F9002800F03A
:100670003E820922794920460FF010F9002800F047
:1006800028820822764920460FF008F9002800F059
:1006900013820F22734920460FF000F9002800F062
:1006A000FD810E22704920460FF0F8F8002800F076
:1006B000E88110226D4920460FF0F0F8002800F084
:1006C000D2810F226A4920460FF0E8F8002800F096
:1006D000BD810922674920460FF0E0F8002800F0AC
:1006E000A7810A22644920460FF0D8F8002800F0BC
:1006F00092810922614920460FF0D0F8002800F0CD
:100700007C8109225E4920460FF0C8F8002800F0DD
:10071000678109225B4920460FF0C0F8002800F0ED
:1007200051811022584920460FF0B8F8002800F0F7
:100730003C811022554920460FF0B0F8002800F007
:100740001A811022524920460FF0A8F8002800F024
:10075000058110224F4920460FF0A0F8002800F034
:10076000EF8016224C4920460FF098F8002800F040
:10077000DA801622494920460FF090F8002800F050
:10078000C4801222464920460FF088F8D8B904F1F7
:1007900010000DF059FC0A2815D8424BDC301B68BC
:1007A00053F8200010BD404B186810BD04F108003C
:1007B0000DF04AFC452806D83A4B1B68E63003EB9F
:1007C0008000406810BD394810BD394B186810BD15
:1007D000384B186810BD384B186810BD374B186877
:1007E00010BD374B186810BD364B186810BD00BFE0
:1007F000F05D0100FC5D01000C5E0100285E01005F
:100800003C5E01005C5E01006C5E0100845E0100E4
:10081000945E0100AC5E0100BC5E0100D45E01008C
:10082000E05E0100EC5E0100F85E0100FC5E01008C
:10083000145F0100285F01003C5F01004C5F010074
:10084000585F0100705F0100805F0100985F010048
:10085000B05F0100C85F0100D45F0100DC5F0100F0
:10086000E85F0100F45F0100046001001460010012
:100870002860010038600100446001005060010000
:100880005C60010068600100746001008860010024
:100890009C600100B0600100C4600100DC600100E8
:1008A000F4600100588EFF1F08A1FF1F0000C07FE9
:1008B00064A0FF1F2CA0FF1F70A0FF1F04A1FF1F3B
:1008C00044A0FF1F48A0FF1FA44B186810BDA44BF5
:1008D000186810BDA34B186810BDA34B186810BD55
:1008E000A24B186810BDA24B186810BDA14B186828
:1008F00010BDA14B186810BDA04B186810BDA04BCF
:10090000186810BD9F4B186810BD04F110000DF061
:100910009BFB0A283FF657AF9B4B1B68D03003EB7D
:100920008000406810BD04F110000DF08DFB0A2816
:100930003FF649AF944BC6301B6853F8200010BDFA
:1009400004F110000DF080FB0A283FF63CAF8E4BFF
:100950001B68BA3003EB8000406810BD04F1100042
:100960000DF072FB0A283FF62EAF874BB0301B68A4
:1009700053F8200010BD04F110000DF065FB0A28AB
:100980003FF621AF804B1B68A43003EB800040682A
:1009900010BD7E4B186810BD7D4B186810BD7D4B97
:1009A000186810BD7C4B186810BD04F110000DF0E4
:1009B0004BFB0A283FF607AF734B9A301B6853F87E
:1009C000200010BD04F109000DF03EFB0A283FF69F
:1009D000FAAE6D4B1B688E3003EB8000406810BD93
:1009E00004F109000DF030FB0A283FF6ECAE664B2F
:1009F00084301B6853F8200010BD04F109000DF08D
:100A000023FB0A283FF6DFAE5F4B1B68783003EB11
:100A10008000406810BD04F10A000DF015FB0A28A3
:100A20003FF6D1AE584B6E301B6853F8200010BD16
:100A300004F109000DF008FB0A283FF6C4AE524B42
:100A40001B68623003EB8000406810BD04F10F00AA
:100A50000DF0FAFA0A283FF6B6AE4B4B58301B6839
:100A600053F8200010BD04F110000DF0EDFA0A2833
:100A70003FF6A9AE444B1B684C3003EB8000406846
:100A800010BD04F10E000DF0DFFA0A283FF69BAE10
:100A90003D4B2C301B6853F8200010BD04F10F00B3
:100AA0000DF0D2FA0A283FF68EAE374B1B68203085
:100AB00003EB8000406810BD04F108000DF0C4FA9B
:100AC0000A283FF680AE304B42301B6853F82000B6
:100AD00010BD04F109000DF0B7FA0A283FF673AE15
:100AE000294B1B68363003EB8000406810BDE01DC9
:100AF0000DF0AAFA0A283FF666AE234B16301B68A3
:100B000053F8200010BD04F108000DF09DFA0A28EA
:100B10003FF659AE1C4B1B680A3003EB800040685F
:100B200010BD04F115000DF08FFA03283FF64BAE0F
:100B3000154B1B68063003EB8000406810BD04F1C4
:100B400016000DF081FA03283FF63DAE0E4B1B68F0
:100B5000023003EB8000406810BD00BF34A0FF1FCF
:100B60004CA0FF1F40A0FF1F00A1FF1F80A0FF1F80
:100B700038A0FF1F7CA0FF1F78A0FF1F74A0FF1FDD
:100B800050A0FF1F58A0FF1F588EFF1F5CA0FF1F23
:100B900054A0FF1F30A0FF1F24A0FF1F2DE9F0432A
:100BA000DFF8F480D8F8009009F10106C8F8006079
:100BB00099F80040282C8FB062D0A4F12B03DBB24F
:100BC0000E2B05D847F6ED7222FA03F3DB0724D487
:100BD00020460DF07FFA002843D0C8F80090344634
:100BE00014F8015B28460DF06BFA05F0FB0307468D
:100BF00050BB5B2B28D05D2D26D0C9EB06042246C6
:100C0000494601A80EF09AFE0EAB1C4401A804F858
:100C1000347CFFF76BFC044608E0484641460FF081
:100C20004DFE0CF0CBFCD8F800600446731CC8F8ED
:100C300000303378184A2A2B17D02F2B06D02046A5
:100C400016600FB0BDE8F0832646C8E7FFF7A6FFA1
:100C5000014620460CF0C4FE044620460FB0BDE815
:100C6000F0835F2CB9D00D4CE0E7FFF797FF01460A
:100C700020460CF001FE044620460FB0BDE8F0838C
:100C800000F00EF8D8F800305E1CC8F800601B7841
:100C9000292B0446E7D1C9E704A0FF1F0000C07F4D
:100CA00010B5FFF77BFF0F4B1A68511C19601178C4
:100CB0002D29044604D02B290BD01A60204610BDE4
:100CC000FFF7EEFF014620460CF0CCFC0446204620
:100CD00010BDFFF7E5FF014620460CF0C5FC0446B9
:100CE000204610BD04A0FF1F014B1860FFF7D8BFBE
:100CF00004A0FF1F38B5114D4FF4003000F500641B
:100D000084420ED955F8043C013306D12B469C424F
:100D100007D953F8042B0132F9D0002116F0E8FC72
:100D200030B9B4F57E3F05F500652046E6D138BD03
:100D30000146034804F05AF9F3E700BF040002003B
:100D4000086101002DE9F04100241C6006783A2E6C
:100D500084B003D0002004B0BDE8F08190460F4677
:100D600006461D460EF02CFD0A2803D8204604B086
:100D7000BDE8F08101AA2849701C0EF0A3FA0028F2
:100D8000E8D030460EF01CFD019B5B000B3398420F
:100D9000E0D342462149F01C0EF094FA0028D9D045
:100DA0000A9A1D49F01D0EF08DFA0028D2D00A9B38
:100DB000DDF804E01A78D8F800102B6852FA8EF2A9
:100DC00052FA81F2C1F307210936541810E00EF0EF
:100DD00079FA02360028BDD02B68039AFA542B68A2
:100DE000FA5C0133FF2B14442B60B3D8DDF804E028
:100DF0000949734503AA3046E9D1304602AA06499B
:100E00000EF060FA0028A5D0029B2344DCB2B4FAAD
:100E100084F040099FE700BF2061010028610100C4
:100E20002DE9F04F02234FF48072DBB091499248D4
:100E300004F0DCF8FFF75EFF904A914B9A4217D915
:100E4000904A9A4214D9904A9A4211D94FF40033E9
:100E500000E09BB11C4653F804290132F9D0211D52
:100E60008A4804F0C3F8B4F5FC3F0BDD884800E085
:100E7000884804F0BBF85BB0BDE8F08F04218348DC
:100E800004F0B4F88448854F854DDFF848A2DFF8B8
:100E900028B204F0ABF8834804F0A8F8002406AEAA
:100EA00003F0DEFF0028FBD003F0A8FF0A285AABAE
:100EB00006D00D2804D02344013403F8C80CEFE712
:100EC0001C44002304F8C83C9DF8A0303A2B01D004
:100ED0000024E5E73B68002BFAD107AA724928A84D
:100EE0000EF0F0F9012819D107992A68914240F0D3
:100EF000AD806E4B1B68002B00F0A8806C4BDAF8BD
:100F0000002019686B4804F071F8642009F0F2FDC4
:100F1000674BDAF80010186816F0F2FB2B680096A1
:100F2000591C296005AB644A08A928A8FFF70AFFE5
:100F3000002800F09880614B059A1B6803931946BE
:100F4000DBF800300B449818B0F5FC3F00F28680C7
:100F5000316804295ED8DFE801F036100A5D03002D
:100F6000BDF820305BBA1B04544A1360B0E7BDF8EB
:100F700020305BBA9BB21B01F6E74FF47A7009F0A0
:100F8000B9FD4B4A29681268DAF8003000914C48E4
:100F900004F02CF8464ADAF80030146803F5FF38FC
:100FA00008F5FA7804F5003407E020460C223149B0
:100FB0000EF074FC0134002845D04445F5D3414877
:100FC00004F014F884E703F50034A10742D1910737
:100FD00040D1002A2CDD531E23F0030304F1040941
:100FE00099440DF1200801E0A1451AD0204658F897
:100FF000041B16F081FB04340028F5D0014632486A
:1010000003F0F4FF2C4B05991A68304803F0EEFF0B
:10101000042304E028AA2E4803F0E8FF03233B60E2
:1010200056E7254B039A1B6805981A44134610444B
:10103000DAF800202749904200D908601C4A11685C
:101040008B4292D344E70123184A8EE7224803F0EB
:10105000CDFF3DE7214803F0C9FFD3E7204803F067
:10106000C5FF0223DBE728A91E4803F0BFFF0123C9
:10107000D5E700BF30610100406101002189FF1FF9
:10108000FFFF0300D589FF1F558AFF1F7C61010008
:101090009461010064610100AC6101000CA0FF1FBC
:1010A00018A0FF1FD0610100F06101001CA0FF1F0C
:1010B000548EFF1FFC61010010A0FF1F14A0FF1F32
:1010C00064620100F8620100DC6201001863010043
:1010D000A462010008A0FF1F14620100C0620100A9
:1010E000506201003C62010010B5044608F0D0FCDB
:1010F000204610BD0D4A13689BB90D4B10B41988DA
:1011000072B60C484FF480244FF4A0730460013B86
:10111000FDD110244B01C0F8844019B9012310BC43
:1011200013607047013BFDD1F8E700BF60A0FF1FCF
:101130003CA0FF1F44F00F4038B5057815B944F2C4
:10114000AD3038BD447824B944F2AE3000FB05F030
:1011500038BD0230FFF7F0FF00FB04400130F5E737
:101160002DE9F84F2A4CDFF8C8A02A4DDFF8C480DB
:10117000294FDFF8C49076218346204604F0FEFE16
:10118000204604F0F1FFCAF80000204604F0F8FF02
:101190002860204604F0EEFF20490CF021FCC8F83E
:1011A0000000204604F0F2FF0CF00EFB1C490CF08E
:1011B00017FC1C4B06461E6058460CF009FB044603
:1011C0000146DAF800000CF00BFC39680CF04CFA20
:1011D000214638602868144F144D0CF001FCD9F8F2
:1011E00000100CF041FA2146C9F80000D8F80000C0
:1011F0000CF0F6FB39680CF037FA214638603046BF
:101200000CF0EEFB29680CF02FFA2860BDE8F88F8F
:1012100084A0FF1F80A0FF1F78A0FF1F0000C8420E
:1012200000007A447CA0FF1F58A0FF1F50A0FF1FA2
:1012300000A1FF1F38A0FF1F74A0FF1F2DE9F04F72
:101240008246ADF54B7D4000083000AF0C4620F0E3
:101250000700ADEB000D3960204611461E46FFF732
:1012600013F9FFF73FF904F0BFFA0120C7F804D0E3
:1012700009F040FCBAF1000F3EDDD7F850334FF0D3
:10128000000B5C464FEA43194FF4802872B61322D4
:10129000314607F1080004F097FB274B4FF4A0728A
:1012A000C3F80080013AFDD11322314607F5CC7016
:1012B00004F08AFB214BC3F8008062B64FF07C52E9
:1012C000132107F5CC7004F035F84FF07C52054639
:1012D000132107F1080004F02DF87B68281A23F881
:1012E0001B00B9F1000F02D04B46013BFDD1013488
:1012F000A4B2A245A346C9DC38680021FFF7C4F8B0
:101300007C684FF07C525146204604F02BF8014691
:101310000B4803F06BFE5146204604F03DF80BF0FD
:1013200001FE02460B46074803F060FE07F54B77C7
:10133000BD46BDE8F08F00BF44F00F4048F00F40BD
:10134000A4630100AC630100F8B50F46C6B24FF4C8
:101350007A740025304608F005FE013C0544F9D1B9
:101360000C480D4E80FB0530ED17C5EBA0100CF0BE
:101370002FFA0A4B04461C6038460CF029FA014645
:1013800020460CF02DFB31680CF06EF930602046E1
:10139000F8BD00BFD34D621030A0FF1F24A0FF1F77
:1013A00070B5C0B20E4609F06FFB0CF00DFA094B98
:1013B000094C1860054630460CF00AFA01462846EA
:1013C0000CF00EFB21680CF04FF9044B20601868FC
:1013D00070BD00BF54A0FF1F5CA0FF1F24A0FF1F13
:1013E0002DE9F04FA1B008AD85E80300DDF8A8A015
:1013F00016461F4600240AE03046FFF7B1FE731E72
:10140000BB4200F0AF800BA808F0D4FB0134099B6D
:1014100003B1DB689C4280F2118122460FA8294665
:1014200004F044FF00210FA804F05EFF01460BA862
:1014300008F000FC0BA8BD4908F070FC0028DBD1C7
:10144000BB490BA808F06AFC002841D02246294677
:101450000FA804F02BFF01210FA804F03BFF224648
:10146000804629460FA804F021FF02210FA804F0AE
:1014700031FF2246814629460FA804F017FF0321B9
:101480000FA804F027FF2246834629460FA804F040
:101490000DFF04210FA804F01DFF4FF0010E009076
:1014A0005B464A464146CDF804E03046FFF7C6FEAB
:1014B000731E9F42A7D1BAF1000FA4D19D4B1868AB
:1014C0000BF030FD02460B469B4803F08FFD9AE778
:1014D0009A490BA808F022FC002865D0224629462C
:1014E0000FA804F0E3FE01210FA804F0F3FE22464A
:1014F000804629460FA804F0D9FE02210FA804F067
:10150000E9FE2246814629460FA804F0CFFE0321BA
:101510000FA804F0DFFE2246834629460FA804F0F8
:10152000C5FE04210FA804F0D5FE4FF0020E009076
:101530005B464A464146CDF804E03046FFF77EFE62
:10154000731E9F427FF45FAFBAF1000F7FF45BAF71
:101550007B4B18680BF0E6FC02460B46794803F01B
:1015600045FD50E7BAF1000F7FF44DAF764B186898
:101570000BF0D8FC754B8046186889460BF0D2FCFE
:10158000CDE90401724B18680BF0CCFCCDE90201E7
:10159000704B18680BF0C6FC4246CDE900014B4683
:1015A0006D4803F023FD2EE76C490BA808F0B6FB4D
:1015B000002846D0224629460FA804F077FE0121D4
:1015C0000FA804F087FE2246804629460FA804F0A3
:1015D0006DFE02210FA804F07DFE224681462946B9
:1015E0000FA804F063FE03210FA804F073FE224647
:1015F000834629460FA804F059FE04210FA804F0E1
:1016000069FE4FF0030E00905B464A464146CDF816
:1016100004E03046FFF712FE731E9F427FF4F3AEE4
:10162000BAF1000F7FF4EFAE4D4B18680BF07AFC67
:1016300002460B464B4803F0D9FCE4E621B0BDE876
:10164000F08F49490BA808F069FBE8B1224629460A
:101650000FA804F02BFE01210FA804F03BFE314639
:10166000FFF772FE731E9F427FF4CDAEBAF1000FFA
:101670007FF4C9AE3D4B18680BF054FC02460B4694
:101680003B4803F0B3FCBEE63A490BA808F046FB22
:1016900070BB39490BA808F041FB8046002873D085
:1016A000224629460FA804F001FE01210FA804F0EC
:1016B00011FE2246804629460FA804F0F7FD0221BC
:1016C0000FA804F007FE5FFA88F8814603F0F0FBEC
:1016D0004046012109F0E6F9284B53F83830012241
:1016E00019F0FF0F14BF83F8802083F800218AE6E9
:1016F000224629460FA804F0D9FD01210FA804F0C5
:10170000E9FD3146FFF74CFE731E9F427FF47BAE2E
:10171000BAF1000F7FF477AE194B18680BF002FC9A
:1017200002460B46174803F061FC6CE6D4630100E7
:101730005C5E010004A1FF1F30640100845E0100B3
:1017400034A0FF1F4864010078A0FF1F50A0FF1FB6
:1017500058A0FF1F74A0FF1FF8630100AC5E0100DA
:1017600040A0FF1F606401004C5F010030A0FF1F1C
:1017700078640100705F0100A06401004071010005
:101780005CA0FF1F8C6401002C490BA808F0C6FA6E
:1017900000283FF438AE224629460FA804F086FD03
:1017A00001210FA804F096FD2246294681460FA884
:1017B00004F07CFD02210FA804F08CFD0FAB224643
:1017C00006902946184604F071FD0FAB0321184618
:1017D00004F080FD0FAB834622462946184604F0EC
:1017E00065FD0FAB0421184604F074FD0FAB5FFAE2
:1017F00089F9079044221846114908F09DFC484693
:10180000012109F04FF920AB03EB8B02484652F857
:10181000441C09F0B1F8584609F09EF8069948466C
:1018200008F09CFF079B184609F064F948464146BA
:1018300008F094FF0C2009F08FF8E4E5B064010093
:1018400038630100F0B5002087B004F085F809285E
:1018500040F3C782C54DC64F2A68136816681468DE
:10186000116892680592C4F30724CAB2C6F307460A
:101870001B0E019402920390BE4ABF49BF480096D6
:10188000049703F0B3FBBE4803F046FB00242B682B
:10189000B64E04F10A0203EB8203013458680BF0E0
:1018A00041FB02460B46B74803F0A0FB0A2CEED1E1
:1018B0003368586D0BF036FB02460B46B24803F016
:1018C00095FBB24803F028FB00242B68A74E04F1D7
:1018D0001602013453F822000BF024FB02460B469B
:1018E000A84803F083FB0A2CEFD13368D3F88000BB
:1018F0000BF018FB02460B46A34803F077FBA44805
:1019000003F00AFB00242B68984E04F1360203EB27
:101910008203013458680BF005FB02460B469948D8
:1019200003F064FB0A2CEED13368D3F804010BF00A
:10193000F9FA02460B46944803F058FB954803F029
:10194000EBFA00242B68894E04F14202013453F86B
:1019500022000BF0E7FA02460B468A4803F046FBEA
:101960000A2CEFD13368D3F830010BF0DBFA0246D2
:101970000B46854803F03AFB874803F0CDFA002474
:101980002B687A4E04F1200203EB8203013458687D
:101990000BF0C8FA02460B467A4803F027FB0A2CE4
:1019A000EED13368D3F8AC000BF0BCFA02460B461C
:1019B000754803F01BFB794803F0AEFA00242B684E
:1019C0006A4E04F12C02013453F822000BF0AAFAFB
:1019D00002460B466B4803F009FB0A2CEFD1336833
:1019E000D3F8D8000BF09EFA02460B46664803F087
:1019F000FDFA6B4803F090FA00242B685B4E04F16B
:101A00004C0203EB8203013458680BF08BFA024658
:101A10000B465C4803F0EAFA0A2CEED13368D3F89F
:101A20005C010BF07FFA02460B46574803F0DEFAE2
:101A30005C4803F071FA00242B684C4E04F1580204
:101A4000013453F822000BF06DFA02460B464D4864
:101A500003F0CCFA0A2CEFD13368D3F888010BF0ED
:101A600061FA02460B46484803F0C0FA4E4803F0BC
:101A700053FA00242B683D4E04F1620203EB82030B
:101A8000013458680BF04EFA02460B463D4803F00D
:101A9000ADFA0A2CEED13368D3F8B4010BF042FA58
:101AA00002460B46384803F0A1FA404803F034FAE6
:101AB00000242B682D4E04F16E02013453F82200ED
:101AC0000BF030FA02460B462E4803F08FFA0A2C30
:101AD000EFD13368D3F8E0010BF024FA02460B464D
:101AE000294803F083FA324803F016FA00242B68E1
:101AF0001E4E04F1780203EB8203013458680BF0A8
:101B000011FA02460B461F4803F070FA0A2CEED178
:101B10003368D3F80C020BF005FA02460B461A485C
:101B200003F064FA234803F0F7F900242B680F4E02
:101B300004F18402013453F822000BF0F3F9024659
:101B40000B46104803F052FA0A2CEFD13368D3F851
:101B500038020BF0E7F902460B460B4803F046FA51
:101B6000154803F0D9F9002428E000BF588EFF1F64
:101B7000C8650100246501002C6501003C65010079
:101B8000D0650100E0650100E8650100F065010035
:101B9000FC6501000C6601001C6601003066010056
:101BA000446601005C660100706601008066010009
:101BB00090660100A0660100B06601002B688E4EA1
:101BC00004F18E0203EB8203013458680BF0AAF98A
:101BD00002460B46894803F009FA0A2CEED1336815
:101BE000D3F864020BF09EF902460B46844803F0DA
:101BF000FDF9844803F090F900242B687E4E04F12F
:101C00009A02013453F822000BF08CF902460B467D
:101C10007A4803F0EBF90A2CEFD13368D3F890023D
:101C20000BF080F902460B46754803F0DFF9764861
:101C300003F072F900242B686F4E04F1A40203EB49
:101C40008203013458680BF06DF902460B466B486D
:101C500003F0CCF90A2CEED13368D3F8BC020BF0B8
:101C600061F902460B46664803F0C0F9674803F085
:101C700053F900242B68604E04F1B002013453F88C
:101C800022000BF04FF902460B465C4803F0AEF918
:101C90000A2CEFD13368D3F8E8020BF043F902467F
:101CA0000B46574803F0A2F9594803F035F90024D0
:101CB0002B68514E04F1BA0203EB820301345868D9
:101CC0000BF030F902460B464C4803F08FF90A2C12
:101CD000EED13368D3F814030BF024F902460B4617
:101CE000474803F083F94B4803F016F900242B68AA
:101CF000414E04F1C602013453F822000BF012F9F0
:101D000002460B463D4803F071F90A2CEFD13368C7
:101D1000D3F840030BF006F902460B46384803F0AF
:101D200065F93D4803F0F8F800242B68324E04F1C1
:101D3000D00203EB8203013458680BF0F3F802463B
:101D40000B462E4803F052F90A2CEED13368D3F833
:101D50006C030BF0E7F802460B46294803F046F9FE
:101D60002E4803F0D9F800242B68234E04F1DC023E
:101D7000013453F822000BF0D5F802460B461F48F9
:101D800003F034F90A2CEFD13368D3F898030BF041
:101D9000C9F802460B461A4803F028F900242B68BC
:101DA000154E04F1E60203EB820358680BF0BAF813
:101DB00002460B461A482146013403F017F9452C18
:101DC000EDD13368D3F8B0040BF0ACF802460B4603
:101DD0001448214603F00AF907B0BDE8F04003F0CB
:101DE00055B90146104803F001F903F04FF907B067
:101DF000BDE8F04003F010B9588EFF1FE065010008
:101E0000E8650100C0660100D8660100F0660100C7
:101E100008670100206701003C6701005867010066
:101E20007067010084670100C064010070B50D4651
:101E300004461C4928460DF0E7FA38B31A4E2846E6
:101E400031460DF0E1FAE0B1184E284631460DF06A
:101E5000DBFAB0B1164E284631460DF0D5FA80B106
:101E6000144E284631460DF0CFFA50B1124E284696
:101E700031460DF0C9FA20B1104B23600123636194
:101E800002E0012326606361204670BD0C4B0D48C3
:101E90000D490E4A236004236060A160E260636123
:101EA000204670BDD46301004C5F0100705F0100EB
:101EB0005C5E0100845E0100AC5E01009867010079
:101EC000D45E0100E05E0100EC5E0100F85E0100FE
:101ED0002DE9F04FADF54B5D8BB006AF07F5D67031
:101EE000282200210CF07EFC07F5EA752C4607F548
:101EF000317620460021103407F09CFEA642F8D12E
:101F000028463649103507F0B7FEB542F8D107F537
:101F10007C7041F664134FF4FA72314903F0D0F843
:101F200007F57C7003F0BAFA78B107F57C700DF014
:101F300047FC002301241D46844240D207F57C73F0
:101F4000195D7B2921D00134F6E7264802F0E4FF31
:101F500007F57C7002F0E0FF234802F0DDFF03F09C
:101F600095F803F059F807F5047307F52D74A3F1FC
:101F70004C052046103C07F01DFEA542F9D107F59F
:101F80004B571437BD46BDE8F08F07F5EA7303EBF6
:101F9000051607F57C7303EB0408304607F0AEFE28
:101FA00018F8011F7D2904F10104F6D1304607F02D
:101FB000A5FE07F57C7001350DF002FCC3E700209B
:101FC000BD6403F0C9FC0928014611DC074803F091
:101FD0000DF803F05BF803F01FF8C4E7A8630100F5
:101FE000A8670100AC670100E8670100C064010058
:101FF000C04BDFF890E31C68BF4A23682668256859
:1020000024680390C5F30721E0B2C6F307461B0E10
:10201000CDF810E002900191B848B949009602F05D
:10202000E5FFB84802F078FFB74B10221A600A208B
:1020300008F060FD00233B65C7F888301C46FB654F
:102040000123FB6403F0D0FBBB6C002B01F07C810F
:102050000023BB65BB6DC7F814D01B0107F5EA72FE
:1020600002EB0308D158D8F80860A84A06F1080323
:1020700023F00703ADEB030D06AC0025002908BFD4
:10208000114620463246C7F8C450C7F8C8500DF074
:1020900055FC9F49A555404607F0EEFD07F5317008
:1020A00005F060FA07F57C72214640F2EE2307F551
:1020B000317005F051F807F57C73A84208BF1A4645
:1020C000214618BF2A4607F5A67004F017F907F550
:1020D000A67393E8030007F1C40383E80300002814
:1020E00001F06983002901F06683BB6C7D65013BCB
:1020F0003B62884907F1C40004F048F9864983B27D
:1021000007F1C4003B6404F041F984491FFA80F8E8
:1021100007F1C40004F03AF9814A07F1C4011FFA3B
:1021200080F907F1CC0004F021F97E4A07F1C401DF
:1021300007F1D40004F01AF97B4A07F1C40107F152
:10214000DC0004F013F9794A07F1C40107F1E40057
:1021500004F00CF9764A07F1C40107F1EC0004F031
:1021600005F9744907F1C40004F010F9724A83B20A
:1021700007F1C40107F1F4007B6704F0F7F86F4939
:1021800007F1C40004F00CF9014607F5B27007F03E
:1021900051FD6B4907F1C40004F0F8F8694907F1F3
:1021A000C40004F0F3F80346002808BF0123664981
:1021B000FB6607F1C40004F0E9F86449F86007F130
:1021C000C40004F0E3F86249F86407F1C40004F0C5
:1021D000DDF86049B86007F1C40004F0D7F80346A1
:1021E000002808BF01235C497B6407F1C40004F0A8
:1021F000CDF85A49786007F1C40004F0C7F8C7F871
:1022000010D0002841F0E480F862554A07F1C4017B
:1022100007F1FC0004F0AAF8524A07F1C40107F5DF
:10222000827004F0A3F8504A07F1C40107F58670E4
:1022300004F09CF84D4A07F1C40107F58A7004F0D8
:1022400095F84B4A07F1C40107F58E7004F08EF83B
:10225000484A07F1C40107F5927004F087F8464A2E
:1022600007F1C40107F5967004F080F8434A07F1BE
:10227000C40107F59A7004F079F8414A07F1C401E6
:1022800007F59E7004F072F83D4A07F1C40107F5A6
:10229000CA7004F06BF80025002207F5CA7107F533
:1022A000317004F003F8294607F5317004F01CF88A
:1022B000AA46B862AB46D7F8F83003B1DB689D4256
:1022C00080F28880294607F1F40004F003F82A46DA
:1022D000044607F5967107F5317003F0E7FFD7F86C
:1022E000C83213B1DB6803FB04F300249A4426468A
:1022F00055E000BF588EFF1F24650100F467010000
:102300002C65010070680100C4F00F4000710100ED
:10231000A86301007C680100906801008C680100DE
:102320009C680100A8680100B0680100B86801005D
:10233000C8680100D4680100E0680100E868010095
:10234000F4680100046901001069010020690100BE
:1023500030690100446901005069010060690100B1
:10236000786901008869010098690100AC69010081
:10237000C8690100E4690100F0690100006A010018
:10238000106A0100C865010003F090FF214607F5BF
:10239000317003F09FFF0028C8BF013601342A4680
:1023A00007F5967107F5317003F080FFD7F8C83252
:1023B00003B1DB689C422A4607F5967107F5317038
:1023C000E2DB294607F1F40003F084FF013500FB4E
:1023D00006BB70E72048C7F878A002F09DFDB8F171
:1023E000000F03D041461D4802F000FEB9F1010F75
:1023F00001F024804FEA8B03BB610A3323F007030B
:10240000ADEB030D06AAADEB030D06AB3B63BBF1D1
:10241000000F0BF1FF33BA63FB6110DD043A0023B8
:10242000013300219B4542F8041FF9D13B6B1A1F71
:102430000023013300219B4542F8041FF9D1D7F84E
:102440004031002B00F0BF87DB68002B40F3BA87D8
:1024500000221446154606E0246A0100286A01009D
:10246000CB689C421ADA07F59E7107F5CA7003F033
:102470001DFF002107F5CA7003F036FF014607F57E
:102480003170FFF7D3FCD7F8D832D7F840110134B8
:10249000A4B22B4422469DB20029E1D13D67BA691E
:1024A000386F134603FB00F30A3323F00703ADEB49
:1024B000030D0DF1180AB0B194080020BBF1000F14
:1024C0000CDD0022134604FB00F101330A449BB2E9
:1024D00000259B454AF822501A46F6DC01303A6F37
:1024E00083B29A42EAD8FC6E012C08DDC54802F09E
:1024F00013FD204602F0B0FDC34802F00DFDC34BB2
:1025000000221A60C24B1A60C24B1A60C24B1A609A
:10251000C24B1A60C24B1A60C24B1A60C24B1A609F
:10252000C24B1A60C24B1A60C24B1A60C24B1A608F
:10253000C24B1A60C24B1A60C24B1A60C24B1A607F
:10254000C24B1A60C24B1A60FB6E002B40F3BC8476
:1025500097F82C307B62BB69C7F800B09B087B639F
:102560000023BB66C7F8B8A002F07AFC002840F050
:102570007182BB6A002B00F08182BB6F002B40F39D
:102580003782002200210023C7E92612DFF8E4B2D7
:10259000DFF8CC82FB6307F5C272FB67C7F8BC307B
:1025A0009946C7F8A430C7F894209A46D7F8BC30AB
:1025B000C7F884D0002B00F07083D7F888605146AC
:1025C00007F1E40003F086FE524607F5967185B2E6
:1025D00007F5CA7003F06AFED7F8A420B2FBF6F341
:1025E00006FB1326314607F5CA7003F073FE994BBC
:1025F0005246187007F58E7107F5CA7003F056FE43
:10260000314607F5CA7003F06FFE014607F5BA7050
:1026100007F010FB904BD7F87401002808BF18464C
:10262000FEF762FB5246C7F8A80007F5927107F55E
:10263000CA7003F03BFE314607F5CA7003F04AFE4C
:10264000524607F1EC01044607F5CA7003F02EFE6E
:10265000314607F5CA7003F03DFE524683B207F5D6
:10266000827107F5CA70C7F8803003F01FFE31464B
:1026700007F5CA7003F038FED7F89460014630467B
:1026800007F0D8FA744B3068002808BF1846FEF7E8
:102690002BFB0BF0DDFA714B1880002D00F0F88158
:1026A000AB00C7F8B450C7F88C30D7F88830D7F8EB
:1026B000BC20194691420DDD1AB94FF4C853013BB5
:1026C000FDD1D7F8A8000BF0C3FA624B81B218789D
:1026D000FDF7DAFE02F0C4FB002840F0CA82D7F80A
:1026E0008C300A3323F00703ADEB030D06AAADEBE4
:1026F000030D0023CBF8003006ABC7F8A820C7F8BD
:102700009030DBF80030002BFBD0A3B21946D7F88D
:10271000B420D7F8A800C7F8A03003F055F900237B
:102720000F24C8F80030152007F01CFCD8F8003042
:102730004B4A013C1844A4B2C8F80000002CF2D166
:10274000484BA3FB0030D7F8BC30C008022B106008
:1027500000F3A5810AF0C4FBC7E92601424A4FF401
:10276000802120231160013BFDD1D7F8B420D7F898
:10277000A010D7F8900003F027F962B63B4B102267
:102780001A603B6F002B40F0B7817B6F012B00F08C
:102790005F82D7F8B410D7F8A8004FF07C5202F04F
:1027A000C9FD5146064607F1CC0003F093FD002811
:1027B00040F08381D7F8BC30022B40F37B81D7F8FF
:1027C000BC30581E0AF09CFB02460B46D7E9260196
:1027D0000AF026FD04460D461E4B1978244B1B6853
:1027E00003EB81012246D1F83C02D1F810E2D1F886
:1027F000E411C7F8A8002B46C7F88C1020462946DC
:102800003AE000BF446A0100E46501007CA0FF1FBC
:1028100038A0FF1F80A0FF1F00A1FF1F50A0FF1FB7
:1028200058A0FF1F74A0FF1F78A0FF1F04A1FF1F67
:1028300044A0FF1F34A0FF1F48A0FF1F40A0FF1FA0
:102840004CA0FF1F54A0FF1F24A0FF1F5CA0FF1F70
:1028500030A0FF1F28A0FF1F007101003CA0FF1F38
:10286000FCA0FF1F8988888848F00F40C4F00F4003
:10287000588EFF1F60A0FF1FC7F8B0E00AF0A6FB4C
:10288000C7E91801D7F8A8000AF04CFB02460B462E
:10289000D7E918010AF09AFB0022A54B0AF0C0FC08
:1028A000002200230AF0E0F9C7E92A01D7F8B000B6
:1028B0000AF038FB22462B460AF088FB02460B46FC
:1028C000D7E92A010AF0D0F90446D7F88C000D4662
:1028D0000AF028FB02460B46204629460AF0C4F9B6
:1028E00002460B46002093490AF09AFC0446304603
:1028F0000D460AF005FB0B460246294620460AF023
:1029000065FB0AF013FED7F880300646002B00F076
:10291000E980894B1B78002B38D0FB6DF01A0AF048
:1029200057FF002104460BF045F9002840F06D8266
:10293000824920460BF05CF9002840F022822046B4
:102940007F490AF099FF0446514607F1CC0003F095
:10295000C1FC002840F01E82D7F8A030002B00F008
:102960005682D7F8A030012B00F03A842146FD6F43
:10297000BC6B54F825000AF077FE3B6C44F8250048
:10298000012B00F03582FB6F0133FB67514607F1E5
:10299000F40003F09FFC5246044607F5967107F5D4
:1029A000CA7003F083FCD7F8BC20D7F89831013205
:1029B000C7F8BC20D7F8A4200132C7F8A42013B16F
:1029C000DB6803FB04F3D7F8BC20934200F0D3810B
:1029D000D7F8940007F0EEF807F5BA7007F0EAF8B8
:1029E000BB6FD7F884D009F101094B453FF7DEAD45
:1029F000544CFD6A07F5D67307F5EA71012053F8C8
:102A0000042B954205D0A25C4F4E56F8322082F836
:102A100000019942F3D17A6A4B4BB96E53F83230C8
:102A20004A480122114483F800210C46B96607F098
:102A30002FF8FB6EA34240F34382FB68002B7FF725
:102A400093AD1946424802F08DFB02F009FA0028C6
:102A50003FF48FAD01213E4802F084FB01307FF44A
:102A600088ADFB6C013B3B65FB6EBB667B6C7B659D
:102A70003B6ABB65BB6A002B7FF47FAD009307F513
:102A80009A7393E80300FA6EBB6EFEF7A9FC74E537
:102A90002423C7F88C300923C7F8B43005E60AF0C0
:102AA0001FFA02460B46D7E926010AF0DDF8C7E90E
:102AB000260153E6D7E926458EE6514607F1CC00BC
:102AC00003F008FC01283FF475AE514607F1CC0035
:102AD00003F000FC02283FF46DAED7F88030002BE5
:102AE0007FF417AFD7F8B410D7F890004FF07C52AE
:102AF00002F020FCF8650CE70123009307F59E73B4
:102B000093E80300FA6EBB6EFEF76AFCD7F840311B
:102B1000002B3FF43AAEDB68002B7FF736AE002285
:102B2000C7F860A014461546D7F834A062E000BF8D
:102B300000408F400000F03F28A0FF1F00FF7F47AC
:102B400000401C46B86C01004071010068A0FF1FE6
:102B5000506A0100D7F89801C7F8B030FEF7C4F802
:102B6000D7F8B030D7F8B81003FB0A92022E05F15F
:102B7000020341F822009BB25CD0D7F89C01C7F851
:102B8000B030FEF7B1F8D7F8B030D7F8B81003FB83
:102B90000A93EA1C032E41F8230093B24AD0D7F8D7
:102BA000A001C7F8B030FEF79FF8D7F8B030D7F8DB
:102BB000B81003FB0A932A1D042E41F8230093B298
:102BC00038D0D7F8A401C7F8B030FEF78DF8D7F8A1
:102BD000B030D7F8B81003FB0A93013441F8230052
:102BE000D7F840310535A4B2ADB2224653B3DB6805
:102BF0009C4227DA07F59E7107F5A27003F056FB99
:102C0000002107F5A27003F06FFB014607F5CA70BB
:102C1000FFF70CF9D7F89401D7F8A861FEF764F82C
:102C200005FB0A92D7F8B8106B1C012E41F8220060
:102C30009BB28FDC1D460134D7F84031A4B2224646
:102C4000002BD4D17B6FD7F860A0012B7FF4A1AD0E
:102C5000D7F8A820D7F88C1002EB4100131F0438D6
:102C600007F2C22253F8041F22F8021F9842F9D13A
:102C70008FE501218A4802F075FA01307FF42FAD0B
:102C8000FB6CD7F87890013B3B657B6C013B7B6527
:102C9000FB6EBB66BB6CBB6521E5524607F59671C2
:102CA00007F5CA7003F002FBD7F89831002B00F04B
:102CB0007882DB68C7F888301E46C7F8B460D7F85A
:102CC000946007F5D6750024524607F5867107F51E
:102CD000CA7003F0EBFA214607F5CA7003F0FAFA5E
:102CE000524645F8040B07F58A71304603F0DEFAC8
:102CF0002146304603F0F8FA014607F5CA7006F09F
:102D000099FF684BD7F89401002808BF1846FDF7D3
:102D1000EBFF013407F5CA7006F04CFF0A2CD3D143
:102D2000D7F8B460BAF1000F3DD0514607F1FC006E
:102D300003F0DAFA014607F5CA7006F07BFFD7F810
:102D40009401002800F09E82FDF7CEFF0AF080FF7C
:102D50000346FA6B934205D0534A591E914240F202
:102D60009882FB6307F5CA7006F024FF0024002355
:102D7000C7E9263423E400230AF1010AC7F8BC306E
:102D800026E6514607F1CC00484C03F0A3FA002890
:102D90003FF4E2AD514607F1CC0003F09BFA012865
:102DA0007FF4E4ADD8E5514607F1FC0003F09CFA4E
:102DB000014607F5CA7006F03DFFD7F894010028D8
:102DC00000F05982FDF790FF0AF042FFF863FA6BBA
:102DD000354B013A9A42C5D8FB6B03EB4302120113
:102DE000013A232ABED93249324806F007FEB9E734
:102DF000D8F800000AF0E8FC3C6B014654F82500C6
:102E00000AF032FC44F82500BDE500249CE52A4B7D
:102E10001A782A4B1B6803EB82022046916DD36A15
:102E2000C7F8B430936DC7F8A830D2F884600AF0C0
:102E300019FC0AF077F8D7F8A83004460D46D7F801
:102E4000B40019460AF00EFC0AF06CF802460B4674
:102E5000204629460AF0E4F9044630460D460AF0B9
:102E600061F802460B46204629460AF0AFF80AF000
:102E7000A5FB5146044607F1CC0003F02BFA0128CC
:102E80000E4D7FF473AD0C4B1A782B68623203EB56
:102E90008203204659680AF0E5FB044666E500BF58
:102EA000506A01000071010057555505643F1C4EE2
:102EB000F510000068A0FF1F28A0FF1F588EFF1FFD
:102EC000D7F800B0D7F8B8A007F1DC0393E8030007
:102ED00007F5AA7383E8030007F1D40393E803001E
:102EE00007F5AE7383E80300D7F85831002900F0E6
:102EF0007D82D1F80C80002B00F07282B8F1000FB7
:102F0000D3F80C9047DD07F5C273A94EC7F8BC9003
:102F100000249946224607F5AE7107F5CA7003F002
:102F2000C5F9002107F5CA7003F0D4F92246054619
:102F300007F5AE71484603F0B9F90121484603F0A0
:102F4000D3F9014607F5CA7006F074FE462D19D86C
:102F5000984BD7F89401002808BF1846FDF7C4FE27
:102F6000954BC7F8B8001A6802EB8505D5F89C1395
:102F70000AF016FE18B9D7F8B830C5F89C33337884
:102F8000DB07FCD5013407F5CA7006F013FEA04537
:102F9000C0DCD7F8BC90B9F1000F2DDD8748854E15
:102FA00001F0BAFF09F1FF380025294607F5AA709C
:102FB00003F09AF9014607F5CA7006F03BFED7F810
:102FC0009441002C08BF34462046FDF78DFE09F0E1
:102FD000A9FF02460B467A48214602F007F8A845A9
:102FE000784808BF784801F097FF013507F5CA70A7
:102FF00006F0E0FDA945D8D1D7F84031002B7FD0AD
:10300000DB68002B7CDDBB69FE699B080022C7F8EA
:10301000B43007F5C273C7F8A820C7F8B030C7F8B6
:10302000BC20D7F8B04007F59E71204603F03EF96A
:103030000021204603F058F9014607F5CA70FEF753
:10304000F5FED7F8A831C7F8B830002B4ADD4FF0AD
:103050000008B8F1040F09D8DFE808F09D97918BBC
:103060000300D7F8A411594801F0C0FFBBF1000FCD
:103070002ADDD7F8BC20D7F8B410002302FB01F5F5
:103080001C4605EB06090DE05AF8220009F04AFF3C
:10309000013402460B46A4B24D4801F0A7FFA345F8
:1030A000234611DDB34205EB0302EDD15AF82900A6
:1030B00009F038FF013402460B46A4B2454801F03E
:1030C00095FFA3452346EDDCD7F8BC3001339BB216
:1030D00008F10108C7F8BC30D7F8B8301FFA88F8F3
:1030E0009845B6DBD7F8A820D7F84031013292B224
:1030F000C7F8A82023B1DB68D7F8A810994290DB65
:10310000354801F009FF7B6F002B40F0CF80BBF109
:10311000000F40F37181BB6B7E6FD7F86C801C1F72
:1031200014E040460AF054FB014628460AF058FCD9
:10313000002101F07DFFFB692248B34206F1010640
:1031400001D001F0E9FEB34500F0198154F8045FA5
:10315000224928460AF04CFD0028E2D140460AF0F8
:1031600037FB014628460AF03BFC042101F060FFD2
:10317000E1E7D7F8A011154801F038FF76E7D7F856
:103180009C11124801F032FF70E7D7F898110F48F0
:1031900001F02CFF6AE7D7F894110C4801F026FFE4
:1031A00064E7D7F8BC30C7F888301E4685E500BF15
:1031B0000100024000710100588EFF1F646A010087
:1031C000706A0100E4650100786A01007C6A010010
:1031D000E06501003C6A0100546A010000004843B8
:1031E0008C4B1A788C4B1B6803EB82022046D2F87A
:1031F0000811D2F8DC30C7F8B430D2F80831C7F87B
:10320000A830D2F834610AF02DFA09F08BFED7F815
:10321000A83004460D46D7F8B40019460AF022FA41
:1032200009F080FE02460B462046294609F0F8FFC9
:10323000044630460D4609F075FE02460B46204610
:10324000294609F0C3FE0AF0B9F95146044607F1D0
:10325000CC0003F03FF801286F4D7FF487AB6D4B36
:103260002A681B786E33204652F823100AF0FAF9C8
:103270000446FFF77BBB6948FDF736FD0AF0E8FC22
:10328000F863A4E56548FDF72FFD0AF0E1FC03466D
:103290005FE503EB43021201013A232A7FF661AD99
:1032A0005F496048FB6306F0A9FB5BE507F2C225B6
:1032B00000240FE035F8020F01F0CEFE002107F1E7
:1032C000E40003F007F801388442574801D001F0C8
:1032D00023FE0134002107F1E40002F0FBFF8442E9
:1032E000E8DB524801F018FE3B6ABA6D93423BDCC2
:1032F0007B6C7A6D013B934236DC3A6AB96D8A4247
:1033000000F0838207F5D67307F5EA72002143F8CF
:10331000041B9A42FAD17B6D07F5B27001331C464B
:103320007B6506F047FC7B6CD7F810D01A46A242AA
:103330003EF7DFAEBB6D0133BB65BA6CD7F814D076
:103340009A423EF787AEBC6801F0B2FDFB6C3A6D65
:10335000013B9A42C0F24E823B6DFA6C01339342BC
:103360003B65FEF66FAE2EE22F4801F0D5FD7B687F
:10337000002BC7DD19462E4801F0F4FEC2E7FA2003
:1033800007F0B8FB3B6C012BABD12A4801F0C4FD20
:103390003B6BF86E1C1F0AF01BFA002605462946F7
:1033A00054F8040F0AF01CFB002101F041FEFB69F8
:1033B0001D48B34206F1010601D001F0ADFDB34551
:1033C000EDD123E000233B6707F1C00AFFF78BB87C
:1033D000194907F1C40002F0D9FFF862FEF715BFE2
:1033E000B8F1000F7FF708AE99468CE5002B3FF44B
:1033F00003AED3F80C90CEE5FA2007F07BFB3B6CD4
:10340000012B7FF46EAF0B4801F086FDFA2007F028
:1034100071FB66E728A0FF1F588EFF1F0071010097
:10342000F510000068A0FF1FE4650100846A010038
:10343000506A0100AC6A010060690100C74801F0F0
:103440006BFD0024C64BC64D1B6804F10A0203EB5A
:1034500082030134586809F065FD02460B46C148F5
:1034600001F0C4FD0A2CEDD12B68586D09F05AFD0E
:1034700002460B46BC4801F0B9FDBC4801F04CFDCA
:103480000024B74BB64D1B6804F11602013453F803
:10349000220009F047FD02460B46B24801F0A6FDA6
:1034A0000A2CEED12B68D3F8800009F03BFD0246D0
:1034B0000B46AD4801F09AFDAD4801F02DFD00240A
:1034C000A74BA74D1B6804F1360203EB82030134BE
:1034D000586809F027FD02460B46A24801F086FD18
:1034E0000A2CEDD12B68D3F8040109F01BFD02462C
:1034F0000B469D4801F07AFD9E4801F00DFD002429
:10350000974B974D1B6804F14202013453F8220097
:1035100009F008FD02460B46924801F067FD0A2CAF
:10352000EED12B68D3F8300109F0FCFC02460B46C3
:103530008D4801F05BFD904801F0EEFC0024884BC3
:10354000874D1B6804F1200203EB820301345868A5
:1035500009F0E8FC02460B46824801F047FD0A2CC0
:10356000EDD12B68D3F8AC0009F0DCFC02460B4629
:103570007D4801F03BFD814801F0CEFC0024784BF2
:10358000774D1B6804F12C02013453F8220009F036
:10359000C9FC02460B46734801F028FD0A2CEED107
:1035A0002B68D3F8D80009F0BDFC02460B466E48E4
:1035B00001F01CFD724801F0AFFC0024684B684D1F
:1035C0001B6804F14C0203EB82030134586809F0D4
:1035D000A9FC02460B46634801F008FD0A2CEDD118
:1035E0002B68D3F85C0109F09DFC02460B465E484F
:1035F00001F0FCFC634801F08FFC0024584B584D4F
:103600001B6804F15802013453F8220009F08AFCC7
:1036100002460B46534801F0E9FC0A2CEED12B6818
:10362000D3F8880109F07EFC02460B464E4801F0B3
:10363000DDFC554801F070FC0024494B484D1B68E7
:1036400004F1620203EB82030134586809F06AFC5A
:1036500002460B46434801F0C9FC0A2CEDD12B6809
:10366000D3F8B40109F05EFC02460B463E4801F077
:10367000BDFC464801F050FC0024394B384D1B6816
:1036800004F16E02013453F8220009F04BFC0246AB
:103690000B46344801F0AAFC0A2CEED12B68D3F873
:1036A000E00109F03FFC02460B462F4801F09EFC6A
:1036B000374801F031FC0024294B294D1B6804F1E7
:1036C000780203EB82030134586809F02BFC0246B0
:1036D0000B46244801F08AFC0A2CEDD12B68D3F864
:1036E0000C0209F01FFC02460B461F4801F07EFC4D
:1036F000284801F011FC0024194B194D1B6804F1F6
:103700008402013453F8220009F00CFC02460B46F7
:10371000144801F06BFC0A2CEED12B68D3F8380268
:1037200009F000FC02460B460F4801F05FFC1A4806
:1037300001F0F2FB00240A4B094D1B6804F18E02D4
:1037400003EB82030134586809F0ECFB02460B4698
:10375000044801F04BFC0A2C20E000BFD0650100BA
:10376000588EFF1FE06501003C6A0100F065010012
:10377000FC6501000C6601001C660100306601005A
:10378000446601005C66010070660100806601000D
:1037900090660100A0660100B0660100CBD12B68E5
:1037A000D3F8640209F0BEFB02460B461B4801F049
:1037B0001DFCFEF71FBE1A4801F0AEFB204601F0CB
:1037C000ABFBD7F814D0174801F0A6FB01F05EFC64
:1037D00001F022FC144B1A2203F109000121134CC1
:1037E00054F83220984282F800113EF4BCAB13F832
:1037F000012FF4E70E4801F08FFB002C3FF4ACAD35
:1038000021460C4801F0AEFCA6E57A6D93427FF4A8
:1038100079AD094801F080FB74E500BF3C6A010006
:103820008C6A0100C06B0100B96C0100407101009D
:10383000E4650100506A0100886A0100F0B50128C2
:1038400087B030D0002002F087F8092820DD1D4B1A
:103850001D4F1C681D4A2368266825682168A468D6
:103860000594C6F30746C5F30724C9B21B0E02919F
:1038700003901749009601940497164801F0B6FB8F
:10388000154801F049FB07B0BDE8F04001F0FEBB70
:103890000146124801F0AAFB01F0F8FB07B0BDE8B1
:1038A000F04001F0B9BB00210D4801F05BFC054B75
:1038B0001B681A6890420B4A18BF18601378DB0720
:1038C000FCD5BFE7588EFF1FC865010024650100C5
:1038D0002C650100C06A0100C06B0100C0640100DA
:1038E000506A0100010002402DE9F04399B00BAF8E
:1038F00031234FF4FA72B649384601F0E1FB3846FD
:103900000BF05EFF0DF12B05064600240BE015F8C9
:10391000010F0AF0E9FB034620B938462B700BF083
:103920004FFF06460134B442F1D3022E40F290809C
:103930009DF82C5028460AF0C3FB002800F0928026
:10394000A5F13003092B00F2868038460AF07CFB93
:10395000A04B984200F0DD8540F28A809E4B984251
:1039600000F0B98741D99D4B984200F0978700F24B
:10397000F88003F15A4303F5A80303F56A5398420C
:1039800000F0768440F25E82954B984200F0D4833A
:10399000944B984240F03384934C8D48002101F0C1
:1039A000C7FB09F0C3FD411C054651D000218848E2
:1039B00001F0BEFB8D4B1B6803EB85050646D5F871
:1039C00034010F4609F0AEFA02460B46304639463E
:1039D00009F064FD28B93046394609F0EFFDC5F815
:1039E00034012378DA07FCD5D7E7814B984200F001
:1039F000258100F2A2817F4B984200F0A18700F25E
:103A0000CA817D4B984200F0D18503F1D47303F550
:103A1000B33303F58073984220D101F053FC77480B
:103A200001F02AFB4B210720FCF72EFDFCF75AFD85
:103A3000734B4FF480241C6040F2EE2007F05AF8DC
:103A4000704B00211C600720FCF71EFDFCF74AFDAF
:103A500019B0BDE8F083002D40F065816A4801F09F
:103A6000C5FAF5E7694801F0C1FA19B0BDE8F0837D
:103A7000674B984200F08B8640F21681654B984266
:103A800000F0778436D9644B984200F0FD8240F212
:103A90000C82624B984200F0DF86614B984240F006
:103AA000A086514C4A48002101F042FB09F03EFD3E
:103AB000411C0546CCD00021454801F039FB4B4B59
:103AC0001B6803EB85050646D5F8EC020F4609F0A6
:103AD00029FA02460B463046394609F0DFFC28B980
:103AE0003046394609F06AFDC5F8EC022378DA075A
:103AF000FCD5D7E74B4B984200F02C8640F2208251
:103B0000494B984200F06B82484B984240F0F68354
:103B1000354C2F48002101F00BFB09F007FD461C36
:103B2000054695D000212A4801F002FB2F4B1B6867
:103B300003EB85050646D5F8B0000F4609F0F2F90B
:103B400002460B463046394609F0A8FC28B93046F3
:103B5000394609F033FDC5F8B0002378D807FCD505
:103B6000D7E7334B984200F0D88540F2BA85314B05
:103B7000984200F08E85304B984240F069851A4C8F
:103B80001348002101F0D4FA09F0D0FC411C05468D
:103B90003FF45EAF00210E4801F0CAFA134B1B68D8
:103BA00003EB85050646E86A0F4609F0BBF90246B5
:103BB0000B463046394609F071FC20B9304639468B
:103BC00009F0FCFCE8622378DA07FCD5D8E700BFEF
:103BD000506A010016389A55701783B76C5038EC4C
:103BE00042456BD0C2DCA8D601000240588EFF1FB0
:103BF00072DEE17242F3B567EC0FD15F346C010005
:103C000044F00F4048F00F409C6C01004C6B0100E9
:103C1000C232F92340FED93532DE364E126095525B
:103C200042E11455EC05482DEC6CF12EC60DA03088
:103C3000EC9415F9A617FDFAA699F4FFB24DB34816
:103C4000002101F075FA2C68064660690F4609F0FC
:103C500069F902460B463046394609F01FFC20B987
:103C60003046394609F0AAFC6061A94B1A78D6079C
:103C7000FCD50021A54801F05BFA2C680646606A75
:103C80000F4609F04FF902460B463046394609F017
:103C900005FC20B93046394609F090FC60629C4B27
:103CA0001A78D507FCD5D3E640F23643984200F0A7
:103CB000A38240F2B880974B984200F0678340F2AD
:103CC000F482954B984200F08B83944B984240F0DD
:103CD00010838F4C8D48002101F02AFA09F026FC50
:103CE000421C05463FF4B4AE0021884801F020FA9A
:103CF000854B1B6803EB85050646D5F89C030F46EC
:103D000009F010F902460B463046394609F0C6FB69
:103D100028B93046394609F051FCC5F89C03237890
:103D2000DB07FCD5D6E79DF82D60002E40F03286EB
:103D300044F2AE3005FB00F00AE6794B984200F001
:103D4000258256D8A3F19C53A3F5A623A3F24B6377
:103D5000984200F04884734B98427FF47FAE01F0A4
:103D6000B1FA714801F088F94B210520FCF78CFB72
:103D7000FCF7B8FB6D4B4FF480241C6040F2EE2042
:103D800006F0B8FE6A4B00211C600520FCF77CFBA6
:103D9000FCF7A8FB5CE6674B984240F054835C4C10
:103DA0005A48002101F0C4F909F0C0FB0546013072
:103DB0003FF44EAE0021554801F0BAF9524B1B6852
:103DC00003EB85050646D5F83C020F4609F0AAF834
:103DD00002460B463046394609F060FB28B93046AA
:103DE000394609F0EBFBC5F83C022378D907FCD52E
:103DF000D6E7514B984200F0C58203F18B6303F57F
:103E0000952303F2D473984200F0B782A3F146637E
:103E1000A3F57A23A3F2DA3398427FF41FAE002091
:103E2000FFF70CFD14E6B0F57C7F00F0A68200F2EF
:103E30004B82B0F57A7F00F03F8240F2EF33984238
:103E4000EDD00BE6A3F14B63A3F57E23A3F62A2363
:103E5000984240F043812E4C2C48002101F068F933
:103E600009F064FB411C05463FF4F2AD00212748F0
:103E700001F05EF9244B1B6803EB85050646D5F877
:103E800008010F4609F04EF802460B463046394607
:103E900009F004FB28B93046394609F08FFBC5F814
:103EA00008012378DA07FCD5D6E7244B984240F086
:103EB000BD80174C1548002101F03AF909F036FB96
:103EC000411C05463FF4C4AD0021104801F030F913
:103ED0000D4B1B6803EB85050646D5F8B8010F4668
:103EE00009F020F802460B463046394609F0D6FA6A
:103EF00028B93046394609F061FBC5F8B801237886
:103F0000DA07FCD5D6E700BF588EFF1F506A0100C4
:103F100001000240A673000F645AEC22DEFD7123FB
:103F20007254A295EC800394246C010044F00F407D
:103F300048F00F4032DAB5705E3A62A1B23CD33E2F
:103F4000A3F17373A3F5E333BE3B984232D003F180
:103F50000F7303F5D13303F5827398427FF47EAD7E
:103F6000B74CB848002101F0E3F809F0DFFA431C30
:103F700005463FF46DAD0021B24801F0D9F8B24BCF
:103F80001B6803EB85050646D5F8E4010F4608F0EB
:103F9000C9FF02460B463046394609F07FFA28B978
:103FA0003046394609F00AFBC5F8E4012378DF07FB
:103FB000FCD5D6E70021A34801F0D4F8A34AA0F528
:103FC0009C43213B9342A04B25D81B689A689042A2
:103FD00018BF98609A4B1A78D507FCD538E501F0E0
:103FE00071F99B4801F048F84B210920FCF74CFA85
:103FF000FCF778FA974B4FF480241C6040F2EE20D7
:1040000006F078FD944B00211C600920FCF73CFA77
:10401000FCF768FA1CE51B68904A9968914218BF42
:104020009A60874B1A78D407FCD511E58C4B9842DF
:104030007FF414AD824C8348002101F079F809F037
:1040400075FA461C05463FF403AD00217D4801F09A
:104050006FF87D4B1B6803EB85050646D5F84403D6
:104060000F4608F05FFF02460B463046394609F01E
:1040700015FA28B93046394609F0A0FAC5F84403C4
:104080002378DD07FCD5D6E76D4C6E48002101F0A2
:104090004FF809F04BFA461C05463FF4D9AC002115
:1040A000684801F045F8684B1B6803EB8505064638
:1040B000D5F810020F4608F035FF02460B46304691
:1040C000394609F0EBF928B93046394609F076FA55
:1040D000C5F810022378DD07FCD5D6E7614B98427E
:1040E0007FF4BCAC564C5748002101F021F809F090
:1040F0001DFA431C05463FF4ABAC0021514801F0CA
:1041000017F8514B1B6803EB85050646D5F860018F
:104110000F4608F007FF02460B463046394609F0C5
:10412000BDF928B93046394609F048FAC5F86001AA
:104130002378DF07FCD5D6E7414C4248002100F048
:10414000F7FF09F0F3F9054601303FF481AC002197
:104150003C4800F0EDFF3C4B1B6803EB8505064631
:10416000D5F870030F4608F0DDFE02460B463046D8
:10417000394609F093F928B93046394609F01EFA54
:10418000C5F870032378D907FCD5D6E72E4D2D4806
:10419000002100F0CDFF2C680646A0690F4608F00C
:1041A000C1FE02460B463046394609F077F920B980
:1041B0003046394609F002FAA061214B1A78D4073B
:1041C000FCD500211F4800F0B3FF2C680646A06A0A
:1041D0000F4608F0A7FE02460B463046394609F066
:1041E0005DF920B93046394609F0E8F9A062144B70
:1041F0001A78D007FCD52BE4FCF712FE28E41A4B02
:1042000098427FF42BAC01F05DF8184800F034FFC1
:104210004B210820FCF738F9FCF764F90D4B4FF4FB
:1042200080241C6040F2EE2006F064FC0A4B002162
:104230001C600820FCF728F9FCF754F908E400BFDB
:1042400001000240506A0100588EFF1FDE8E6D0093
:10425000446C010044F00F4048F00F40A068060095
:1042600042A36149E2D765BCECF135C83C6C010062
:1042700001F028F8BC4800F0FFFE32210320FCF7D3
:1042800003F9FCF72FF9B94B4FF480241C6040F27E
:10429000EE2006F02FFCB64B00211C600320FCF73B
:1042A000F3F8FCF71FF9FFF7D3BBB24B9842A3D04A
:1042B000B14B98427FF4D2ABB04800F02DFEB0482D
:1042C00000F0DAFEFFF7C4BB40F20343984200F06F
:1042D000B88040F2054398427FF4C0ABA94B186800
:1042E00008F020FE02460B46A74800F07FFEFFF7CD
:1042F000AFBBA64B98427FF4B1ABEFE7A44B98421B
:104300007FF4ACABA34DA448002100F011FF2C6852
:104310000646E0680F4608F005FE02460B463046AA
:10432000394609F0BBF820B93046394609F046F95C
:10433000E0609A4B1A78D007FCD50021964800F02F
:10434000F7FE2C680646E0690F4608F0EBFD0246D2
:104350000B463046394609F0A1F820B930463946B7
:1043600009F02CF9E0618D4B1A78D107FCD5FFF7E5
:104370006FBB01F0EDF8FFF76BBB0120FFF75EFAB2
:10438000FFF766BB01F0B6FBFFF762BB834C8248C8
:10439000002100F0CDFE09F0C9F8431C05463FF4AA
:1043A00057AB00217C4800F0C3FE7A4B1B6803EB3F
:1043B00085050646D5F884000F4608F0B3FD024691
:1043C0000B463046394609F069F828B93046394677
:1043D00009F0F4F8C5F884002378DF07FCD5D6E7A8
:1043E0006F4DDFF88891DFF8888100F06BFF0FCD0B
:1043F00001AC0FC40FCD0FC495E8030084E803009F
:1044000001AC54F8045B6748294600F0EFFD4FF417
:10441000802632212846FCF737F8FCF763F84FF482
:10442000FA70C9F8006006F065FB28460021C8F85C
:104430000060FCF729F8FCF755F8BC42E1D1FFF722
:1044400007BB07F007F9584B98427FF407AB534C72
:104450005148002100F06CFE09F068F8421C064645
:104460003FF4F6AA4B4D4C48002100F061FE2F6846
:10447000B60037448046D7F86802894608F052FDF6
:1044800002460B464046494609F008F828B940461E
:10449000494609F093F8C7F868022378DB07FCD592
:1044A00000213D4800F044FE2F6837448046D7F88D
:1044B0009402894608F036FD02460B4640464946BE
:1044C00008F0ECFF28B94046494609F077F8C7F8EC
:1044D00094022378DF07FCD500212F4800F028FE46
:1044E0002B681E448046D6F8C002894608F01AFDA3
:1044F00002460B464046494608F0D0FF28B94046E0
:10450000494609F05BF8C6F8C0022378D807FCD505
:104510009EE7224C2048002100F00AFE09F006F830
:10452000461C05463FF494AA00211B4800F000FEFB
:10453000184B1B6803EB85050646D5F88C010F4622
:1045400008F0F0FC02460B463046394608F0A6FF5C
:1045500028B93046394609F031F8C5F88C0123787E
:10456000D807FCD5D6E700BF146C010044F00F401B
:1045700048F00F40B5185A0150662C052C65010013
:10458000686B010008A1FF1F886C01007026571A94
:1045900072F2602D588EFF1F506A01000100024028
:1045A0007C630100F86B0100F27ACA7200F08AFEA7
:1045B000CB4800F061FD32210220FBF765FFFBF7DD
:1045C00091FFC84B4FF480241C6040F2EE2006F0AF
:1045D00091FAC54B00211C600220FBF755FFFBF749
:1045E00081FFFFF735BA00F06DFEC04800F044FDD2
:1045F0000021BF4800F09CFD0446BE480D4600F077
:104600003BFD0021BA4800F093FD06460F462046C8
:10461000294608F08BFF39460546304608F086FFEC
:1046200001462846FBF730FFFBF75CFFAD4B4FF42C
:1046300080241C604FF47A7006F05CFAAA4B28467E
:104640001C600021FBF720FFFBF74CFFFFF700BACF
:10465000A94B98427FF402AA00F034FEA74800F06C
:104660000BFD4B210620FBF70FFFFBF73BFF9D4B9C
:104670004FF480241C6040F2EE2006F03BFA9A4B87
:1046800000211C600620FBF7FFFEFBF72BFFFFF766
:10469000DFB99B4C9648002100F04AFD08F046FF28
:1046A000431C05463FF4D4A90021914800F040FD89
:1046B000944B1B6803EB85050646A86D0F4608F072
:1046C00031FC02460B463046394608F0E7FE20B979
:1046D0003046394608F072FFA8652378DF07FCD51D
:1046E000D8E7894B98423FF4ACAE884B98427FF4B0
:1046F000B5A9874800F010FC0021864800F032FD83
:1047000001460446844800F071FC204600F062FB3C
:10471000824800F0B1FCFFF79BB900F0D3FD804860
:1047200000F0AAFC32210120FBF7AEFEFBF7DAFE17
:104730006C4B4FF480241C6040F2EE2006F0DAF956
:10474000694B00211C600120FBF79EFEFBF7CAFEAF
:10475000FFF77EB900F0B6FD724800F08DFC4B21EA
:104760000420FBF791FEFBF7BDFE5E4B4FF4802467
:104770001C6040F2EE2006F0BDF95B4B00211C608E
:104780000420FBF781FEFBF7ADFEFFF761B95C4C3F
:104790005748002100F0CCFC08F0C8FE461C054636
:1047A0003FF456A90021524800F0C2FC554B1B684B
:1047B00003EB85050646D5F8DC000F4608F0B2FB92
:1047C00002460B463046394608F068FE28B93046A6
:1047D000394608F0F3FEC5F8DC002378D807FCD58D
:1047E000D6E7514B98427FF439A9464D4048002105
:1047F00000F09EFC2C68064620690F4608F092FBEC
:1048000002460B463046394608F048FE20B930468D
:10481000394608F0D3FE2061394B1A78D207FCD50F
:104820000021334800F084FC2C680646206A0F46BD
:1048300008F078FB02460B463046394608F02EFE5B
:1048400020B93046394608F0B9FE20622C4B1A7860
:10485000D707FCD5FFF7FCB8344800F05DFB00F04B
:1048600031FD002108460122FBF73EFE304800F0F2
:1048700053FB002108460222FBF736FE2D4800F0CC
:104880004BFB002108460322FBF72EFE2A4800F0CE
:10489000F3FB0120FEF7D2FFFFF7DAB800F012FDBC
:1048A000264800F0E9FB32210A20FBF7EDFDFBF77B
:1048B00019FE0C4B4FF480241C6040F2EE2006F0F1
:1048C00019F9094B00211C600A20FBF7DDFDFBF7FD
:1048D00009FEFFF7BDB8FCF7B5FFFFF7B9B800BF99
:1048E0000C6C010044F00F4048F00F40906B010049
:1048F000506A0100C46B0100ECFBBEFA2C6C010095
:1049000001000240588EFF1F90D721F1C28D5CF349
:10491000546C0100646C0100686C01007C6C010047
:10492000046C01001C6C010072682150706B010066
:10493000786B0100806B0100886B01004C6C0100FA
:10494000224C2348002100F0F3FB08F0EFFD431C4C
:1049500005463FF47DA800211D4800F0E9FB1D4BF2
:104960001B6803EB85050646D5F818030F4608F0CB
:10497000D9FA02460B463046394608F08FFD28B971
:104980003046394608F01AFEC5F818032378DF07C9
:10499000FCD5D6E79DF82E80B8F1000F06D144F281
:1049A000AE3303FB06F00130FFF7C4B99DF82F408A
:1049B0002CB944F2AE3303FB08F30133F1E70CA842
:1049C000FCF7BAFB00FB0440431CF4E70100024083
:1049D000506A0100588EFF1F194B00B51B6899687B
:1049E00044F61F62914283B019DD9968154A9142DD
:1049F00015DC00F09FFD01E000F082FF00F062FA9C
:104A0000431CF9D0019002F063FB01985B2810D0A1
:104A1000FEF76AFF03B05DF804EB00F0FDBA996899
:104A2000094A914200D09A60084A1378D907FCD508
:104A3000DFE7FDF74DFA03B05DF804EB00F0ECBAE8
:104A4000588EFF1F00DD6D00A068060001000240C7
:104A500038B54FF0FF31074801F078FA064B074AA6
:104A60000749802400251C7118461D60BDE83840A8
:104A700008F0EEB884A0FF1F68A0FF1F508EFF1F34
:104A8000E910000038B5164C0D20012106F00AF897
:104A900004F109051A2001E014F8010F002106F0C5
:104AA00001F8AC42F8D10121062005F0FBFF0D4BC7
:104AB00010221A600121202005F0F4FF002122209D
:104AC00005F0F0FF0021232005F0ECFF0021242059
:104AD00005F0E8FF00212520BDE8384005F0E2BFE1
:104AE000C56C0100C4F00F4008B500F013FC1A4B70
:104AF0001B6893F8B824012A1FD0042000F06AF93B
:104B00004FF4E13000F03CFB00F0DCFB41F2883078
:104B100005F0F0FFFFF7B6FF104804F02DF805F0A0
:104B2000BDFA05F085FD04F089F80D4800F0F4F9B0
:104B30000C48BDE8084000F09FBA93F8B82432B999
:104B4000094A1378DB07FCD500F00AFED5E70022FE
:104B500083F8B824F4E700BF588EFF1F2094FF1F8E
:104B60002C650100686B01000100024010B50024B3
:104B7000E0B20021013405F095FF212CF8D110BDE1
:104B800070B5084C236863B1074D00262846EE54E3
:104B90000AF016FE0146284606F064FA06F0F2FA1C
:104BA000266070BD30A2FF1F20A1FF1FF8B50B4D7E
:104BB0000B4E0C4F441E14F8013F73B129684A1C78
:104BC000142A73542A6002D03B68002BF3D1FFF7FC
:104BD000D7FF14F8013F002BF0D1F8BD30A2FF1F22
:104BE00020A1FF1F0CA1FF1F2DE9F04FDFF87C81F2
:104BF000D8F800508BB0002D00F09780DFF870A13E
:104C0000DFF860E1DAF8003005F1010B5FFA8BF1B3
:104C100003F141024B1E0EF80520DBB2002900F023
:104C2000928001330EEB030172464FF6FF7412F8C7
:104C3000013B83EA142383EA131343EA04249BB25F
:104C400084EA033484EA43138A429CB2EFD1C4F36A
:104C500003230093C4F303134FEA143C019304F0BD
:104C60000F043D4FDFF80C910FCF05AE0FC60AAB16
:104C70009C44009B0AAA13441A46019B0AA90B44B0
:104C800019460AAB1C443B6833701CF8146C0EF8D0
:104C90000B600EEB0503063512F8147C11F8140CAA
:104CA00014F8141C9F7004220026D87019715A71D0
:104CB0002A4C0EF805602A4FC8F800509B4601E0C8
:104CC00006F098FA06F082FA0028F9D1D9F80030F7
:104CD0000BB1002E3CD02348FFF768FFFFF750FFD1
:104CE00023680393039D03E006F0C4FA01301FD14B
:104CF00023680493049B5B1BF92BF5D93B680136B1
:104D00000133052E3B60DDD1DAF80030164A591C1C
:104D100082FB0123CA17C2EBE3021A2303FB12131F
:104D20000022CAF80030C8F800200BB0BDE8F08FB0
:104D300006F060FA054606F09DFA0130F8D1EDB2B2
:104D4000062DDBD1E0E70F2401940094A44688E708
:104D50005846FFF72BFFC1E7D06C010044A3FF1FAB
:104D60001CA1FF1F3CA1FF1F4FECC44E10A1FF1F51
:104D700014A1FF1F608EFF1FF0B5134D134F144E8B
:104D800083B0044614F8012B7AB1042AFAD02B68B8
:104D90003168FA5401332B6049B9EA2BF2D1FFF79D
:104DA00023FF14F8012B002AEFD103B0F0BD02A8B5
:104DB00014F8013C0022ADF8042000F8043DFFF790
:104DC000F5FE2B68E9E700BF10A1FF1F3CA1FF1F04
:104DD000608EFF1F042805D0064A074B0021116092
:104DE000186070470349044B0120032208601A60D1
:104DF000704700BF38A1FF1F5C8EFF1FF8B5134D31
:104E0000134E144F06F0E2F90446B8B907F082FADF
:104E10002B78002BF6D033780F4ADB07F2D53B68AE
:104E200012689B1A0E2BEDD907F040F90028E9D043
:104E30000A4B1C60BDE8F84007F0FCB8074B0122A4
:104E40001A60BDE8F84006F0D5B900BFC8A4FF1F3E
:104E5000E0A4FF1F44A3FF1F4CA5FF1F18A1FF1FC5
:104E600010B507F057FA0E4B1B7803F0FF0463B13F
:104E70000C4B1C7814F0010407D00B4B0B4A1B6839
:104E800012689B1A0E2B04D8002406F09FF92044C8
:104E900010BD07F00BF9044606F098F9204410BD48
:104EA000C8A4FF1FE0A4FF1F44A3FF1F4CA5FF1FC2
:104EB00008B501E0FFF7A2FFFFF7D2FF0028F9D104
:104EC00008BD00BF08B506F081F9B0B907F022FAB5
:104ED0000D4B1B78ABB10D4B1B78DB0711D50C4B81
:104EE0000C4A1B6812689B1A0E2B0AD907F0DEF8D1
:104EF00038B1BDE8084007F0C1B8BDE8084006F089
:104F0000B9B94FF0FF3008BDC8A4FF1FE0A4FF1FD0
:104F100044A3FF1F4CA5FF1F38B52C4B1B6804464C
:104F2000A3B12B4B1B6853B32A4B1B68204633B9E4
:104F3000FFF73CFE2046BDE8384002F0F3B8FFF72B
:104F40001BFF2046BDE8384002F0ECB807F0E2F95C
:104F5000214B1B7853B1214B1B78D80706D5204B2A
:104F6000204A1B6812689B1A0E2B21D81E4B1B6807
:104F70009907D9D42046BDE8384002F0D3B807F0ED
:104F8000C9F9154B1B78002BD4D0144B1B78DD07C7
:104F9000D0D5134B134A1B6812689B1A0E2BC9D924
:104FA00020460AF00DFC0146204607F0AFF8C1E7A5
:104FB0000D4D2B68DA07DBD520460AF001FC0146CF
:104FC000204607F0A3F82B68D2E700BF38A1FF1FE7
:104FD00018A1FF1F0CA1FF1FC8A4FF1FE0A4FF1F03
:104FE00044A3FF1F4CA5FF1F5C8EFF1F0FB400B52D
:104FF000B5B036ABC82153F8042B009301A80EF0CE
:1050000005F8002301A88DF8CC30FFF785FF35B0F7
:105010005DF804EB04B0704708B5044B1B680BB196
:10502000FFF7E2FDBDE80840FFF7AABD0CA1FF1F96
:1050300010B590B00C4607F075FF2346CDE900018E
:10504000044A322103A80AF0EFF803A8FFF764FF2F
:1050500010B010BDE46C010000B58FB00346054AE6
:10506000322101A80AF0E0F801A8FFF755FF0FB0C0
:105070005DF804FBEC6C010008B5FFF74DFF02483A
:10508000BDE80840FFF748BF786C010008B502F0A2
:1050900027F801F0F3FFFFF73FFF0748FFF73CFF5A
:1050A000064B1B680BB1FFF79FFDFFF769FDBDE8DD
:1050B000084002F00DB800BF786C01000CA1FF1F82
:1050C0002DE9F04FDFF8648083B0D8F800400094F9
:1050D000009F82468B46164699460024D8F8003039
:1050E0000193019DEB1B0EB19E4217D3FFF7EAFE21
:1050F000013001D130BFF1E7FFF780FEC7B239467A
:1051000058460AF00DF948B90AF804700134B9F1AB
:10511000000F01D04C4501D22F46DFE70023504657
:105120000AF8043003B0BDE8F08F00BF44A3FF1FAE
:1051300000B589B00A461823014601A8FFF7C0FF51
:105140009DF8043023B90649002009B05DF804FB3E
:1051500001A800210BF0B2FB09B05DF804FB00BF11
:105160000000F87F00B589B00A461823014601A85F
:10517000FFF7A6FF01A808F06BFF09B05DF804FB7C
:105180002DE9F047144D154C2E68154FDFF8589057
:10519000824640F2EE2804E0B3F5FA6F15D807F026
:1051A000B9F807F0B7F8237843B13B78DB0705D5AA
:1051B0002B68D9F800209B1A0E2B06D82B68227872
:1051C0009B1B002AE8D14345E9D951460548BDE873
:1051D000F04704F099BB00BF44A3FF1FC8A4FF1F02
:1051E000E0A4FF1F6094FF1F4CA5FF1FB0F9002033
:1051F000B1F900309A4202D003DD0120704700204F
:1052000070474FF0FF30704702680B689A4202D037
:1052100003DD01207047002070474FF0FF307047DA
:1052200090F92410104B03604B1C06D0F0B40F4EC5
:1052300056F82130984201D0F0BC70470C4F57F817
:10524000213033B18D0000245A1953685460002B6B
:10525000FAD1084C23780022013B237047F8212023
:1052600046F82120E8E700BF006D010000A3FF1F02
:10527000E0A2FF1F21A3FF1F70B590F924506B1C03
:1052800019D00D4A0D4B52F82540EDB21D7094B166
:105290000E46AD0002E02C44646864B194F82530F9
:1052A000002BF8D0236820462C4431461B689847D1
:1052B0006468002CF2D170BDE0A2FF1F20A3FF1F85
:1052C000704700BF38B501210220104D104C05F089
:1052D000E9FB002201214FF4A070296000239342D2
:1052E00002D000BF0133FAE721600246013AFDD146
:1052F0009A1C282AF1D1054B01221A604FF47A70CA
:1053000005F0F8FBBDE83840FBF7B0B8C4F00F403B
:10531000C8F00F4008B51F20012105F0C3FB044B66
:1053200001221A604FF47A70BDE8084005F0E2BB34
:10533000C8F00F4070B50A4B0E46154604220446CD
:1053400009F0A2FA304608F043FA294608F094FA28
:1053500007F0C2F808F056FC54F8200070BD00BFFA
:105360000952000070B50A4B0E461546022204464B
:1053700009F08AFA304608F02BFA294608F07CFA40
:1053800007F0AAF808F03EFC34F9100070BD00BF29
:10539000ED510000FFFFFFFF2DE9F04F87B00B1E1E
:1053A00005936EDD4FF000084FF0000946464F466A
:1053B00000EB430BCDE9006744464D465E46074689
:1053C0000022334B4046494607F04EFC804637F9F1
:1053D000020B894607F094FD22462B4682468B46F7
:1053E00007F040FC42464B46CDE9020107F018FFAA
:1053F00002460B462046294607F036FC02460B467D
:1054000004460D465046594607F02CFCDDE90223C0
:1054100007F0DCFD02460B46DDE9000107F024FC45
:10542000BE42CDE90001CBD106460F46059B581E72
:1054300007F066FD02460B463046394607F0F0FE9F
:1054400007F0ECF802460B4604460D4607F00CFC4C
:1054500007F066F80CA3D3E9002307F0E1FE02464B
:105460000B4600200B4907F0FDFB02460B460A489D
:10547000FFF7BCFD2046294608F0A0F807B0BDE8BC
:10548000F08F00260027D1E7EF39FAFE422EE63FE3
:105490000000F03F00002E400C6D010070B5037855
:1054A00003B300210C4602465B3B222B14D8DFE8F5
:1054B00003F02713291313131313131313131313C5
:1054C00013131313131313131313131313131313AC
:1054D000131325131200013912F8013F002BE3D1F9
:1054E00094B989B95D2104460AF05CFA054658B1C1
:1054F000407808F003FE48B9012070BD0131EBE7A8
:105500000134E9E7013CE7E7002070BD6E1C01F0C3
:10551000DFFD311B204601F0E9FD01F0E1FD01F066
:10552000ADFD314608220AF0B9F90028ECD16870C7
:10553000E2E700BF044A054B126882B00192019A6B
:105540001A6002B0704700BF44A3FF1F64A2FF1F90
:10555000014B024A1A6070470CED00E00400FA05A6
:1055600008B50A4803F046FB05F046FC002102207E
:1055700005F098FA1F20002105F094FAFFF7F6FADB
:105580004FF47A70BDE8084005F0B4BA2094FF1FCC
:10559000002900F084802DE9F04F0C469100661838
:1055A00085B076680193002E61D077187F68002F50
:1055B0005AD007EB010EDEF80480B8F1000F50D08E
:1055C00008EB010EDEF80490B9F1000F40D009EBB2
:1055D000010EDEF804A0BAF1000F35D00AEB010E7F
:1055E000DEF804B0BBF1000F2AD00BEB010EDEF8A1
:1055F00004500395DDB105EB010EDEF80450029571
:1056000065B129444968FFF7C3FF029D95F825302D
:1056100023B12B6801995B6828469847039B93F850
:10562000253023B10398019903685B6898479BF87C
:1056300025302BB1DBF8003001995B68584698475C
:105640009AF82530002B3CD199F82530002B31D128
:1056500098F825302BB1D8F8003001995B684046A6
:10566000984797F82530DBB996F825306BB994F850
:10567000253013B905B0BDE8F08F236801995B6848
:10568000204605B0BDE8F04F1847336801995B68C4
:105690003046984794F82530002BEBD0EDE7704763
:1056A0003B6801995B683846984796F82530002B8F
:1056B000DDD0EAE7D9F8003001995B6848469847A1
:1056C000C6E7DAF8003001995B6850469847BBE7B7
:1056D00090F92420531C2CD0204B2DE9F04153F895
:1056E0002260D2B21EB393000F46F1184C68DCB1B1
:1056F000E1184D6885B1E918D1F80480B8F1000FC0
:1057000007D0434459683B46FFF742FF98F82530DD
:10571000B3B995F825306BB994F8253023B12368D7
:1057200020465B683946984796F825307BB9BDE836
:10573000F08170472B6828465B6839469847EBE74D
:10574000D8F8003040465B6839469847E1E733684F
:10575000394630465B68BDE8F0411847E0A2FF1FBC
:10576000014803F08DBA00BF3CA2FF1F70B58EB098
:1057700005F040FD051E19DD642005F0BBF90DF1B3
:1057800003040DF1290604F8015F05F033FDB4426E
:105790000546F8D1002401A825220E498DF82A409B
:1057A0000AF07CF858B901200EB070BD0A48FFF726
:1057B000B3FB0A48FFF7B0FB00200EB070BD0848ED
:1057C000FFF7AAFB0348FFF7A7FB0648FFF7A4FB78
:1057D00001A8EFE7206D0100886D0100BC6D01009C
:1057E000486D0100686D010010B5104C236801215F
:1057F000D3F8840003F04CFC23680121D3F8840023
:1058000003F024FD23681021D3F8840003F0B2FDD7
:1058100023680321D3F8840003F06EFC236803217E
:10582000D3F88400BDE8104003F0F4BD34A2FF1F9C
:1058300070B501210646212005F034F9294B1020CE
:105840001860002105F02EF9FFF7CEFF4FF4165334
:10585000013BFDD164240025102004F083FB013CB2
:105860000544F9D1D6B9204CA4FB053464090021C4
:10587000212005F017F9204607F0A6FF4FF05E51F2
:1058800007F0FAFF194907F0F7FF194907F0F4FF8D
:10589000184908F0A5F808F0B5F970BD4FF4966105
:1058A0000920FAF7F1FD012005F024F9124A4FF41E
:1058B00080214FF47A531160013BFDD16425102003
:1058C00004F050FB013D0444F9D107480B4B4FF461
:1058D0008022A0FB0404294605201A60C440FAF780
:1058E000D3FDC4E708F00F401F85EB51C3F5983F87
:1058F00000007A4413E9813E44F00F4048F00F4025
:1059000000B5104B10491B68104A0968126883B033
:105910000193019B5B1A934207D9FFF721FE0C48C4
:1059200003F0AEF903B05DF804FB0020FFF780FF41
:1059300007F04EFF074908F03DF90028EDD103B00C
:105940005DF804FB44A3FF1F64A2FF1F38A2FF1FE2
:105950003CA2FF1F0000604038B50446FFF768FF17
:10596000F4B1144C144D07F033FF294607F07AFECA
:10597000214608F035F8114907F07EFF0021044662
:1059800008F02CF978B120464FF07C5107F06CFEFE
:1059900008F038F96428A8BF642020EAE07038BD18
:1059A000074C084DDFE720464FF07C5107F05AFEC8
:1059B000EEE700BF00004844008054450000C842A4
:1059C00000002F4400C05A45F8B504461646C1B938
:1059D000184F3B680D462322D3F88400222103F0A0
:1059E00005FE002E25DD043C3B682322D3F884000D
:1059F000222103F0FBFD0135AE4244F8040FF3D140
:105A0000F8BD0C4F3B682522D3F88400242103F015
:105A1000EDFD002E0DDD043C00253B682522D3F86A
:105A20008400242103F0E2FD0135AE4244F8040F66
:105A3000F3D1F8BD34A2FF1F2DE9F04F234B244EC4
:105A40001A68244B91681B68234ADFF8A090DFF89E
:105A5000A080224F116083B030460193204B019CFF
:105A60001C604FF0200A1F4C40F8049B5246002156
:105A700008F0B8FE00254FF0FF0B4246394630468D
:105A800086F824B086F8255086F8265007F0E0F80E
:105A900020465246294640F8049B08F0A3FE4246A1
:105AA0003946204684F824B084F8255084F82650DE
:105AB00007F0CEF8942004F071FC044603F09EFA3F
:105AC000094B1C6003B0BDE8F08F00BF588EFF1F6C
:105AD0003CA2FF1F44A3FF1F38A2FF1F215200005A
:105AE00064A2FF1F68A2FF1F34A2FF1F006D010008
:105AF000508EFF1F2DE9F0475048514D514C524FE9
:105B0000DFF87C91CCB0FFF707FA00234EF6602255
:105B10004E4901A8FFF7D4FA4EF660214B48FFF733
:105B200021FB012182460D2004F0BCFF2E6840F2CB
:105B3000EE2806F0EFFB237843B13B78DB0705D571
:105B40002B68D9F800209B1A0E2B0BD82B682278D3
:105B50009B1B2AB1B3F5FA6F04D806F0DBFBE8E72C
:105B60004345FAD951463A4803F0CEFE01210D20B3
:105B700004F084FF4FF47A7004F0BCFF0221354832
:105B800005F070FA4FF47A7004F0B4FF0A2132483D
:105B900005F068FA4FF47A7004F0ACFF0C212F483E
:105BA00006F0B4FA40F2D2412D4803F0FBFF062183
:105BB0002C4805F057FA40F2D241254803F0F2FF95
:105BC0004FF47A7004F096FF0D21274806F09EFAF4
:105BD00001A809F0F5FD014601A806F097FA072192
:105BE000224805F03FFA01A809F0EAFD014601A8A4
:105BF00005F038FA4FF47A7004F07CFF13211C484A
:105C000006F084FA08211B4805F02CFA4FF47A704C
:105C100004F070FFFFF7AAFD10B11748FFF77CF9F9
:105C200000210D2004F02AFF1448FFF775F9FFF753
:105C30002DFAFFF7F1F94CB0BDE8F087E46D0100F3
:105C400044A3FF1FC8A4FF1FE0A4FF1F506A010068
:105C50006094FF1FF46D0100F86D0100046E0100F7
:105C60008495FF1F146E01001C6E01002C6E010054
:105C7000346E0100486E0100546E01002065010081
:105C80004CA5FF1F014B024A1A60704790A2FF1FEC
:105C9000000001B804F02EBF2DE9F0471E4E96F922
:105CA00000305A1C2AD0DFF878A0DFF8789047B28D
:105CB000072500244FF0010801E096F90030D8B222
:105CC000002104F0DBFE08FA05F13940C9B29AF868
:105CD000000004F0D3FE0121307804F0CFFE99F8E3
:105CE000000004F0D1FE6400E4B2013D08B144F0CC
:105CF00001046B1CE1D12046BDE8F087074B1A6810
:105D00004FF00043D3625063D36A002BFCDA906BF0
:105D1000C0B2BDE8F08700BF95A2FF1F2094FF1F0F
:105D200096A2FF1F94A2FF1F2DE9F041364E0D46AB
:105D300000211F461446804604F0A0FE96F900306C
:105D400001332FD028467D1EFFF7A6FFADB23FB12D
:105D50000135254414F8010BFFF79EFFA542F9D148
:105D600096F90030013306D04046012104F086FE4A
:105D70000020BDE8F081254BDA7A1146002AF3D0E5
:105D8000D40703D52249986908601146900703D5C6
:105D9000204AD9691160D97A4A07E5D51E4A1B6A9B
:105DA0001360E1E7194BDA7AD2B172B6DA7AD0072A
:105DB000114609D5DFF87CE0D968DEF8000008401C
:105DC00098611146CEF80000900706D513491A696C
:105DD00008680240DA610A60D97A4A070DD462B6CF
:105DE0001B680F4AD9689142ACD00E4919600E4821
:105DF0000E49DA6018611960A4E70D495A6908680C
:105E000002401A620A60EAE795A2FF1F2094FF1F72
:105E100000E100E004E100E008E100E084E100E0EE
:105E20000320033801403F000320037800003F8037
:105E300088E100E080E100E02DE9F041374E0D46B9
:105E400000211F461446804604F018FE96F90030E3
:105E5000013330D028467D1EFFF71EFFADB247B19B
:105E6000013525440020FFF717FF04F8010BA54278
:105E7000F8D196F90030013306D04046012104F0F4
:105E8000FDFD0020BDE8F081254BDA7A1146002A9D
:105E9000F3D0D40703D523499869086011469007C9
:105EA00003D5214AD9691160D97A4A07E5D51F4A35
:105EB0001B6A1360E1E71A4BDA7AD2B172B6DA7A6A
:105EC000D007114609D5DFF880E0D968DEF8000078
:105ED000084098611146CEF80000900706D5144995
:105EE0001A6908680240DA610A60D97A4A070DD453
:105EF00062B61B680F4AD9689142ABD00E4919604F
:105F00000E480F49DA6018611960A3E70D495A6914
:105F1000086802401A620A60EAE700BF95A2FF1F04
:105F20002094FF1F00E100E004E100E008E100E050
:105F300084E100E00320033801403F0003200378A0
:105F400000003F8088E100E080E100E070B4084E8E
:105F5000084D094C01770022FF2131702970217012
:105F60000275C27482744274027470BC704700BFC0
:105F700096A2FF1F94A2FF1F95A2FF1F70B50446B3
:105F800090F91C006175421C86B04CD0C0B2012152
:105F900004F074FD207F012104F084FD304B93F95F
:105FA0000000431C58D0C0B2012104F07BFD2D4BF2
:105FB0000121187804F076FD2B4B0021187804F0AD
:105FC00071FD217F294A2A4B84F82110002184F891
:105FD0002210A266E366274B236704F1200000F03D
:105FE0005BFB10B1002006B070BD01200223042627
:105FF00003254FF4A071962284F859606074A07450
:10600000E074207484F85E00207584F8640084F8DD
:10601000583084F85B3084F85A50A4F86010A4F823
:10602000622006B070BD144B144A18690D46012653
:10603000597B049200231A46039302930193009321
:10604000059601F0EFFC0E4A0E4B84F8226084F8AE
:106050002150A266E366BEE70B4802F08DFDB0E773
:1060600095A2FF1F96A2FF1F94A2FF1F395E00009A
:10607000295D0000955C0000B8A2FF1FA08601000A
:10608000E96100009D6100002094FF1F30B5837C12
:106090000122044680F8642087B0407C0BB140F0B8
:1060A0000400E37C0BB140F00200237C0BB140F014
:1060B0001000237D0BB140F0C80004F120052946F3
:1060C00000F024FC18B10025284607B030BD284652
:1060D00000F0CEFB0028F6D129460DF1020000F0B9
:1060E000E5FDBDF80200400004F004FD294601A8CA
:1060F00000F012FE0028E6D1637CCBB9174B236079
:10610000A37C0BB3049807F05FFB154907F068FC0C
:10611000A060E37CABB1039807F056FB6060257D7F
:10612000ADB19DF80430DB0613D40023E360CBE768
:10613000BDF9080007F04CFB0A4907F051FC20604C
:10614000DEE7064B6360EAE7044BA360E1E7012565
:10615000BAE7059807F038FBE060B5E70000C07FBC
:1061600000007A440000C84210B50446FFF78EFFD5
:10617000206810BD10B50446FFF788FF606810BDA9
:1061800010B50446FFF782FFA06810BD10B50446A5
:10619000FFF77CFFE06807F05BFD10BD70B50D46B2
:1061A00082B001460F481E46144601F03DFD2946C7
:1061B0000C4801F00FFA56B1751EADB201352544F9
:1061C00014F8011B074801F005FAAC42F8D1054864
:1061D0000024427B01690094012302F023F8204649
:1061E00002B070BDB8A2FF1F2DE9F0411A4D8046E4
:1061F00082B00E46284641461F46144601F014FD63
:1062000031462846002601F0E5F96A7B29690096A7
:106210000123284602F006F801960126697B2869C9
:1062200000964246FBB202F013F8C0B2B84203D067
:10623000304602B0BDE8F081461EB6B240B101362C
:106240002644286902F01EF804F8010BB442F8D184
:10625000002002B0BDE8F081B8A2FF1F80E8060070
:1062600012B11378022B02D0002303604360704701
:1062700070B50468ACB14068A0B1002913DBC368F5
:10628000994210DA002900F110040ADD0E460025BB
:10629000204600F08FF801350130AE4204EB0014C7
:1062A000F6D1204670BD002070BD00BF38B50B464A
:1062B0000446114618461D68FFF7DAFF2560606046
:1062C00010B10378022B02D00023236063602046C4
:1062D00038BD00BF10B50446FFF7CAFF014620468F
:1062E000BDE8104000F076B810B50446FFF7C0FFD7
:1062F00001462046BDE8104000F078B880E806006E
:1063000012B11378012B02D0002303604360704761
:10631000F8B503683BB344682CB321B3E368012BA1
:1063200004F110041FDD0F46064600250DE004F1C0
:10633000100000F03FF87368DB6803EBD3730230A2
:10634000B5EB630F04EB00140DDA2146304600F084
:106350004DF80146384609F057F801350028E6D1D6
:1063600004F11000F8BD0020F8BD00BF38B50B46A1
:106370000446114618461D68FFF7CAFF2946024623
:106380002046FFF76BFF204638BD00BF10B504461E
:10639000FFF7BEFF01462046BDE8104000F01AB8E6
:1063A00010B50446FFF7B4FF01462046BDE8104093
:1063B00000F01CB881684269914200F110034FF06F
:1063C000000006DD10335A68914200F10100F9DC4B
:1063D0007047704709B10A780AB1002070474B68CE
:1063E0000068114618440AF029BB00BF10B481B1FF
:1063F0000B78012B04D9032B02D0002010BC70476E
:1064000002688B680024D45400684B68184410BCA0
:1064100070470846FBE700BF00293CD030B58D6CC3
:1064200083B0002D33D0CB6C002B30D00B6D73B309
:1064300010F0800FCA7814BF002310239A4223D093
:106440000C46CB700DF107020123F3216078A847B9
:1064500084F8540018B16FF0010003B030BD9DF80E
:106460000730E278E56C607802F0100223F0100348
:1064700013438DF807300DF1070201237321A8475C
:1064800084F854000028E6D1002003B030BD4FF05E
:10649000FF3003B030BD4FF0FF307047E0B130B592
:1064A000856C83B0A5B1C36C93B1036D83B1044611
:1064B00001230DF10702F3214078A84784F8540026
:1064C00068B99DF8073003F01003E37003B030BDE6
:1064D0004FF0FF3003B030BD4FF0FF3070476FF02A
:1064E0000100F3E72DE9F04182B0D3B19E6C1C4668
:1064F000BEB1DB6CABB1236D9BB1A3788846074678
:10650000ABB100251346394642466078B0470028B3
:1065100018BF6FF0010584F85400284602B0BDE8AA
:10652000F0814FF0FF35284602B0BDE8F0812146EA
:106530000192FFF771FF019AA66C05460028E1D190
:1065400047F08007DEE700BF2DE9F04F8BB005462E
:106550000F469246984668462822002108F042F9E4
:10656000B8F1000F58D0D8F84830002B54D0D8F8E4
:106570004C30002B50D0D8F85030002B4CD00AF1C2
:10658000FF33122B4ED81FFA8AFA0AF1FF3B00267E
:106590001FFA8BFB013F0BF1010B3446B1460EE0B5
:1065A0002B780DF814300DEB0603013417F8012F8A
:1065B0005A70A34505F1010506F102060ED098F8C0
:1065C0000230002BECD141462878FFF725FF2B78CD
:1065D00003F07F0381460DF81430E4E7B9F1000FB2
:1065E00003D048460BB0BDE8F08F4FEA4A03013BA9
:1065F0009BB2D8F84C409DF8001098F801000DF1BE
:106600000102A047002818BF6FF0010988F8540064
:1066100048460BB0BDE8F08F4FF0FF3948460BB04D
:10662000BDE8F08F6FF00309DBE700BF30B583B042
:10663000E022B6238DF806208DF80730D0B1826CA9
:10664000C2B1C26CB2B1026DA2B183780446B3B1DB
:10665000234601220DF107010DF10600FFF774FF3B
:10666000236D05460A2098470DB9A3787BB12846CB
:1066700003B030BD4FF0FF35284603B030BDFFF703
:106680000DFF05460028E3D0284603B030BD204664
:10669000FFF704FF0546EAE7F0B58DB028B3826C3A
:1066A0001AB3C26C0AB3026DFAB10446FFF7BEFF1B
:1066B000054610B128460DB0F0BD23460122214603
:1066C000D020FFF70FFF05460028F3D12378612B78
:1066D00040F09B8001A82922294608F083F8A36C8A
:1066E0008DF803500BB1E36C23B94FF0FF3528460A
:1066F0000DB0F0BD236D002BF7D001A92346192260
:106700008920FFF7EFFE0546002800F092809DF8F3
:1067100026E09DF825109DF805309DF809009DF8AC
:1067200006209DF80A709DF80CC09DF80B6041EAA8
:106730000E2143EA022240EA07279DF810E09DF867
:1067400011309DF80F00E1829DF81210228340EA7B
:106750000E2043EA01219DF818E09DF81720A78339
:106760009DF819309DF81A70608446EA0C2642EABA
:106770000E2243EA07239DF814009DF80770E68374
:10678000A1849DF80D609DF8131022856385A7767E
:1067900084F8206084F8260084F827109DF81B10E8
:1067A0009DF81E309DF81F709DF81D609DF8280013
:1067B0009DF8272084F82C1003F00F011B0941EAF3
:1067C000071143EA061342EA00229DF820E09DF8F3
:1067D00021709DF8226021819DF8230063819DF83E
:1067E000241062829DF82A309DF8292084F80CE05C
:1067F0006773A673E07321746274237545B19DF9C4
:1068000003301B1184F8363054E76FF0020551E76E
:10681000234601220DF103010220FFF763FE9DF8DC
:106820000330C3F30112054684F8342050B15BB243
:10683000E7E7234610220DF11D01E120FFF752FE8C
:10684000054664E7234601220DF10301FFF74AFEE6
:106850009DF9033084F8353005460028D1D10DF17B
:106860000301234601220420FFF73CFE0546C6E74C
:1068700070B582B074238DF80730002841D0836C46
:10688000002B3ED0C36C002B3BD0036D002B38D0C7
:1068900004460026234601220DF106017420FFF76D
:1068A00021FE48B99DF8063013F0030607D194F88D
:1068B0004420A2B902B070BD002EEBD1FAE723F05C
:1068C0000305012223460DF106010DF107008DF8A5
:1068D0000650FFF739FE236D0A209847DAE723F0C8
:1068E000030302F0030243EA02050DF10601234609
:1068F00001220DF107008DF80650FFF725FE02B0CA
:1069000070BD4FF0FF3002B070BD00BF2DE9F04305
:106910008A6C89B00023ADF814308DF807300493E9
:106920000693ADF81C30002A6ED0CA6C002A6BD0DA
:106930000A6D002A68D000F0080292B206460C46A2
:1069400091F84470002A40F0148181F844202046D8
:10695000FFF78EFF06F01005ADB2002D40F0E2808B
:10696000B10600F1B680B2077CD1730751D416F09E
:10697000C00F06D1002840D084F8447009B0BDE8AB
:10698000F08394F83E30012B08D994F84630012268
:1069900043F0020384F8463084F83E2094F83C30FB
:1069A0000A2B08D994F846300A2243F0020384F8EF
:1069B000463084F83C20234601220DF10701712066
:1069C000FFF790FD730600F1DE809DF80730360674
:1069D00008D594F83C2023F00F0302F00F02134374
:1069E0008DF8073008AA2A447121013502F8083CC5
:1069F000EDB202F8101C0028BED12A4606A904A850
:106A00002346FFF7A1FDB7E74FF0FF3009B0BDE81F
:106A1000F08394F83830052B08D994F846300522D5
:106A200043F0020384F8463084F8382023460122DC
:106A30000DF107017220FFF755FD9DF8072094F82E
:106A4000383008A9294422F0070203F00703134352
:106A5000013572228DF8073001F8083CEDB201F8DB
:106A6000102C84E794F83930052B08D994F8463077
:106A7000052243F0020384F8463084F83920234687
:106A80000DF1070101227420FFF72CFDF1079DF89D
:106A9000073008D594F8392003F01F0343EA421366
:106AA000DBB28DF80730B20709D594F83A2092008E
:106AB00023F01C0302F01C0213438DF8073008AAD0
:106AC0002A447421013502F8083CEDB202F8101C8A
:106AD0004BE794F83D30082B08D994F8463008224B
:106AE00043F0020384F8463084F83D202346012217
:106AF0000DF107017020FFF7F5FC9DF8072094F8D1
:106B00003D3008A9294422F0080203F0080313438A
:106B1000013570228DF8073001F8083CEDB201F81C
:106B2000102C20E794F83B30072B08D994F8463016
:106B3000072243F0020384F8463084F83B202346C2
:106B400001220DF107017520FFF7CCFC94F83B20E2
:106B50009DF80730920002F01C0223F01C0313433F
:106B600075228DF807308DF818308DF8102001252A
:106B7000F6E6012FADF80830ADF80C3010D084F8EF
:106B800044300120E6E694F83E209DF807301201DB
:106B900002F0100223F0100313438DF8073016E7BC
:106BA000B4F8402094F9043094F911C0B4F912E01B
:106BB00094F9141094F8345094F935004FF05A08B1
:106BC000C72A8DF8088069D9B2F5C87F28BF4FF46D
:106BD000C8720EF5163E0EF2991EDFF8CC8002FB4D
:106BE0000EF288FB029ED217C2EBEE0E2C4A13FB6C
:106BF00001F30EF5481188FB01E882FB03E2C91797
:106C0000DB17C3EBA2120CF5447C00EB8013C1EB45
:106C1000A8010CFB01F100EB4300120202EB610240
:106C200000F580302B1D92FBF3F393FBF0F3FA3B5E
:106C300003EB03135B001B49B4F84220323381FBA2
:106C40000301DB17C3EB6113B2F57C6F4FF06401F6
:106C50008DF80C308DF809101ED23F2A4FF000033A
:106C600006D9920801333F2ADBB2FAD89B01DBB286
:106C70001344DDB24FF0000884F83C802346022222
:106C800003A902A88DF80D50FFF75EFC84F844803C
:106C900000287FF45FAE5AE6FF25EBE7C82298E7AD
:106CA000D34D62101F85EB5167666666F0B50C46E2
:106CB00083B0054606221649164F684603F03CFA93
:106CC00094F8391094F83A2094F8386002AB1944DB
:106CD0001A441E4411F8080C12F8082C16F8083C47
:106CE0000244991840F2AB7202FB01F202F595538F
:106CF0001933A7FB03239B0901339BB22B8094F824
:106D00003E201AB1B4F8422013442B8003B0F0BDEA
:106D10006C6E0100D34D62102DE9F04F89B000294F
:106D20005AD08B6C002B57D0CB6C002B54D00B6DF2
:106D3000002B51D000240D468246059404940694FD
:106D4000ADF81C408DF81E404FF00A084CB108F118
:106D5000FF3818F0FF08F9D10224204609B0BDE839
:106D6000F08F2B460F2204A91D20FFF7BBFB9DF8D7
:106D70001EC09DF810209DF811308AF802304FFA9D
:106D80008CF303F02001044622F07F0003F010038F
:106D90000843184340B29DF81730029302F00F02E7
:106DA0009DF81D308AF8000000288AF801209DF81F
:106DB00012E09DF813709DF814609DF815209DF861
:106DC00016109DF818909DF819B001934FF00A0025
:106DD00008DB2B6D9847BAE74FF0FF34204609B027
:106DE000BDE8F08F029BE88A03971B0943EA011173
:106DF00041EA02324000C0EBD2084046C1174910B8
:106E00004FEA300000FB01F3A0FB000101EB43015E
:106E100095F91A30020B1B0142EA015209130F4681
:106E2000D917B5F9180002FB01F103FB0711A2FB0A
:106E300003230B44920B80FB080142EA8342C30AFE
:106E400043EA41531A4402EB820808F180084FEAF2
:106E5000282853102A63A3F57A43AAF8048095F9E9
:106E60002010B5F91E709A1002FB02F2490150136E
:106E700000FB01F0B5F92410D212029203FB01F2DB
:106E80000399360903FB07F346EA0116029F95F9B9
:106E90002610C01000EB6300B5F9223001FB07F1AA
:106EA0005200AF8B02EBA10246EA0E3680144FEA85
:106EB000034E0EEBA203C6F5801600F50040A6EBCC
:106EC000233307FB00F040F63542C01302FB03F307
:106ED000B3FBF0F35B00DA10B5F92A70B5F92810AE
:106EE00095F82C0095F92760B5F80AE002FB02F24C
:106EF000521307FB02F29F1001FB07F149131F1207
:106F000001EB223207FB07F107FB01F700FB07F754
:106F100002EB674202EBC61603EB2613CAF80830F1
:106F200095F90E30514895F90C10029108FB03F3C6
:106F300080FB0317DB17C3EB671395F90D202E8930
:106F400008FB03F39F1180FB071708FB02F2DB1716
:106F5000C3EB671380FB02170299D217C2EB6712CB
:106F600008FB01F11A4495F910704BEA092980FBDE
:106F7000013BC91702F58043A9EB0619C1EB6B125F
:106F80000EFB03F39B1208FB07F8A9EB620202FB5E
:106F900003F295F80FE03649364E374F80FB083044
:106FA0004FEAE878C8EB6013901303EBCE1300FBB5
:106FB00000F080121B1103FB00F302EB63039A1233
:106FC0004FF47A7303FB02F31B1323EAE373994232
:106FD000A8BF1946CAF80C100CF00F0395F936201B
:106FE00057F8237056F823E040F23C500523002167
:106FF000C2FB0301A0FB072307FB013301994FEA02
:107000009C1040EA810080B2160CC20346EA034697
:107010001F1412F17F424FEA5043AEFB068943F141
:10702000FF3392190EFB07997B414FEA58205F10FE
:107030004FEA320640EAC95080194FEA6921794186
:1070400006F026FECAF81000002C7FF486AE9AF9EE
:107050000030002BB8BF01232046B4BF85F845306F
:1070600085F8454009B0BDE8F08F00BF1F85EB51A2
:10707000A0860100A48EFF1F648EFF1F124A010F1D
:1070800003461248515CF0B50170C3F3036EC3F3BD
:107090000357C3F30346C3F30335C3F30324C3F316
:1070A000031103F00F0312F80EE0D75D965D555DF6
:1070B000145D515CD35C80F801E08770C670057187
:1070C00044718171C371F0BD746E010098A2FF1FFD
:1070D000024B4FF0FF321A60704700BFE48EFF1F73
:1070E000014B1868C0437047E48EFF1F002913DD71
:1070F00070B40A4E3268451810F8013B08215A4016
:10710000074B42F300042340013983EA5202F7D1CE
:10711000A842F1D1326070BC704700BFE48EFF1FFF
:107120002083B8ED037893B130B4094D2A685A40F2
:107130000821084B42F300042340013983EA52023C
:10714000F7D110F8013F002BF1D12A6030BC704715
:10715000E48EFF1F2083B8ED2DE9F04F056883B062
:1071600011F805C00193BCF1000F00F01B8100264F
:107170004FF0030EBCF12C0F00F0098129D9BCF1AE
:107180005D0F00F0A58140F27481BCF17B0F00F02F
:107190007681BCF17D0F40F021814FF0010A4468F7
:1071A000013C00F1F18002EB0418D8F804707B1C5C
:1071B00005D0D8F80830B3F1FF3F00F0B181013CB1
:1071C000671CA8F11008F0D16FF0010003B0BDE812
:1071D000F08FBCF10D0F00F0DA8040F2FA80BCF1C4
:1071E000200F00F0D480BCF1220F40F0F7806F1C1C
:1071F0000760CB5D3C463BB96DE104680134046037
:107200000B5D002B00F06781222B00F068815C2B66
:10721000F3D10134046011F804C0ACF1220CBCF1CC
:10722000530F00F2AB8001A353F82CF0FD71000066
:107230007D7300007D7300007D7300007D7300008E
:107240007D7300007D7300007D7300007D7300007E
:107250007D7300007D7300007D7300007D7300006E
:10726000FD7100007D7300007D7300007D730000E0
:107270007D7300007D7300007D7300007D7300004E
:107280007D7300007D7300007D7300007D7300003E
:107290007D7300007D7300007D7300007D7300002E
:1072A0007D7300007D7300007D7300007D7300001E
:1072B0007D7300007D7300007D7300007D7300000E
:1072C0007D7300007D7300007D7300007D730000FE
:1072D0007D7300007D7300007D7300007D730000EE
:1072E0007D7300007D7300007D7300007D730000DE
:1072F0007D7300007D7300007D7300007D730000CE
:107300007D7300007D7300007D7300007D730000BD
:107310007D730000FD7100007D7300007D7300002F
:107320007D7300007D7300007D730000FD7100001F
:107330007D7300007D7300007D730000FD7100000F
:107340007D7300007D7300007D7300007D7300007D
:107350007D7300007D7300007D730000FD710000EF
:107360007D7300007D7300007D730000FD710000DF
:107370007D730000FD710000FD71000005606FF07D
:10738000010003B0BDE8F08F01343FF41DAFD0F829
:10739000008008F10105056011F805C0BCF1000F7F
:1073A0007FF4E8AE41684B1E58BF02EB01120ED4C9
:1073B00052F80C1C013103F1FF3304D052F8081CC1
:1073C000013100F0CB80591CA2F11002F0D1002055
:1073D000FCE6ACF1090CBCF1010FD8D90768CC5D13
:1073E00001EB070874B915E0092C03D30A2C11D955
:1073F0000D2C0FD0203C5E2CC0D80137076018F848
:10740000014F3CB1202C05D0EED93A2C02D009D83E
:107410002C2CEFD14468019BA3420BD805604FF0A0
:10742000FF30D3E65D2CF5D07D2CE3D14468019B81
:10743000A342F3D9D0F808904FEA041B02EB0B0AE1
:10744000013407F1FF38B9F1FF3F446002F80B60E7
:10745000CAF80450CAF80870CAF80C60C0F8008076
:1074600097D002EB0919D9F80C400134C9F80C4047
:107470008FE7BCF13A0F8AD0BCF15B0FAED1436805
:10748000019C9C42CBD984685F1C4FEA031B476078
:1074900002EB0B0A4FF0FF37BC42CAF80870CAF87B
:1074A0000470CAF80C6006D002EB0418D8F80C403F
:1074B0000134C8F80C40BCF17B0F14BF0224012436
:1074C00002F80B40D0F80080CAF80450836060E7EF
:1074D0004FF0020A63E605606FF0020076E6D0F82E
:1074E00004C0019B634599D94FEA0C1A856802EBE9
:1074F0000A090CF1010CC0F804C002F80AE0C9F84E
:1075000008406C1CC9F80470C9F80C603FF43FAF28
:1075100002EB0515D0F80080EC680134EC6038E728
:1075200098F800B0D3457FF44FAE0135836002EB8D
:107530000419C8F8085001E0D9F80470013703D0E5
:10754000D9F80850013505D0013C651CA9F1100996
:10755000F2D11CE78460D0F800801AE76FF00200D7
:1075600034E600BF00234FF0FF32826003604360C7
:10757000704700BF002070470369D3F83801D3F883
:107580003431C01A704700BF0369D3F83411D3F8FF
:107590003821914208D2D3F83421511C1A44C3F83F
:1075A000341192F8300070474FF0FF30704700BF41
:1075B0000369D3F83411D3F8382191423DBFD3F891
:1075C00034219B1893F830004FF0FF30704700BF14
:1075D000704700BF0369D3F84422B2F5817F03D915
:1075E0000123037100207047D3F8442210B49C1883
:1075F0000132C3F8442284F83C11012010BC7047CA
:1076000038B503690A4A026093F84822022A044600
:1076100001D0204638BDD3F87452002DF9D0284649
:1076200002F0DCF82846082102F0BAFE204638BDF8
:10763000906E010038B503690546D3F84402B0F5F1
:10764000817F1AD81446D3F84422D3F84402C2F5F5
:107650008172013203F59E73A242184402D20123C3
:1076600014462B71224602F067FD2A69D2F8443293
:107670002344C2F84432204638BD01232B71002038
:1076800038BD00BF2DE9F0471E46044617469DF859
:1076900020909DF824309DF828A00D4659B301296B
:1076A0000FD090F84A329A424FF0000800D14DB303
:1076B000012D0ED094F84B329E4212D00020BDE82E
:1076C000F0871D2F4FD01A2F77D094F84A324FF001
:1076D00000081E2E1AD01F2E6DD094F84B329E42F9
:1076E000ECD1BAF1000FE9D00025B8F1000FE5D0D8
:1076F000002DE3D031E0102A35D0132A33D090F892
:107700004A328846A6F11103012BE6D8022594F8E7
:107710004B329E4257D0BAF1000F09D094F84C3248
:1077200094F84B02002B14BF0221002103F0BAF998
:107730002B02B9F1000F13D143F06403264A02EB88
:10774000C60201215268136084F84B6284F84C929F
:1077500084F89912B8F1000FB0D00120BDE8F0878D
:1077600043F00303EAE74FF0020894F84A229742F5
:1077700026D04BB194F84C3294F84A02002B14BF37
:107780000221002103F08EF94FEA0822B9F1000F1F
:107790000ED142F06402104B03EBC703596801237A
:1077A0000A6084F84A7284F84C9284F898327EE732
:1077B00042F00302EFE70625A9E74FF00608D4E7F9
:1077C000002BE1D073E7BAF1000FB1D0B8F1000F90
:1077D0003FF474AF8CE700BF40710100F8B5C36897
:1077E0001B789B0610D483680D4680211970C368EE
:1077F0001221197090F84932012B044606D08AB93B
:1078000080F848220120F8BD0020F8BD1A4675B95D
:10781000474B4FF080711960022A0FD0012084F885
:107820004802F8BD531E012BF1D90120F8BD012DEE
:10783000F2D13F4B4FF000711960EDE7D4F874625C
:10784000002E6AD03379102B30D0002D3CD1326815
:107850003849938B384F9BB243F0080393833279B6
:10786000531102F110009B0041F8207003F16043B6
:1078700003F56143012102F01F0201FA02F23168AF
:107880001A608B8B9BB243F002038B83337903F135
:10789000804303F5043396221D701A7000220223E0
:1078A00084F85E2284F848320120F8BD304601F0A9
:1078B00095FF3046082102F073FD00230120C4F833
:1078C000743284F84802F8BD012DE7D132681949B5
:1078D000938B1A4F9BB243F0080393833279531171
:1078E00002F110009B0041F8207003F1604303F5A2
:1078F000614302F01F02954032681D60938B9BB27A
:1079000043F002039383337903F1804303F5043397
:107910000021972219701A70C0E7082002F03EFD7E
:10792000314607463E4601F0F5FEC4F8747289E719
:1079300000E100E00084FF1F398900004589000054
:10794000F0B5284EDFF8ACE0A6FB0143A6FB0242EF
:107950009E0937027546960914240023B7FBF6F6F4
:1079600004E00133372B1BD055F8044F2202964216
:10797000F7DA83BB14241C4A4568B1FBF4F4914246
:107980002B70C0F8504207D8184B8269A3FB013115
:10799000C1F307511170F0BD836904221A70F0BD64
:1079A000002422464FF470274FF470654FF0360CD8
:1079B000B21AF71B002A87EAE776A6EBE776B8BF8C
:1079C0005242964202DD0A4AD35CD4E7084B2C4669
:1079D00013F80C30CFE703F1FF3C5EF82C502F0278
:1079E000E6E700BFD34D6210FF6BDC02819F5E169D
:1079F000886F0100AC6E0100F0B49DF814409DF852
:107A000010609DF818503CB135B1C7683F78BF068B
:107A100002D50020F0BC7047069505940496F0BC92
:107A2000FFF730BE2DE9F04184B0044694469DF83E
:107A300028609DF82C209DF830009DF834E09DF8DA
:107A40003C700D4600294BD1DFF8E080D8F80010DB
:107A500041F04001C8F80010002184F849C284F8C0
:107A60005512BCF1000F2AD163692021197012B997
:107A700094F84A22D2B210B994F84B02C0B294F8EA
:107A8000981294F8996202960346CDF800E00191AD
:107A900020462946FFF7B0FF0E9A23492046FFF7FC
:107AA0004FFF3A4629462046FFF798FE94F84932A0
:107AB00063B3A368C0221A7004B0BDE8F0816169A5
:107AC000CEB14FF0280C81F800C09E42216823D926
:107AD0005B00DBB20B707600E369F6B21E70C6E79E
:107AE0000129B9D1DFF84480D8F8001041F08001B5
:107AF000C8F80010B0E74FF0200C81F800C02168F2
:107B00005B00DBB20B70E3691E70B0E7A3688022F4
:107B10001A7004B0BDE8F0817600F6B20E705E0017
:107B2000E369F6B21E70A2E7006CDC023480044008
:107B30002DE9F041154682B004460F46984602F002
:107B4000B7FF0DB9D4F8785202F0B2FFA3681A78E3
:107B50009206064609D5B4221A70304B1B78002BCA
:107B600035D0012002B0BDE8F08155BBE3681B7839
:107B700003F0200303F0FF02002BF6D1A36884F882
:107B80004922B0221A70A3681B7803F0200303F087
:107B9000FF00002BE1D1062384F85532D4F890324F
:107BA000013304D0D4F890320133C4F89032D4F8C1
:107BB0007032002BD6D001909847019802B0BDE8F2
:107BC000F08102F075FF801B8542CFD8DBE794F887
:107BD0004832013B012BC4D802F0C2FB8FB1012F08
:107BE0000FD10F4B1B788342BBDB0F2812DD5FB137
:107BF000012F09D1A0F11003094ADBB238461370F6
:107C0000B0E7084B1B78EEE7A0F11003054ADBB2A2
:107C10001370A6E7012088F80000A3E7CCA2FF1F9D
:107C200019E400E018E400E00369490083F83C111E
:107C3000036900220121C3F84412027183F855221E
:107C4000704700BF2DE9F043054683B0D0F84402E9
:107C500000248DF8074070B190461C460BB9D5F84A
:107C60007842EB6812221A7028460DF1070322466B
:107C7000FFF75EFF10B903B0BDE8F08395F8483216
:107C8000BBB19DF80720A2B9591E0129F3D80821DC
:107C9000022B85F8551285F85482C5F8402200F071
:107CA000A180AB68F0221A702B6995F83C211A70FC
:107CB000E1E702F0FDFE082385F85532D5F844725D
:107CC00085F8548206465FB305F23B1800274FF053
:107CD0000209002C44D12B6918F8012F1A70EA68A8
:107CE0001378980737D4002CFAD002F0E1FE801BFD
:107CF0008442F4D8EB6883F8009002F0D9FE801B30
:107D000084420BD9EA681378DBB2D9063AD4DB0790
:107D10004AD4D5F844320137BB42DAD895F85482B8
:107D2000AB68B8F1010F0CBF8022B0221A70D5F8F1
:107D30004432BB421AD9012385F85532D5F8803236
:107D4000013304D0D5F880320133C5F88032D5F83C
:107D500070329BB98FE782F80090002CD2D0CCE72C
:107D600002F0A6FE801B8442B5D8D7E7D5F8603272
:107D7000002285F85522002B3FF47DAF984703B0D1
:107D8000BDE8F0831023042185F855121370AB6809
:107D900080221A70D5F88C320133D8D0D5F88C32C5
:107DA0000133C5F88C32D2E77FB9022385F855320A
:107DB000D5F88432013304D0D5F884320133C5F8C4
:107DC0008432AB6880221A70C1E7032385F85532EC
:107DD000D5F888320133F4D0D5F888320133C5F8AC
:107DE0008832EEE7D5F84432042B7FF65AAFD5F847
:107DF000741201200C6885F85E02D5F84432E271F5
:107E00000E68A08005F59F772760B0600C68033B83
:107E100098B2E08309685B42E360C882D5F87412C7
:107E200028690B68B0F1804F9A7118619A820B68CB
:107E300001D39A6812B901229A600B6800229A61F4
:107E40002FE700BF2DE9F04182B000258DF80750E3
:107E50009DF82070099E2BB1B3F5827F05D30523D1
:107E600080F8553202B0BDE8F081C0F83451C0F856
:107E70005832C0F838510EB9D0F87862C3689046CD
:107E800012221A700DF1070332460446FFF750FE26
:107E90000028E7D094F848321BB19DF80720002A4B
:107EA00051D002F005FE4FEA480343F00103226976
:107EB00084F85472DBB2092184F855120546137018
:107EC000E26813789B071ED4002EFAD002F0F0FD72
:107ED000401B8642F4D8E36802221A7002F0E8FDE3
:107EE000401B864213D8A26801238021117084F8B8
:107EF0005532D4F8803201331FD0D4F880320133A8
:107F0000C4F8803219E002231370002EE6D1E26833
:107F10001378DBB2D9062CD4DF073CD5A368022145
:107F2000802284F855121A70D4F88432013304D0B8
:107F3000D4F884320133C4F88432D4F87032002B80
:107F400090D098478EE7591E01298BD80921022B22
:107F500084F8547284F8551200F0E080A268F02191
:107F600011704FEA480343F001032269DBB213703A
:107F700078E71023042184F855121370A368802237
:107F80001A70D4F88C320133D7D0D4F88C32013344
:107F9000C4F88C32D1E7D4F858320A22012BA368F6
:107FA00084F855220CBFA822A0221A7023691B78DE
:107FB0004FF00008B027D4F85832D4F838219A424C
:107FC000BFF450AF94F855320A2B7FF44BAFE26800
:107FD000137898073CD4002EFAD002F069FD401BBC
:107FE0008642F4D8E36802221A7002F061FDD4F8E8
:107FF0003821D4F85832401B911C86428CBF002295
:108000000122994206D086422FD894F85D22002A98
:108010004CD10122A368A8211970D4F83811D4F8E2
:1080200058320131994226D2002A5AD094F85D3252
:10803000002B3DD1D4F838312269591CC4F83811CD
:108040002344127883F83020012384F85D32B2E7AC
:1080500002231370002EC8D1D4F83821D4F8583236
:1080600002329A4201D13246D4E7D4F838210132A3
:10807000934236D80022A36884F85D821F7023697A
:108080001878D4F83831E1180133C4F8383181F860
:10809000300094F85432012B1CD06ABBD4F86432FF
:1080A00084F85522002B86D0984784E7D4F83821ED
:1080B000A36884F85D821F7023691978D4F8383179
:1080C000E2180133C4F8383182F8301094F85422A1
:1080D000012A11D12023013BFDD1A3688021197011
:1080E000DBE7D4F838212169501CC4F83801224458
:1080F000097882F8301060E7012384F85532D4F80B
:108100008032013304D0D4F880320133C4F8803295
:10811000D4F87032002B97D0984795E7D4F85832AE
:10812000042B7FF61BAFD4F874322069196801253F
:1081300084F85E52B0F1804FCA718A8008601A6874
:1081400001D3916811B9012191601A68D4F87412B1
:10815000D4F8583208680025D56085710E6804F19E
:108160003002012502618582B5600868013B9AB240
:10817000C28309685B428361CA82EFE6036993F8B0
:108180005532013B052B0CD8DFE803F00307090348
:108190000503042070470120704702207047032028
:1081A00070470079003018BF0120704770B5154640
:1081B000044602F07DFC0DB9D4F8785202F078FC48
:1081C000064694F85532072B1AD9002DF9D002F043
:1081D0006FFC801B8542F4D802F06AFC801B85424C
:1081E00010D894F84832022B0CD194F85E324BB17F
:1081F00094F85532072BFBD8012384F8553201E05F
:10820000002DE9D194F85532072B02D9012384F8C7
:1082100055328023013BFDD194F85502B0FA80F02D
:10822000400970BDF8B5069E0C46154607461A462D
:10823000294620463346FFF705FD324629462046AB
:10824000FFF7B4FF3846BDE8F840FFF797BF00BF1F
:10825000F0B583B09DF8206013B9002003B0F0BDE5
:10826000099F04460D468DE8C000FFF7EBFD099A13
:1082700029462046FFF79AFF0028EED0D4F83801AF
:1082800003B0F0BDD0F83421D0F838319A4208D28A
:10829000D0F834315A1C0344C0F8342193F830002C
:1082A00070474FF0FF3070472DE9F041C04E3378F2
:1082B00004460133DBB2C068A768337005783B78A9
:1082C000DBB203F0200282B0EDB23AB313F0100F2C
:1082D00094F85E327AD0022B00F0D88094F85E32A7
:1082E000032B00F0D38094F85532082B00F029823C
:1082F00094F85532092B00F0648294F85532012B22
:1083000000F0D38180233B70E36802221A70337837
:10831000013BDBB2337002B0BDE8F08102F0FF0830
:10832000EA0624D405F0400202F0FF0E1ABB03F067
:10833000100303F0FF02002B00F0838015F001050D
:1083400040F0A881D4F84022D4F844329A4207D2AF
:10835000D4F840325A1C2344C4F8402293F83C51CC
:1083600023691D70A368D0221A70E0686EE01023A4
:1083700003706806C8D594F855320C2B00F00981BB
:1083800005F0040505F0FF07002D64D0A368002167
:10839000D0220B2084F85502C4F844121A702269C6
:1083A000D4F86C1213785B0884F8563209B1884708
:1083B0002269D4F84432002B00F0748194F83C8197
:1083C00082F800800123C4F840329DE7022B00F0C0
:1083D000A68094F85E32032B00F0A180D4F83831E7
:1083E000D4F858220233934200F04F8194F855326A
:1083F000012B00F04581D4F838310133934280F0ED
:10840000198194F85532012B00F00F81D4F83831DE
:108410002269591CC4F838112344127883F830209B
:10842000E36802221A7094F85532DBB2012B7FF414
:108430006EAF94F85D22002A7FF469AF84F85D3254
:1084400065E794F855320C2B00F09C8102230370F1
:1084500002B0BDE8F081574B574A94F84B0284F8BC
:108460005C72002914BF11461946032202F020F85D
:10847000A3680C21C02284F85512C4F838711A7010
:1084800023691B785B0884F856323DE7D4F87422E0
:1084900013689B8B190604D594F85E32022B00F00A
:1084A000B88094F85E32032B00F08E80434B127933
:1084B0001968012393400B423FF429AF4049414BD7
:1084C0000A70D4F87412097919700022072384F80D
:1084D0005E2284F85532D4F89432013304D0D4F8B3
:1084E00094320133C4F89432EA0611D5042384F897
:1084F0005532D4F88C32013304D0D4F88C320133A5
:10850000C4F88C32E268102100231170C4F84032A4
:10851000A36880221A70E36802221A7032E0D4F84D
:1085200074321A68928B120603D594F85E22022ADE
:1085300063D094F85E22032A00F0DA801F491A798A
:108540000968012393400B423FF4E1AE1C491D4BE7
:108550000A70D4F8742212791A70A368802200205D
:10856000072184F85E0284F855121A70E36802222B
:108570001A70D4F89432013304D0D4F89432013311
:10858000C4F89432D4F87032002B3FF4C0AE984750
:10859000BDE6D4F86832002B3FF4F2AE0022C4F8F6
:1085A0003421D4F83801019198470199E8E600BFD9
:1085B000CCA2FF1FA9890000B58900002C800040D3
:1085C0001E8000401F80004003781906FCD5C14B77
:1085D00012791A70002384F85E32D4F8443221698B
:1085E000013BC4F84032D4F840322344022293F8CD
:1085F0003C310B70E3681A7089E6B7491B790B7040
:10860000A368E8211970E368032184F85E121A70E8
:108610007DE6B14912790A70A268F0211170E26812
:10862000032184F85E12137071E694F85D32002B1A
:108630003FF4ECAEA3680021B02284F85D121A70FA
:10864000D4F838312269591CC4F8381123441278FF
:1086500083F8302094F85432012B00F0C480E36892
:1086600002221A7094F85532012B33D0D4F86432B8
:10867000002284F85522002B3FF4D5AE9847D2E66D
:1086800094F85D32002B7FF4B6AEE8233B70D4F84B
:108690005822B0E6C0233B702369E0681B7884F859
:1086A00055E2D3E684F83C318AE694F85432012B43
:1086B0000CBF8023B0233B70E36802221A70D4F809
:1086C000803201333FF45EAFD4F880320133C4F816
:1086D000803257E7D4F88032013304D0D4F88032A6
:1086E0000133C4F88032D4F87032002BC6D19AE638
:1086F000784A1B791370A3680021B02284F85E12B7
:108700001A70D4F858322269013BC4F83831D4F8D1
:108710003831591CC4F838112344127883F83020BA
:1087200094F85432012B00F0C180E36802221A70E1
:10873000D4F86432002284F85522002B7FF427AF4E
:10874000E5E505F0100303F0FF02002B52D00023F3
:108750000421102284F85E3284F855120270A26857
:1087600080211170E268C4F8403202231370D4F8FB
:108770008C3201333FF406AFD4F88C320133C4F8A5
:108780008C32FFE6554B564D84F85C22002914BF0D
:1087900029461946032294F84B0201F089FE236909
:1087A0001B78D4F83821B2F5817FDBB207D8D4F832
:1087B0003821A1180132C4F8382181F83030E0683E
:1087C00044E6EB062ED50422102384F855220370CC
:1087D000A36880221A70E36802221A70D4F88C32DF
:1087E0000133C9D1CEE62023013BFDD1A36880220D
:1087F0001A7034E715F0010528D084F85E22D4F809
:108800004032002B59D1022384F85532D4F88432F7
:10881000013304D0D4F884320133C4F88432802385
:108820003B7078E6E9072CD50223802284F8553284
:108830003A70E2681370D4F8843201333FF4A2AE88
:10884000D4F884320133C4F884329BE6D4F8403241
:108850000133C4F84032D4F84422934242D394F80E
:10886000543284F85552012B0CBF8023B0233B7047
:10887000E36802221A70D4F86032002B7FF487AECE
:1088800045E594F85E32012B34D0D4F85832012BF0
:108890004FF00A020CBFE823E02384F855223B7016
:1088A0002269E368127802221A7030E52023013B26
:1088B000FDD1A36880221A7037E7032384F855326C
:1088C000D4F888320133AAD0D4F888320133C4F8FE
:1088D0008832A4E71C8000401F800040A989000066
:1088E000B589000094F85E32012B12D0D4F84032E2
:1088F00021697AE60223E12284F85E323A70D4F8E4
:1089000074120C4A097911702169E26809781370B0
:10891000FDE40223F12284F85E323A70D4F8741236
:10892000044A09791170226994F83D111170E268C6
:108930001370ECE41B80004000210148FFF7B4BC39
:10894000E88EFF1F01210148FFF7AEBC8491FF1F95
:10895000C3681B7803F020035BB190F85C320133ED
:10896000DBB2012B80F85C3217D990F84B0201F092
:108970001BBE70B503F0FF05044680F8555290F811
:108980004B0201F011FED4F868325BB1C4F83451E7
:10899000D4F83801BDE87040184790F84932012BEF
:1089A000E3D1704770BD00BF00210148FFF7D0BF81
:1089B000E88EFF1F01210148FFF7CABF8491FF1F06
:1089C0002DE9F843134BDFF85C90DFF85C80124E22
:1089D000124D1E6000244FF47A774A4641461C71BE
:1089E0001C739F6018465C731D6104F031F90C4BD9
:1089F0004FF0010E05F527751C711C7383F80DE00F
:108A00004A46414618461D619F601E60BDE8F84316
:108A100004F01EB9B8A2FF1F906E0100E88EFF1F80
:108A2000A4A2FF1F508EFF1F0176000010B4047F28
:108A30004160022CC26002D010BC00F0E9BE836825
:108A400010BC1847F0B4464B464A186BDC6A0179F3
:108A50001170454922790A709A6A00790870002AD3
:108A600046D05968C9688A423ED82168CC8B240414
:108A700002F1FF3065D4C0F30E00C883C88B80B20A
:108A8000C882196B0968C88B000452D4C2F30E0067
:108A9000C883C88B002480B212F1FF32C88218BF8D
:108AA00001229C62D96A2E4809680D6800F12404ED
:108AB000A54236D00068C46814F0804F0C680D6879
:108AC00015BF248824780235013544F000440D6038
:108AD0004463196B254B09791970214912B1CA6A8F
:108AE00012791A70F0BC7047521A9A620122D9E7C3
:108AF000586B196805681E4C0A63CC62CC682D68F7
:108B00001C4E24F080440327B542CC6083F82570C6
:108B10001FD1037F4260022BC2601ED0F0BC00F068
:108B200077BE016890F82400CC6840F000404863AC
:108B3000CFE7CC8BC2F3080004F47E442043C88303
:108B4000A7E7CC8BC0F3080004F47E442043C8831D
:108B500094E72B461146F0BC18478368F0BC1847D1
:108B60002094FF1F1F8000401C8000401B8000409D
:108B700000000FFF2D8A000090E80C00F0B41C6884
:108B800059682568164F174E29432160164D17491D
:108B90001760D66015611160417A154A5C180A3178
:108BA00094F8244053F8215002EBC40149680D6049
:108BB000017A5C1803EB8101247ECD6902EBC401CC
:108BC00049680D60817A581803EB810390F83000F2
:108BD000596B02EBC002F0BC53681960704700BFCC
:108BE00001401F00011000380110007800001F80B4
:108BF0004071010070B4417A44680E4B05680E4E16
:108C00002144002291F8241003EBC10149680A6055
:108C1000017A2144097E03EBC10149680A60817A27
:108C2000214491F8301003EBC1035B681A602E6099
:108C300070BC70474071010001401F0070B40A4BC6
:108C40000A4A1B6812680A4E0A4D0B49306083B00D
:108C500010440193019C094B286002220C601A7099
:108C600003B070BC704700BF44A3FF1F5894FF1FA0
:108C7000D0A2FF1FDCA2FF1FD8A2FF1FD4A2FF1F9C
:108C800038B50368044603211B68984700F012F9C1
:108C9000236805465B68204603219847284638BD6F
:108CA000054B002220211A701A461970937903F09F
:108CB0000C030C2BFAD17047004006403E4B9A79CA
:108CC00012F00C0F02D19A79D20634D43A4A937931
:108CD000C3F38103032B33D0374A9379C3F3810362
:108CE000022B35D0344A9379C3F38103022B3AD057
:108CF000314A9379C3F38103022B3FD02E4B9879ED
:108D0000C0F38100012841D02B4A9379C3F381033A
:108D1000012B45D0284B9879C0F3810008B1002081
:108D200070479A79D206FBD49B7913F0200F14BFB9
:108D30000020042070479B799806C7D40320704711
:108D40009379D906C8D493799B06C5D50820704776
:108D50009379D806C6D493799906C3D553789B07DF
:108D6000C0D4072070479379D806C1D49379990667
:108D7000BED453789B07BBD4052070479379D8069F
:108D8000BCD453789907B9D5062070479A79D20692
:108D9000BAD59A799106B7D45B789A07C0D4B3E76D
:108DA0009379DB06B6D593799806B3D453789907AF
:108DB000B0D40220704700BF00400640024A034B77
:108DC000102111801B7870470020054002D0074019
:108DD000C368F0B4DE07024615D51A20304F314E75
:108DE000314D3249324C00233B7033702B700B7085
:108DF000137053709370D3701179C9B221701371CD
:108E0000F0BCD36070471D0701D52120E6E7DC06E2
:108E100001D50420E2E7990601D51020DEE75F06C0
:108E200001D51620DAE71E0601D50920D6E7190A72
:108E3000CD0701D50A20D1E78C0701D50D20CDE75C
:108E40004F0701D50B20C9E70E0701D51E20C5E746
:108E5000CD0601D50220C1E78C0601D50720BDE76C
:108E60004F0601D50620B9E70E0601D51520B5E756
:108E70001B0CDD0701D52420B0E79C0701D522207B
:108E8000ACE7D90601D52520A8E713F00C0FF6D1E1
:108E900013F0200F0CBF4FF0FF3023209EE700BFE0
:108EA00000C0074001C0074002C0074003C00740A0
:108EB00004C00740F8B501F053FAA0F11103EE2BFE
:108EC00098BF10383E4B3F4D3F4C4049DFF828E1FA
:108ED0003F4F404E94BFC0B2802018702A683E4871
:108EE0003E4B42F080622A60226842F0804222605B
:108EF00002680A60002202601A783948D2B28EF8FD
:108F000000205A78D2B23A709A78D2B23270DA78B7
:108F100005F5533505F2FF35D2B22A7004F5543405
:108F20001B790434DBB223700378063B042B17D87B
:108F3000DFE803F003393B4026002A4A2A4B2B483E
:108F40000324147012781A68042422F002021A60B2
:108F5000046030BF002202601A6842F002021A6008
:108F60001848194A03681C4D214C43F08063036084
:108F7000136823F0804313600B682B602068F8BDF2
:108F80001C4A194B19480024147012781A680425D9
:108F900022F002021A60056030BF04601A6842F0D5
:108FA00002021A60DCE7134AC8E7124A0E4B0F4868
:108FB0000224C6E70F4A0C4B0C480124C1E700BF4E
:108FC00015E400E0047004400070044024A3FF1F77
:108FD00001C0074002C007400C90044028A5FF1FB5
:108FE0005C94FF1F01E0074010E000E010ED00E09E
:108FF0000082FF1F02E0074000C0074030B583B089
:109000000F4B009304460F4B0F4A002100F0A8FAC3
:1090100004F140050D4B009328460D4B0D4A0121EC
:1090200000F09EFA02232046C4F88850C4F89050FD
:10903000C4F88440C4F88C4084F8803003B030BD5C
:1090400000B00340947001003C70010000B00B4080
:109050003870010068700100036B1A788A4205D0ED
:109060009A788A4201D00020704702335A7802F081
:109070001F031F2BF7D0436B5B0103F1844303F500
:109080002063DB6D0BB1D00970470120704700BF32
:1090900090F821308B421FD0012970B41DD059B9EE
:1090A000124A134B11701970436B80F821105B0149
:1090B00003F18443C3F8001472B6436B5B0103F100
:1090C0008443012200214276C3F89C14C3F89824FB
:1090D000C3F89C2462B670BC7047064D034A044B2B
:1090E0006026E1242E701470DDE700BF01400740C8
:1090F0004000FA420040074090F823308B42F0B421
:109100002FD0092900F29C80DFE801F02D2D5305B6
:1091100005707F8D633E436B5A0102F18442134612
:1091200003F5807302F5C072002601249460354671
:10913000DE6137460026D6601D605E605F619C611F
:1091400080F8231072B6436B5B0103F18443012264
:1091500000214276C3F89C14C3F89824C3F89C24D9
:1091600062B6F0BC7047436B5A0102F18442134669
:1091700003F5807302F5C072012600249460354621
:109180003446DE613746D5E7436B5A0102F184422B
:10919000134603F5807302F5C07201250024956023
:1091A000DC6101240025D4605C601C609D615D6110
:1091B000C6E7436B5A0102F18442134603F58073FC
:1091C00002F5C0720026012496603546DE6127460E
:1091D000B0E7436B5A0102F18442134603F58073F2
:1091E00002F5C07200249460DC61DAE7436B5A0137
:1091F00002F18442134603F5807302F5C072002425
:10920000012797602546DC6194E7436B5A0102F120
:109210008442134603F5807302F5C07200250124D1
:109220009560DC61BDE7436B5A0102F1844213464D
:1092300003F5807302F5C07201249460DC61B0E72D
:10924000C38A9BB243F00103C3828AE738B5437EE9
:1092500004460D46EBB9636B012D4FEA431303F14E
:1092600084431FD903F590630121042D996009D926
:10927000082D24D9102D1BD920225960196084F89B
:10928000202038BD002104225960196084F8202074
:1092900038BD00F01BF8636B012D4FEA431303F157
:1092A0008443DFD80022C3F8882484F8202038BD06
:1092B00000221A601022596084F8202038BD002056
:1092C00008221960586084F8202038BDF8B5436B37
:1092D0005B0103F1844303F59063DA69044652B1FC
:1092E00003F018F8636B5B0103F1844303F59063AB
:1092F000DA69002AF4D19B6923B1E38A9BB243F077
:109300000203E38272B6637E03B3636B9F6BDA6B17
:109310001E6C5D6C986CD96C3A4432442A44024409
:109320000A44C2F34E0242F40042DA629F6DDA6DE3
:109330001E6E5D6E986ED96E3A4432442A440244E1
:109340000A44C2F34E0242F400421A6362B6A37E9C
:109350000025657663B102212046FFF7CDFE02218C
:10936000204600F057F804212046FFF76FFFA5764E
:10937000F8BD00BF38B5C37E8B4213D0437E044690
:109380000D469BBB092D0ED8636B5B0103F1844333
:1093900000210822C3F80C11FF20C3F80811E2765F
:1093A000E06138BD38BD0B2D23D90D2D0FD8636B6F
:1093B0005B0103F184430122C3F8082100200C2241
:1093C000C3F80C0140F6FF71E276E16138BD636BD2
:1093D0005B0103F1844301211022C3F80C114FF605
:1093E000FF70C3F80811E276E06138BDFFF76EFF49
:1093F000C8E7636B5B0103F184430022C3F80821D3
:1094000001200A22C3F80C0140F2FF31E276E1614B
:1094100038BD00BF38B5437E05460C4683B9042CE1
:109420000BD8DFE804F0101F2E3D03006B6B5B01CF
:1094300003F184430022C3F8102185F8244038BD8D
:10944000FFF744FFEBE76B6B5A0102F18442002106
:109450000120C2F81001C2F88411C2F8801185F809
:10946000244038BD6B6B5A0102F184420121002077
:10947000C2F81011C2F88011C2F8840185F82440A6
:1094800038BD6B6B5A0102F1844201210020C2F801
:109490001011C2F88001C2F8841185F8244038BD4B
:1094A0006B6B5A0102F184420121C2F81011C2F81B
:1094B0008411C2F8801185F8244038BD70B5037E50
:1094C0000446002B42D0244A136843F00063136023
:1094D000636B5B0103F18443002504220126022112
:1094E00084F8232084F8242084F82110E576E561AF
:1094F00084F8205084F82C506576E582657584F8F0
:1095000022602946C3F890612046FFF7C1FD20463E
:109510000A21FFF72FFF2046A6762021FFF796FEAF
:1095200031462046FFF7E8FD31462046FFF772FF3F
:1095300072B6636B66765B0103F18443C3F89C5497
:10954000C3F89864C3F89C6462B670BD034A13689C
:1095500043F000631360BBE7308004403C8004406C
:1095600010B504460298A26223632176606349B96C
:10957000094BA3633923204684F83C30FFF79EFF54
:10958000204610BD054BA3633A23204684F83C30A7
:10959000FFF794FF204610BD106003403860034081
:1095A000036B1A788A421FD09A788A4218BF1F220A
:1095B00019D0436B5B0103F1844303F52063DB6D3A
:1095C00073B1022272B6416B4B0103F184439B6974
:1095D000002B14BF6023202313440B6062B6704736
:1095E00002F01F02EEE702335A78E2E72DE9F04F6E
:1095F0002B2983B0834603D8846A645C64060AD44A
:10960000BBF8163042489BB243F00403ABF8163067
:1096100003B0BDE8F08F01920091FFF71DFD002817
:10962000EED09BF815109BF81900009B019A0131B0
:109630008BF81510002863D1DBF834009BF81BA0D1
:10964000410101F18441D1F81C44003418BF0124C8
:10965000002C4FD072B6DBF834100D68D1F80890AA
:10966000D1F80C800F6A4E6A62B6DBF83400400114
:1096700000F184404FF0000EC0F88CE419465846C3
:10968000FFF78EFF01E002F045FEDBF834305B01AE
:1096900003F1844303F58063DB69002BF3D172B6D9
:1096A000DBF83420530103F18443DB69CBB110694B
:1096B000BAF1100F00B229D062B654B172B6DBF81D
:1096C0003430C3F80890C3F80C801F625E621D60DE
:1096D00062B69BF81530013B8BF8153003B0BDE83E
:1096E000F08FBBF816300A489BB243F08003ABF80A
:1096F0001630E1E7A046A146264627462546B6E7AE
:109700005846FFF7E3FD019A009B95E74000D3E739
:1097100090EEFEFFF0B572B699B902688AB103798E
:109720000F2B0ED8274C218841FA03F5ED070AD5F7
:1097300003F1007303F59063B2EB431F03D162B6EC
:10974000F0BD204C2188002341FA03F212F00102FF
:1097500007D00133102BF7D162B6002203710260EB
:10976000F0BD01259D402943218062B6164E174D5C
:10977000174FDFF864E0D9B20171346844F0020495
:1097800034602C6844F002042C60A6F58026822404
:10979000A5F5802503F100733C6003F59063223E3C
:1097A000243D0C4C8EF800105B0131702970217043
:1097B00003601A605A609A60DA601A615A619A61AD
:1097C000DA61F0BD28A3FF1F408004403C800440C4
:1097D000008000401F8000401A80004003790F2B5A
:1097E00011D8094A10B4137072B6084904790A886E
:1097F0000123A34022EA03030B8062B61022002358
:1098000010BC0271036070471A80004028A3FF1F3C
:1098100010B4EFF3108272B6437F33B9017F012990
:1098200007D003290FD00123437702B962B610BCD9
:109830007047124C2168A1B1114943610B688361E3
:1098400008605861EFE70F4C216881B10E49436110
:109850000B688361086058610C4B4FF080511960B0
:10986000E1E7074B4161816120601860DBE7064B4F
:109870004161816120601860EEE700BF38A3FF1FDF
:1098800034A3FF1F2CA3FF1F30A3FF1F04ED00E034
:1098900070B5EFF3108272B60C4C206880B10C4E9C
:1098A00000254369236073B19D6102B962B64577B3
:1098B00083689847EFF3108272B620680028F0D1D1
:1098C00002B962B670BD3360EFE700BF2CA3FF1F83
:1098D00030A3FF1FFFF7DCBF024A13680133136098
:1098E000704700BF44A3FF1F0368C9B21B68184735
:1098F0000368C9B21B6818470368C9B21B681847D8
:109900000368C9B21B6818474B0803F1376303F5B6
:10991000D83310B50446B3FBF1F001F0A5F9044BC0
:109920001B7803B110BD2046BDE8104002F068BDB1
:109930008195FF1F08B5084601F08AFB012008BD8C
:1099400008B5084601F084FB012008BD38B508467B
:109950000D4605F035FF04460146284601F082FB1E
:10996000204638BD10B508461446114601F07AFB72
:10997000204610BD0846114601F0A4BD0846114618
:1099800001F086BD01F09CBC08B5084601F038FB2B
:10999000003018BF012008BD08B5084601F00EFBD5
:1099A000003018BF012008BD0846114601F0A2BAD8
:1099B000084601F0D9BA00BF084601F07FBA00BFDF
:1099C00001F01ABA10B54B0803F13760144600F5E0
:1099D000D830B0FBF1F001F047F92046BDE8104067
:1099E00001F0B8B901F046BC01F004BC01F0EEBBD7
:1099F00001F0C8BB01F0D2BB704700BF0368F0B4F0
:109A0000FBB1002501249D60DC601B4C1A601C44E6
:109A1000241104F144056A11032692009E60174F39
:109A20000679174B47F8241002F1604202F56142B3
:109A300005F01F05012000FA05F5E6541560F0BC9D
:109A40007047104C236843F40003236000BF0E4BA3
:109A50000E4DA4F58734A4F59E7401261E6023469E
:109A600004609C68002CD0D01033AB420360F8D166
:109A7000002303601846E2E7008FFCBF7494FF1FC9
:109A800044E400E03C800440007003404071034027
:109A90000168A9B10B4BF0B40B441B110A4E0B4FDC
:109AA0000B4D46F8237003F1440202F01F0401231A
:109AB0005211A340002445F822308C600460F0BCB1
:109AC000704700BF008FFCBF7494FF1FF99900001E
:109AD00080E100E0024A034B012111601B68184736
:109AE0000C7103407494FF1F024A034B0121116063
:109AF0005B6818471C7103407494FF1F024A034BB4
:109B0000012111609B6818472C7103407494FF1F5A
:109B1000024A034B01211160DB6818473C71034086
:109B20007494FF1FF0B507468BB0002A33D0012A8A
:109B300008BF0A2251B3212400E0F4B2B1FBF2F5D0
:109B400002FB1511C8B2092900F1300198BFC8B253
:109B50000AA988BF3730214488BFC0B201F8240C5D
:109B6000661E2946002DE8D133B1013CE4B20AABB0
:109B700023442D2203F8242C3B6801AA11195B68A9
:109B80003846C4F1220298470BB0F0BD30228DF860
:109B900025202124E8E70368C9B21B6898470BB069
:109BA000F0BD00BF0029BABF49422D2300230A227D
:109BB000FFF7B8BF10B50446006804F0D9FA204694
:109BC00010BD00BF38B543688B4201D3012038BDBA
:109BD0000D4604460131006805F01CF90028F6D056
:109BE000A36884E82100002BF0D10370EEE700BFEA
:109BF000F8B50446154632B9036803B11A7000235C
:109C0000A3602046F8BD0E461146FFF7DBFF07466E
:109C100048B9206810B104F0ABFA276000236360F4
:109C2000A3602046F8BDA5603146206805F056FDCA
:109C3000E7E700BF38B50023044603604360836054
:109C4000037341B108460D4605F0BAFD29460246A8
:109C50002046FFF7CDFF204638BD00BF38B505468A
:109C600008460C4605F0ACFD214602462846BDE8F4
:109C70003840FFF7BDBF00BF10B5044619B1FFF76C
:109C8000EDFF204610BDA160204610BD2DE9F84330
:109C900003680F46BB420446816815460AD85A1825
:109CA000974207D2C3EB07094FF0010835B92046A8
:109CB000BDE8F8834FF00008002DF8D04E1931466A
:109CC0002046FFF77FFF0028F1D0B8F1000F0ED03B
:109CD0002368A0682A4603EB0901184400F02CFA17
:109CE000236800229A55A6602046BDE8F8832068C4
:109CF000A3683946184405F0F1FCF4E710B582B0CA
:109D000000238DF80410012201A904468DF80530C6
:109D1000FFF7BCFF204602B010BD00BF826808B547
:109D20000B462AB971B11878B0FA80F0400908BD25
:109D300031B1006805F068FBB0FA80F0400908BD59
:109D40000368F0E7012008BDF8B5374C374D01E056
:109D500002F0E0FA23681B06FAD42B6813F08003A4
:109D6000F6D172B632480278002A5BD03149324AC5
:109D7000324D0F681268324C2E68CD6824683A4420
:109D80001431324409682F4F2F4E2A4422440A448A
:109D9000C2F34E022D4C2E4D2E4942F400423A6041
:109DA000376822682E680D680C343A4408312468FC
:109DB0000968294F32442A4422440A44C2F34E021D
:109DC000264E274C274D284942F400423A60376816
:109DD00022682E680D680C343A44083124680968FA
:109DE000224F32442A4422440A44C2F34E02204EF7
:109DF000204C214D214942F400423A6037682268E4
:109E00002E680D680C3408313A44246809683244DD
:109E10002A4422440A44C2F34E02194942F4004241
:109E20000A60037062B6F8BD24B0034024B00B4052
:109E30003EA3FF1F38B003403CB0034040B0034096
:109E400048B003402CB0034058B003405CB003401E
:109E500060B0034064B0034030B0034038B00B4002
:109E60003CB00B4040B00B4044B00B402CB00B401A
:109E700058B00B405CB00B4060B00B4064B00B407E
:109E800030B00B4030B42948294A2A4B2A4D60246F
:109E9000E121047011701B78284C082B30D00A2B5C
:109EA0002748284937D00C2B0CBF35223D221223DE
:109EB0002A60236002600B60234B24491B78244AEC
:109EC000BBB101230B601360224B23491B78234A4B
:109ED000012B26D9042B0FD9082B1ED9102B94BF88
:109EE000862387230B6013601D4B01221A7030BC40
:109EF00070470B601360E7E784230B601360F3E7A0
:109F000000F58E200F490830012213232A602360B8
:109F100002600B60D0E73922F7E785230B601360FE
:109F2000E2E780230B601360DEE700BF00400740DC
:109F3000014007408494FF1F08B003400CB0034069
:109F400008B00B400CB00B4041A3FF1F20B00340F2
:109F500020B00B408594FF1F24B0034024B00B4079
:109F60003EA3FF1F28282FD8334B2DE9F0411E5C5C
:109F7000FF2E2BD0314B1B78002B2AD132062CD44C
:109F800072B62F4D2F4C2F46012326602B7062B6E0
:109F900072B623681B060CD43B781BB9F4E72B7808
:109FA000002BF1D062B602F0B5F972B6236818063C
:109FB000F5D5254B1B6800222A7062B6234A10781B
:109FC00043FA00F0BDE8F081002070470020BDE8B2
:109FD000F081FFF7B9FE3206D2D572B61C4DDFF81C
:109FE0007C801C4C06F04007FFB206F03F06D8F814
:109FF0000030DFB123F01003C8F8003001232660E1
:10A00000134A2B7062B672B6236819060CD4137803
:10A010001BB9ECE72B78002BE9D062B602F07AF995
:10A0200072B623681B06F5D50B4BC3E743F010034C
:10A03000C8F80030E2E700BF047101003EA3FF1F33
:10A0400040A3FF1F00B0034010B003403DA3FF1F1B
:10A050003FA3FF1F00B00B4010B00B400CB00B40F3
:10A060000A4A0B49136843F4805313600B7843B9D1
:10A07000084BC0221A70084B80F30C0000B2188005
:10A080007047044B80221A70F5E700BF2C80044013
:10A0900041A3FF1F21C00C4000C00C40F0B585B0AB
:10A0A00010221949684600F047F8184A12789107BB
:10A0B0001DD51749174D0A7812F0700218BF0A70A3
:10A0C0001549164A0346802715480F700026332489
:10A0D00003212E700470117072B60D4C43F0010311
:10A0E0002046984762B6237813F0700309D10D4BD0
:10A0F000064901E0013B02D00A78D207FAD505B043
:10A10000F0BD237005B0F0BD3071010001000240C8
:10A110000000024004000240070002400A00024022
:10A120000B000240410D030008B5FAF7DDFCFAF719
:10A1300053FC02F0EFF8FAE701B441EA000313F030
:10A1400003036FD1403A41D351F8043B40F8043B3C
:10A1500051F8043B40F8043B51F8043B40F8043B01
:10A1600051F8043B40F8043B51F8043B40F8043BF1
:10A1700051F8043B40F8043B51F8043B40F8043BE1
:10A1800051F8043B40F8043B51F8043B40F8043BD1
:10A1900051F8043B40F8043B51F8043B40F8043BC1
:10A1A00051F8043B40F8043B51F8043B40F8043BB1
:10A1B00051F8043B40F8043B51F8043B40F8043BA1
:10A1C00051F8043B40F8043B403ABDD2303211D341
:10A1D00051F8043B40F8043B51F8043B40F8043B81
:10A1E00051F8043B40F8043B51F8043B40F8043B71
:10A1F000103AEDD20C3205D351F8043B40F8043B41
:10A20000043AF9D204320AD0D2071CBF11F8013B3C
:10A2100000F8013B03D30B7803704B78437001BC0B
:10A22000704700BF0C2A4AD310F0030311D0C3F1CA
:10A230000403D21ADB071CBF11F8013B00F8013BF5
:10A2400007D311F8013B00F8013B11F8013B00F87E
:10A25000013B11F003033FF475AF30B4043AC91A5F
:10A26000C3F1040C51F8044B022B19D0032B0BD073
:10A27000240A51F8043B1D0644EA050440F8044B47
:10A280001C46043AF4D216E0240E51F8043B1D0299
:10A2900044EA050440F8044B1C46043AF4D20AE0B0
:10A2A000240C51F8043B1D0444EA050440F8044B17
:10A2B0001C46043AF4D20432B1EB0C0130BC043A2F
:10A2C000A0D3013A11F8013B00F8013BF9D20B7819
:10A2D00003704B7843708B78837001BC704700BF6C
:10A2E00008B5104C08E0236859050DD423681A05F9
:10A2F0000FD42368DB0411D423685803F3D501F08D
:10A30000ABF923685905F1D501F000F823681A0567
:10A31000EFD500F009F82368DB04EDD500F004F870
:10A32000EAE700BF3480044008B5FFF7D9FF00BF5B
:10A33000704700BF094908B50B6830B16A46184438
:10A34000A2F58052904202D20860184608BD03F080
:10A3500089FE0C2303604FF0FF3008BD8894FF1F77
:10A36000EFF3138070B9EFF310836BB9EFF305824D
:10A370005AB94FF48070EFF311832BB1984228BF84
:10A38000184670474FF0FF3070470F2A01D8184623
:10A39000F1E7014BD05CEEE7F0E300E003F0E0BE54
:10A3A00003F0E6BEF0B44D1E2E46002400E001345A
:10A3B000B0FBF2F302FB1300092800F130078ABF5B
:10A3C0003730F8B2C0B206F8010F1846002BEED1B4
:10A3D0000A1953704CB1107815F8016F28700133C9
:10A3E000E01A834202F80169F5DB0846F0BC7047C9
:10A3F000704700BF10B40F4B53F8302092F88042E2
:10A400002CB1012369B182F8803010BC704703EB96
:10A41000C0035B681A6841B922F002021A6010BCDE
:10A42000704782F8003110BC704742F003021A6096
:10A4300010BC7047407101001C4A02EBC0030129A7
:10A440005B6811D004291BD052F83000002280F83C
:10A45000802229B1022920D0032922D01A60704716
:10A460004FF480721A60704752F830004FF4A272B5
:10A4700080F880121A601A6822F020021A60704771
:10A4800052F830104FF4A272012081F880021A6055
:10A490001A6842F020021A60704740F203121A60F4
:10A4A00070474FF481721A60704700BF407101001D
:10A4B000212848D8F8B5042A44D8DFE802F0484BF0
:10A4C0004E0345004FF410262B4B03EBC0030D4603
:10A4D0005C68216811F4E06148D0284B284A29497A
:10A4E000C3F89C2104F140422748C3F8A411A2F507
:10A4F0009221264FC3F8A0017C292548C3F8A871F2
:10A50000C3F8AC012CD9A2F594237C2B2AD9A2F54F
:10A5100096237C2B28D9A2F598237C2B29D9A2F548
:10A520009A227C2A27D81B4872B6236823F470230A
:10A5300043F08072C4F384011643236040F8215035
:10A54000266062B6F8BD70474FF43026BCE74FF482
:10A550000026B9E74FF44026B6E74FF42026B3E7CC
:10A560000D48E1E70D48DFE70D48DDE7FFF764FF41
:10A57000B3E70C48D8E7F8BD407101000084FF1F25
:10A58000098EFF1FB18DFF1FDD8DFF1F858DFF1F02
:10A59000598DFF1F6495FF1F8C94FF1FC494FF1FEC
:10A5A0001495FF1F4495FF1F1A4B03EBC00010B416
:10A5B000426802F14043A3F592217C2923D9A3F5F7
:10A5C00094217C290DD9A3F596217C291FD9A3F5C7
:10A5D00098217C2919D9A3F59A237C2B11D80E4CEC
:10A5E00000E00E4C72B613680D4823F08773C2F377
:10A5F000840123F4803343F08073136044F8210016
:10A6000062B610BC7047074CECE7074CEAE7074C12
:10A61000E8E700BF407101006495FF1FC494FF1F6D
:10A62000F1A300008C94FF1F4495FF1F1495FF1F9A
:10A63000014B1868704700BF00D0034030B4054B91
:10A64000054D064C002210211A602A602060196016
:10A6500030BC704714D0034004D0034000D0034006
:10A66000704700BF324B3349DFF8E8C0324A4FF43D
:10A670000000F0B518604FF0807018604FF0007067
:10A6800018604FF0806018604FF0006018602B4E2B
:10A690002B4D2C4CDFF8C0E02B4F00200860282306
:10A6A0004BF6FF71CCF80010CEF800303360136029
:10A6B0002B6023603B60B3629362092245F8242C2F
:10A6C000C4F8D80F05F57F65C7F8D41F07F5FF2735
:10A6D00007F5FA67C6F8F83F2B6006F5FF26C4F8C1
:10A6E000D42F05F5FD2504F5FF24386004F5FD643D
:10A6F0001648C6F8F41706F2F47605F5FF6583B040
:10A700002B6023600260FFF7BDFBFFF7A9FF104C31
:10A7100023680093009B132BFAD901F0D7FB236821
:10A720000193019BB3F5967FF9D303B0F0BD00BF51
:10A7300008E100E0048003401C80034014800340D3
:10A74000248003402C8003403480034000800B4071
:10A7500044A3FF1F088003400C800340282838B51D
:10A760002ED0002904464FDD5F4B1B78012505FAEA
:10A7700003F28A4202D8212837D938BD0338C2B241
:10A78000012A3AD9202C4AD0192C48D0574A1268AD
:10A7900002FB011222FA03F31D2800F29B80DFE87E
:10A7A00000F0928B847D9999766F999999999999EE
:10A7B00099999968615A53994C9999999999994598
:10A7C000494B1B780B2B08D90C2B1CBF0C3B194198
:10A7D0000846BDE83840FFF743BCC3F10C0399407D
:10A7E0000846BDE83840FFF73BBC2946FFF702FEAC
:10A7F0002946BDE83840FFF71FBE3D4A126802FBFC
:10A80000011222FA03F3C7E72128B6D80021FFF787
:10A81000F1FD20460121BDE83840FFF70DBE354A65
:10A82000126802FB011222FA03F3B5E73249334AF8
:10A830000B604FF45173136038BD3149314A0B60DE
:10A840004FF45173136038BD2F49304A0B6040F20A
:10A850004443136038BD2E492E4A0B6040F24443F6
:10A86000136038BD2C492D4A0B6040F244431360FD
:10A8700038BD2B492B4A0B6040F24443136038BD6E
:10A8800029492A4A0B6040F24443136038BD2849E5
:10A89000284A0B6040F24443136038BD2649274ADA
:10A8A0000B6040F24443136038BD2549254A0B60D4
:10A8B00040F24443136038BD2349244A0B604FF4EF
:10A8C0005173136038BD2249224A0B604FF4517313
:10A8D000136038BD212C3FF650AF7F29D4BF002133
:10A8E0000121204693E700BF6C95FF1F08800340BD
:10A8F0000890034008800B4010800B4048A00440A3
:10A9000018800B404CA004401880034008B004405D
:10A910001080034004B004404080034018C004404D
:10A920003880034014C004402880034010B0044025
:10A93000208003400CB004403080034010C004402D
:10A94000488003401CC004401890034034900440E9
:10A95000109003403090044038B1102828BF1020D8
:10A96000044AC3B2107813707047024A012310786A
:10A97000137070476C95FF1F2DE9F8430E46804613
:10A980003249334D304603F015F947F612230028BB
:10A990001ABF1D464FF002094FF00109002425FAA5
:10A9A00004F002F011FF4FF05E51074602F064FF21
:10A9B0000146304603F012F930B90134072CEED1CC
:10A9C000E80902F001FF07463146384603F008F86F
:10A9D0004FF07C5102F046FE03F03AF94FF6FF7259
:10A9E0009042A8F1030328BF1046012B29D9B8F1E2
:10A9F000170F17D8174B23FA08F303F0010383F05E
:10AA0000010223B9B8F1190F0FD0BDE8F883124B3A
:10AA1000124D13491A6044EAC9042A6008601C6098
:10AA2000BDE8F883B8F1200FECD10E4B0E4D0F4965
:10AA3000002244EAC9041A602A6008601C60BDE86C
:10AA4000F8830B4B0B4D0C49F2E700BF001BB740DE
:10AA5000006CDC026006F0000080034004800340CC
:10AA60000880034000800B4004800B4008800B40AE
:10AA7000009003400490034008900340212801D82F
:10AA8000FFF7B8BC704700BF212806D8044B53F825
:10AA9000303093F80002C0B270470020704700BF0A
:10AAA00040710100212801D8FFF7C6BC704700BFE4
:10AAB00072B60C490C4B0D4A1B680868126862B6E6
:10AAC000520102D5322B88BF01300949C3F5BB338F
:10AAD0004FF47A72FF33A1FB031302FB00F000EB8B
:10AAE0009310704744A3FF1F18E000E004ED00E05E
:10AAF000ABAAAAAA2DE9F843054672B6204F214B0E
:10AB0000214A1B683C68126862B6520102D5322B9A
:10AB100088BF013495B3C3F5BB331C4EDFF8649096
:10AB2000DFF86480FF334FF47A72A6FB031302FB55
:10AB300004F404EB931472B6D9F800103A68D8F80C
:10AB400000E062B6C1F5BB33FF33A6FB03031EF082
:10AB5000806FC4EB93134FF47A7002D0322988BF10
:10AB6000013200FB0233B3F57A7F04D3013D05D0F7
:10AB700004F57A74DFE701F0CDFBDCE7BDE8F8838C
:10AB800044A3FF1F18E000E004ED00E0ABAAAAAA6E
:10AB90002DE9F84F2C4B1B6807460BB101221A70A8
:10ABA000DFF8BC90DFF8BC8099F80040D8F800309E
:10ABB000264D274E01349C422ABF4FF0000A5FFA0F
:10ABC00084FA5446AB462B78A3421CD1FFF7C8FB4E
:10ABD00040282BDC33791B06F5D59BF80030D8F8DC
:10ABE0000010DBB25A1C8A4225D23F2A29D91949C2
:10ABF0003F3B0968CB5CD1B2DBB2DBB2F3712970A9
:10AC00002B78A342E2D03F2C8ABF124B124B1B6819
:10AC1000124988BF403CFFB21F550D4B0120BC229A
:10AC2000087089F800A0DA70BDE8F88FFF28CADD47
:10AC300001F070FBC7E700210A46074B9B5CDBB2C3
:10AC4000DBE7D1B2F9E700BFE0A3FF1FD9A3FF1FE5
:10AC500000A0064094A3FF1F50A3FF1FD8A3FF1F0F
:10AC6000E4A3FF1F7C95FF1F2B4A2C491368F0B506
:10AC700043F4806313600A78294F2A4E2A4D2B4CE7
:10AC80002B4900233B7033702B7023700B70002A0C
:10AC90003DD0152A21D0274B1B78012B25D0052B21
:10ACA00030D01F2827D8002002460125224B234CF4
:10ACB0001A7023495D7004224FF0020E88273C264B
:10ACC000402598729A704FF4005083F813E05A753B
:10ACD0001F74DE7025700860F0BD1A4B40F213320D
:10ACE0001A60144B1B78012BD9D1174B4FF45172BA
:10ACF0001F281A60D7D9C0F34432C0F3471500F0BB
:10AD00001F00D3E7114B4FF451721A60C9E7104B83
:10AD100040F213321A60BEE73480044090A3FF1F54
:10AD20004CA3FF1F4DA3FF1FE4A3FF1FD9A3FF1FC9
:10AD3000D8A3FF1F8095FF1F00A006402DE400E070
:10AD400004E100E018C0044044A004401CC00440DA
:10AD500040A00440234B23499B7803F0EC0200F011
:10AD600003031343420700F00F0248BF43F01003F0
:10AD7000042A8B702ED01B4B1A4A5B79C10603F054
:10AD8000EF0348BF43F0100353719379820603F039
:10AD9000EF03144A48BF43F0100310F4007093719E
:10ADA00005D1114B114A1968914218D0704730B43F
:10ADB00091780F4D0F4B0C480C4C41F0A001917055
:10ADC0002A78046003EBC20340F247325B6830BC70
:10ADD0001A6070478B7943F040038B71CBE71860A2
:10ADE000704700BF00A00640E0A3FF1FD400D4427C
:10ADF0008095FF1F40710100234B1B685B0541D507
:10AE000010B5224C237823B101F084FA2378002B6B
:10AE1000FAD11F481F4A204B4FF400540021046010
:10AE2000D1701B78FBB1152B03D11C4B40F20312E0
:10AE30001A601B4B1B7803F07F03012B1DD0052BE1
:10AE400003D1184B40F203121A60174A114B1748EE
:10AE5000174912681C79DB79002303700B700AB163
:10AE60000123137010BD134B40F203121A600C4BF8
:10AE70001B7803F07F03012BE1D10F4B40F203124B
:10AE80001A60E2E7704700BF34800440D8A3FF1F78
:10AE900084E100E000A0064090A3FF1F18C004401A
:10AEA0008095FF1F1CC0044048A3FF1F4CA3FF1F39
:10AEB0004DA3FF1F40A0044044A004400A4A38B5F7
:10AEC0000546137803F0FF04002BFAD10121284630
:10AED000FFF7E8FD21462846FFF7D0FD034A044B63
:10AEE00052F835201A6038BDD8A3FF1F4071010009
:10AEF000E0A3FF1F09B140F08000174A1378984281
:10AF000016D010B4154C246864050FD503F07F03E8
:10AF1000012B1CD0052B11D0002900F07F0114BF9C
:10AF20006023442301290DD0052902D0107010BCE4
:10AF300070470B4943F440730B60F7E7084B00245C
:10AF40001C60E9E7074943F440730B60EEE7054BEB
:10AF500000241C60E0E700BF8095FF1F34800440A0
:10AF60001CC0044044A00440104B1A7882420AD00E
:10AF70000F490968490505D5AAB1152A09D068B154
:10AF8000152801D0187070470A4A40F21331116039
:10AF9000F8E7084A002111600028F1D1064A40F282
:10AFA00013311160EEE704490A60E8E790A3FF1F40
:10AFB0003480044018C0044040A004400D4B1B687E
:10AFC00013F4806305D0212805D90B4B00201860AD
:10AFD000704718467047094B10B5074C53F830308E
:10AFE00023600121FFF75EFD236800221A70012013
:10AFF00010BD00BF3480044048A3FF1F4071010012
:10B000000F4B1B6813F4806308D0122808D0142853
:10B0100011D00C4A537B03F0FE035373002070479A
:10B02000094B40F202321A60064A537B43F0010397
:10B03000537301207047054B40F202321A60F3E768
:10B040003480044000A006400CA0044014C004401A
:10B05000034B1B685B0501D5FFF79ABD704700BF26
:10B06000348004403E4B1B685A0575D52DE9F04FDE
:10B070003C4B1B6883B00BB101221A7043189842F5
:10B08000019363D2DFF8F080DFF8F090364CDFF800
:10B09000F0B0364F451C18E0227892455FFA8AF6E8
:10B0A00029D0BAF13F0F1ED9DBF8002015F8011C9A
:10B0B000AAF14003D1542A462D4901230B701D44A7
:10B0C000019B88F800609A4240D298F80030D9F885
:10B0D000002003F1010A9245DED3237803F0FF0636
:10B0E00043B10026B246234B15F8012C03F80A2081
:10B0F0002A46E1E7B246BC22FA7005E03A79130627
:10B100000BD422785245CCD1FFF72AF94028F5DD3F
:10B11000FF28F6DD01F0FEF8F3E72278D9F80010F9
:10B12000D2B2501C88420BD23F2816D9DBF800104F
:10B130003F3A8A5CC1B2D2B2D2B2FA712170E0E772
:10B14000002108460B4B1A5CD2B2F5E7074BBC2234
:10B15000DA7003B0BDE8F08F7047C1B2F2E700BF0C
:10B1600034800440E0A3FF1FD9A3FF1F00A00640C6
:10B17000D8A3FF1F50A3FF1FE4A3FF1F7C95FF1F51
:10B1800094A3FF1F10B5044C237823B101F0C2F83B
:10B190002378002BFAD110BDD8A3FF1F084B094A12
:10B1A0001B781078DBB2C0B2834202D20138C01AD9
:10B1B0007047054A1268013A1044C01A704700BF30
:10B1C000E4A3FF1FD9A3FF1F7C95FF1F064A074B6F
:10B1D00010781B78C0B2DBB2984202D2044A1268DF
:10B1E0001044C01A704700BF4CA3FF1F4DA3FF1FA0
:10B1F0007095FF1F70B4184B184D1B782A78D9B280
:10B20000D2B2914222D0164B1C68531CA34214D3D5
:10B21000002213461348C05CC0B2134E2A70326835
:10B220004AB1994238BF0919CB1A104909688B42B3
:10B2300001D80023137070BC70473F2B09D90C480C
:10B240003F3A0068805CDAB2C0B2E6E74FF0FF3008
:10B25000F1E7DAB2DEE700BF4CA3FF1F4DA3FF1FEB
:10B260007095FF1F98A3FF1F48A3FF1F7495FF1F32
:10B27000DCA3FF1F0D4A0E4B12781B78DBB29A42FB
:10B2800011D00C4A11685A1C8A4204D300220A4B7E
:10B29000985CC0B270473F2AF9D9084A3F3B126810
:10B2A000D05CC0B270474FF0FF3070474CA3FF1F17
:10B2B0004DA3FF1F7095FF1F98A3FF1FDCA3FF1F67
:10B2C0000D4B1B685B0516D530B40C4B0C4CDA7873
:10B2D0000C480D4902F0CB024025DA705D74DA7833
:10B2E00042F03402DA7023780268DBB20B700AB1E4
:10B2F0000023137030BC70473480044000A0064027
:10B300004DA3FF1F48A3FF1F4CA3FF1F2DE9F041D2
:10B31000504A137913F0300F44D072B6937D03F086
:10B32000FF01002B57D062B6DFF858814A4B4B4DD6
:10B3300098F800004A4C1B782F68D4F800C0DFF85A
:10B3400048E11546C0B2DEB20CE09642A0F13F04DF
:10B3500004D03F2A7CD90CF8043010464A1E12F063
:10B36000FF010DD0EB79421CBA42DBB2EDD3002EC7
:10B37000F4D000204A1E12F0FF010EF80030F1D187
:10B38000384B1A68C3B288F800305AB13649B04217
:10B3900038BFBB1B09682CBF831B1B188B4224BF03
:10B3A000012313702B48C178C9B20D0618D44A0680
:10B3B0000FD5284B1B795B060BD52C4B2C491B68F2
:10B3C00000220A7003B11A70224B3C22DA70BDE8E9
:10B3D000F081BDE8F0814023D179537462B6E1E792
:10B3E00003791C06E3D5234BDFF8A0E01D789EF817
:10B3F0000030EDB2DBB29D421ED01F4C1F4A2668C2
:10B40000D2F800C01E4F0DE03F2C02791ED91CF867
:10B4100003202346D2B2D2B2C271027D072A0BD8D2
:10B420009D4209D05C1CA642A3F13F03ECD80379EE
:10B430000023FA5CD2B2EEE7DBB2064A8EF80030A7
:10B440001379180644BF7C23D370B0E72346F0E796
:10B4500010468FE700A006404DA3FF1F7095FF1F09
:10B46000DCA3FF1F48A3FF1F7895FF1FE0A3FF1F6A
:10B47000D8A3FF1FE4A3FF1F7C95FF1F94A3FF1F0A
:10B4800050A3FF1F4CA3FF1F98A3FF1FD9A3FF1FAB
:10B49000084B1860084B50B101F140021A60074A8E
:10B4A000074B01F11A0028311060196070474022E3
:10B4B0001A60F4E7DCA3FF1F7095FF1F7495FF1F50
:10B4C0007895FF1F044B1860044B10B14031196090
:10B4D000704740221A60704794A3FF1F7C95FF1F9E
:10B4E000704700BF431E032B14D872B60A4951F8A7
:10B4F000230068B170B4094C058834F813204668FD
:10B5000041F82360521B24F8132062B670BC7047C8
:10B5100062B670470020704740A4FF1F3CA5FF1F84
:10B52000013803280BD872B6074B53F8203043B1CB
:10B5300000205B680130002BFBD162B67047002011
:10B5400070471846F9E700BF94A4FF1FF0B472B625
:10B550001A491B4E012311F8014B194F9A00240779
:10B5600042F0010505D556F8324064B156F8352051
:10B57000BAB10133052BEED162B6124B00221A701C
:10B58000F0BC00F031BD0F4C0F4D217807EB431399
:10B59000083001395860217047F8325062B6F0BC6B
:10B5A0007047084A0949137807EBC5040830013B86
:10B5B0006060137047F8351062B6F0E778720100EA
:10B5C0000080FF1FBDA4FF1F88004000C80040008E
:10B5D000431E032B1DD81B4A400140F0100030B41D
:10B5E000104472B6184CE25C032A1BD8DFE802F064
:10B5F0000212151703220D88E25410F0080F14BF31
:10B60000C823882343EA054308314160036062B6DA
:10B6100030BC704708300222EDE70522EBE7083026
:10B620000422E8E7094A52F8230038B1084A52F8E0
:10B630002300416042F8231062B6E9E742F8231084
:10B64000034AF7E70080FF1FCCA4FF1F94A4FF1F4D
:10B65000A4A4FF1F00BE00BF2DE9F04FDFF814B314
:10B66000DFF814A387B044E0AD4F4FEA930807EB2F
:10B67000C809013ED9F8042003F00803F6B2A2F18C
:10B68000080003F0FF04002B40F0038157F8383026
:10B690001B0C99B222F8081C002B00F0F180A14B82
:10B6A00022F8064C42F8044C53F82620002A00F0F9
:10B6B0006C819D4D55F8263058609C4C45F826000D
:10B6C00034F81630194424F8161000F06DFC0028E8
:10B6D00000F05481964A974B19F0080F00F10800CA
:10B6E00018BF1346C9F8040047F8383008238BF810
:10B6F00000309BF80040E4B260071BD58E4B1B78EE
:10B70000ABB18E490A7802F0FF032AB1013BDBB2EC
:10B710000B70002B00F0B58389490A7802F0FF0313
:10B720002AB1013BDBB20B70002B00F0F680042342
:10B730008BF8003004F0080303F0FF02002B00F048
:10B74000D5809AF80030DBB21E098DD19C08744F69
:10B7500057F8342007EBC401C2F38302013A496869
:10B760000C2A7ED8DFE802F081817D7D7D7D7D7DA4
:10B77000427D7D7D07000868724B734D01936C4BD1
:10B780004A68724E47F8343081B240F281646D4BA2
:10B790006A60286000220120A1423A611A60BA6101
:10B7A000307000F2F680B1F5D06F80F0E882B1F52C
:10B7B000817F00F0D38200F2D881802900F04D8192
:10B7C000822940F09282A988614B01F07F0104290F
:10B7D00000F28C825F4C89000B44227062701A78F0
:10B7E000930740F13883207002203AE1554B0193D2
:10B7F0001A6862B3584B5949544E18880C7896F819
:10B8000000E04028054684F0010C28BF402544F0A4
:10B810000204BEF1000F81F800C0A0EB050007EBA9
:10B82000C40C0CBF8821C82180B28EF0010E41EA01
:10B830000541CCF80420188086F800E02A4447F837
:10B84000341010B9402D18BF0022019B1A603E4BE6
:10B850001A88B2F5A06F04D100219A785970404B34
:10B860001A70404A0123137040E7374A158842F2A4
:10B870002100854200F052812D4A47F83420F0E73C
:10B880002B4A2C4B19F0080F18BF134647F83830D5
:10B890002CE700F0A9FB344A344952F82630002B3B
:10B8A00000F02D8158688C5D42F8260003F10802F3
:10B8B000C9F80420032C05D8DFE804F0120F1502A4
:10B8C00004228A551A8819F0080F0CBF8823C82350
:10B8D00043EA024347F8383008E702228A55F1E785
:10B8E00003228A55EEE705228A55EBE7E00700F1CF
:10B8F0007881210600F1A281A20706D51C4A1D49C4
:10B9000013780220DBB213700870E30602D5194BDE
:10B9100010221A7007B0BDE8F08F00F0D7FC06E7E0
:10B920000080FF1F40A4FF1FECA3FF1F3CA5FF1FCB
:10B93000C800400088004000C8A4FF1F51A4FF1F9A
:10B94000D0A4FF1FE8A3FF1FB4A4FF1F50A4FF1F34
:10B95000C0200740C0A4FF1FFCA3FF1FBCA4FF1F03
:10B96000982007409420074094A4FF1FCCA4FF1FF9
:10B97000882007408020074090200740B74A47F8BA
:10B980003800137801331370B0E643F82600B44D45
:10B9900093E642F22104A14200F0AD8000F20E8154
:10B9A000B1F5086F00F05481B1F5106F40F09D8142
:10B9B000AC4AA9781170AC4D042402E00134142C77
:10B9C0000CD057F834301906F8D505EBC403013410
:10B9D0005868083800F008FB142CF2D1A349A44B96
:10B9E000A44A0291A449A54C9D4D039405964FF09D
:10B9F000000988461C4616460495206828B145680B
:10BA000000F0F2FA2846002DF9D100232360049BB0
:10BA100030681A46002342F8293028B1456800F002
:10BA2000E3FA2846002DF9D100223260029A98F8F4
:10BA300000301146002241F8042B039A0291023B88
:10BA40004FF0000122F81910032B00F2B481DFE857
:10BA500013F0E201AE01E201AE01894C0220227036
:10BA60006270EA88824280F00D8286490D78402A11
:10BA700045F0020E944607EBCE0028BF4FF0400C75
:10BA800004EB0C0344600293CCEB02004FEA0C4839
:10BA90004FF001090022C82444EA080385F001049C
:10BAA00047F83E3032700C70DFF8BCE1764BDFF8BF
:10BAB000D481002840F02081BCF1400F1BD144F01C
:10BAC000020407EBC403029FDFF89CE15F60002AD9
:10BAD00040F02781020442F0880286F800900D7041
:10BAE00007444EF834203B46402804D10020674AE2
:10BAF000019910800B60664A01231370B1E68B5DDB
:10BB0000032B00F2248101A252F823F0EDB60000CD
:10BB1000EDB6000031BC000037BC0000928862B96D
:10BB20005C4ACD1D11F8013B02F8013F8D42F9D16D
:10BB3000594A1268862A00F0C9805249524E087844
:10BB4000327840F0020580F00100087007EBC50173
:10BB5000002A4FF00000486082F001020CBF8821EB
:10BB6000C82147F83510327086E640F20232914221
:10BB700040F0B080A98801F07F01042900F2B5806F
:10BB80006A88002A40F0B180444C89000C44814608
:10BB9000217841F002012170002002908046844605
:10BBA000044638490D7845F0020E07EBCE03B9F193
:10BBB000000F5C600CBF8824C8246DE742F221248A
:10BBC000A14240F08E80A988002940F04281344B88
:10BBD000344A354C1B68AD78136081460A4625709F
:10BBE000DAE72B49204B3148264EDFF8B0C0304D04
:10BBF000DFF8D4E02F4F02240C702F4C18605C60EB
:10BC000098602E48D8601A619A610D2332702C4CCE
:10BC10008CF800302B4EFF232B7001209F258EF8CF
:10BC200000303A7033702570087007B0BDE8F08FAF
:10BC300000238B555AE501238B5557E51749224BB5
:10BC400080220D2008701A70A2077FF55EAE55E6BF
:10BC5000044A0B4C1278227003E700BFBDA4FF1FFB
:10BC6000ECA3FF1FC8A4FF1F0080FF1FA4A4FF1F99
:10BC700040A4FF1F94A4FF1FCCA4FF1F3CA5FF1FDF
:10BC8000C0A4FF1FBCA4FF1F50A4FF1FFCA3FF1FE5
:10BC90009420074043A5FF1F44A5FF1FC020074075
:10BCA00044A3FF1F4CA5FF1FE0A4FF1F8800400016
:10BCB000882007409820074000A4FF1F54A4FF1FBE
:10BCC000842007408C20074080200740754A0F21C0
:10BCD000117032E7B1F5A06F07D100224FF00109D2
:10BCE0005AE742F221329142F7D06F4B0F221A707D
:10BCF0006E4A01231370B4E540287FF6E0AE44F0AD
:10BD000002040EEBC401029E4E60AAB183F80090BB
:10BD1000674A88F800503346403840334EF83420A4
:10BD2000E5E6029B86F80090020442F0C8020D701E
:10BD300003444EF83420D7E683F80090029B5D4A16
:10BD400088F80050403840334EF83420CFE619F0E0
:10BD5000080F0CBF022303238B55C7E4A98801F009
:10BD60007F010429C1D86A88002ABED14E4C8900BF
:10BD70000C448146217821F0020121700CE74E4AE3
:10BD80005468002CB1D06888B5F804E003E00C32A8
:10BD90005468002CA9D013888342F8D15388734586
:10BDA000F5D1000A03280CBF2078108959E64FF01E
:10BDB000010388F8003009F10109B9F1040F04F119
:10BDC000040406F1040608F101087FF416AE3B4BAB
:10BDD000059E3B4DDFF8F080002018704FF0010900
:10BDE00018F8013B05F8043B1A0719D44FEA8904F7
:10BDF00044F0020244F00304002347F8323047F8CD
:10BE00003430304B9D4209F10109E9D196F8009098
:10BE100089F00102C0E64FF0000388F80030CAE75D
:10BE200000F0C2F818B307EB49134FEA8904083051
:10BE30005860204B47F8343000F0B6F868B144F051
:10BE4000010307EBC30208305060194A47F833205A
:10BE5000CEE78146A0E6022003E6184B44F001023B
:10BE60001B7847F83200154A01331370C0E7134BB3
:10BE7000124A1B784FEA8904013347F834001370E3
:10BE8000DAE700BE4028844628BF4FF0400C04EBA0
:10BE90000C03CCEB00004FEA0C48029300224FF059
:10BEA00001097EE651A4FF1FC020074094200740EF
:10BEB000C8004000880040007C720100BDA4FF1F44
:10BEC000C4200740D4200740787201002DE9F041DA
:10BED00000F0C0FA00231F491A4601EBC30041F8E5
:10BEE00033200133142B42604FF000041948F4D181
:10BEF000194A1A4F13681A491A4D1B4EDFF874C0BD
:10BF0000DFF874E0DFF8748043F480231360C0F33B
:10BF100007233B70C0F307430B70000EFF2302F5AD
:10BF200028322870D4328CF80030104D8EF8003052
:10BF30000F483370012388F80030702681F8504094
:10BF40004FF40074102107F8183C2E700460117033
:10BF5000BDE8F0810080FF1F348004409C20074032
:10BF6000B0200740B42007401020074049E400E01B
:10BF700008E100E080200740882007409420074027
:10BF800000F0A8B800F07AB800F054B800F08EB80D
:10BF900000F070B900F04AB90846114600F0B6B892
:10BFA000084600F037B900BF72B60D480268B2FA11
:10BFB00082F30B2B10DC4FF00041D94022EA010242
:10BFC000026062B6074803EBC303DB00C21800211E
:10BFD000C15010465160704762B60020704700BFE4
:10BFE0009495FF1FBC85FF1F0D4B0E4AC31AA2FB81
:10BFF00003231B090B2B0CD80B4A127852B972B6CB
:10C000000A484FF00041026821FA03F31A43026024
:10C0100062B67047064A1278002AF0D0FFF796BA47
:10C02000BC85FF1F398EE338BDA4FF1F9495FF1F09
:10C03000C8A4FF1F38B50F4D286878B1438802881F
:10C04000C118013393420C7A02D24380204638BD96
:10C05000FFF7CAFF002320462B6038BD064B1B7834
:10C060002BB10320FFF73EFA28600028E6D14FF0FD
:10C07000FF3038BDDCA4FF1FC8A4FF1F10B5094C5A
:10C08000206818B143881844007A10BD064B1B780D
:10C090002BB10320FFF726FA20600028F2D14FF0E1
:10C0A000FF3010BDDCA4FF1FC8A4FF1F074B084AC8
:10C0B0001B6810B594881BB11A885B88D31A1C447E
:10C0C0000CB900F027F9204610BD00BFDCA4FF1F0B
:10C0D0003CA5FF1F0B4B1B789BB110B50A4C206889
:10C0E00048B1FFF781FF002303202360FFF7FAF92F
:10C0F00030B1FFF779FF0320FFF7F4F90028F8D1FA
:10C1000010BD7047C8A4FF1FDCA4FF1F2DE9F04F2E
:10C11000DFF8F89083B0012289F80020019169B31B
:10C12000DFF8EC80364F019E8346D8F80000B0B3AC
:10C13000344D4488C4F14001B14228BF314604EB7C
:10C14000010E00221FFA8EFE2A70761AA0F802E075
:10C1500000F1080251B1013C224459441BF8014B43
:10C1600002F8014F8B45F9D1B0F802E0BEF13F0F64
:10C170000BD8254A05211170002ED6D10198002335
:10C1800089F8003003B0BDE8F08F402202800146FC
:10C190000420FFF71DFA0022C8F80020E9E73A78EA
:10C1A0002AB3184D4AF2F9244FF0010A07E0013C86
:10C1B00016D02A78A2B900F0ADF83A78BAB10420C6
:10C1C000FFF7AEF90728F2D889F800A0FFF7ECFED8
:10C1D000C8F800000028ACD10C4B013C1870E8D125
:10C1E00001234FF0FF302B7003B0BDE8F08F002328
:10C1F0004FF0FF3089F8003003B0BDE8F08F00BF8A
:10C20000C8A4FF1FD8A4FF1FD0A4FF1FD1A4FF1FE5
:10C21000D4A4FF1F00B583B002AB012103F8010DC8
:10C220001846FFF773FF03B05DF804FB38B50E4DF9
:10C230000E4C28680123237028B140880023237006
:10C24000C0F1400038BD0A4B1B7813B900202070A4
:10C2500038BD0420FFF764F90728F7D8FFF7A4FEDC
:10C2600028600028E9D1F1E7D4A4FF1FD1A4FF1F63
:10C27000C8A4FF1FF8B5114B1B788BB1104E114DA0
:10C28000346801272F7064B10F4A63880027177044
:10C29000214623800420FFF79BF9376000232B7091
:10C2A000F8BDFFF781FE084B28B1014604201C7041
:10C2B000FFF78EF9F2E71F70F0E700BFC8A4FF1F79
:10C2C000D4A4FF1FD1A4FF1FD0A4FF1F38B50E4B6D
:10C2D0001B7873B90D4C216861B103F0FF054B88E1
:10C2E0000B800420FFF774F9256038BD084B01224C
:10C2F0001A7038BDFFF758FE0028F7D00146BDE898
:10C3000038400420FFF764B9D1A4FF1FD4A4FF1F55
:10C31000D0A4FF1F2DE9F843314E337893B1314F4C
:10C320003A787AB90122D9073A7036D49A0719D4E3
:10C3300000225B073A7005D52B4B1A6812B1EFF358
:10C3400005820AB1BDE8F883EFF3108172B6186870
:10C3500018B1264C2278002A2ED00029F2D162B6DC
:10C36000BDE8F883DFF8908098F80020002ADFD03D
:10C37000DFF88890002405E0013498F80030E4B23A
:10C38000A34212D959F824502B6828461B699847B4
:10C390000028F1D02B699847EEE7FFF787FEC8B970
:10C3A000134B1B781BB93378C0E73378C0E7337879
:10C3B00003F0FE033370B9E745691D600123237064
:10C3C0005DB1AA6101B962B60025457783689847D7
:10C3D0002570B7E700F03CF8E2E7064B1D60F1E797
:10C3E0009895FF1FE1A4FF1F38A3FF1F3CA3FF1F69
:10C3F0009995FF1F34A3FF1FF0A4FF1FE4A4FF1FA4
:10C4000070B4104E104D3478CCB12B68984214D0D3
:10C410002A46002303E052F8041F81420DD0013365
:10C42000DBB2A342F7D15A1CD2B2084945F8230027
:10C430000B78327043F002030B7070BC70472346D8
:10C440000122F2E7F0A4FF1FE4A4FF1F9895FF1F4D
:10C45000704700BF70B584B072B6194B194D1A48B9
:10C46000702241260F2480211A702E701A46047003
:10C47000197013781B06FCD5144B186862B6144B60
:10C48000144C984298BF00EB800001A998BF40006F
:10C490000A22FDF787FF01A92046002311F8012B8E
:10C4A00001333AB10A2B20F8022FF7D1162323705B
:10C4B00004B070BD5B00DBB2237004B070BD00BF80
:10C4C000000002400700024006000240080002404F
:10C4D0007F9698002896FF1F08B5C0F3C7537F3B8F
:10C4E000162B01460EDC002B024610DB0B481841D0
:10C4F000014205D04FF480011941114421EA0001A5
:10C50000084608BD802BFBD101F0AEF808BD013311
:10C5100000F00041F4D141F07E51F1E7FFFF7F00D0
:10C520002DE9F0418AB004460D4600F0D5F8364BAF
:10C5300093F90080B8F1FF3F06460F460DD0224622
:10C540002B462046294600F0DBFF30B900220023AD
:10C550002046294600F0CAFF20B1304639460AB0CD
:10C56000BDE8F081294B0890CDE90245CDE90445AD
:10C57000019320462946B8F1000F17D1244D4FF002
:10C58000604400220023CDE9064500F087FF002823
:10C5900032D002230093684600F052FB98B1089B0A
:10C5A000B3B9DDE906010AB0BDE8F081194D0024F8
:10C5B00000220023CDE9064500F070FF68B1022398
:10C5C00098450093E7D101F04DFD22230360E6E793
:10C5D00001F048FD089B0360E3E70123B8F1020F77
:10C5E00000930BD101F03EFD212303600A4800F0C7
:10C5F00029FBCDE90601D2E701230093684600F04C
:10C600001FFB0028F2D1EDE73E96FF1FD07201001C
:10C61000FFFFEFC70000F0FFA86301002DE9F04F16
:10C620008BB004460D4600F04BFA284B93F900A05E
:10C63000BAF1FF3F06460F4612D022462B4620464F
:10C64000294600F05DFF834650B94FF000084FF0D7
:10C65000000942464B462046294600F029FF20B9F2
:10C66000304639460BB0BDE8F08F194BCDF820B0FD
:10C670000122CDE90445CDE902458DE80C00BAF16F
:10C68000000F15D042464B464046494600F0C8FDD3
:10C69000BAF1020FCDE906010CD101F0E3FC212330
:10C6A0000360089B63B9DDE906010BB0BDE8F08FBC
:10C6B000CDE90689684600F0C3FA0028F1D1ECE71D
:10C6C00001F0D0FC089B0360EDE700BF3E96FF1F22
:10C6D000D4720100FFFFFFFF2DE9F04FB1F5801F7D
:10C6E00085B006460F460B465ADA024621F0004452
:10C6F000224300F0F8800029C0F27A810022D64B54
:10C7000000F064FC0B460F46D4498B4206466FF09E
:10C7100035024ADCC3F3130505F5152404F66474E9
:10C7200004F4801E8EF07F5181F440111B15A3F29A
:10C73000FF3341EA05079C1830460022C84B3946B2
:10C7400004EB1E5400F08EFAAB1CC3F31303022B50
:10C7500082468B464FF0000230DC002300F09EFE44
:10C76000002800F0C980002C00F04B81204600F02A
:10C77000C7FBA5A3D3E9002306460F4600F026FC1D
:10C78000A3A3D3E9002304460D463046394600F002
:10C790001DFC02460B462046294600F065FA0AE0D9
:10C7A000AE498B424FF00002B4DD32463B46304684
:10C7B000394600F059FA05B0BDE8F08F4FF08043DC
:10C7C00000F052FA02460B465046594600F028FD4A
:10C7D000064620460F4600F093FB3246CDE90001A5
:10C7E0003B4630463946CDE9026700F0EFFB024692
:10C7F0000B468046894600F0E9FB87A3D3E9002376
:10C8000006460F4600F0E2FB85A3D3E9002300F0C3
:10C810002BFA32463B4600F0D9FB83A3D3E9002331
:10C8200000F022FA32463B4600F0D0FB80A3D3E969
:10C83000002300F019FA42464B4600F0C7FB7EA3E6
:10C84000D3E90023804689463046394600F0BEFBD6
:10C850007BA3D3E9002300F007FA32463B4600F001
:10C86000B5FB79A3D3E9002300F0FEF932463B463D
:10C8700000F0ACFB0B4602464946404600F0F4F996
:10C88000A5F5C223C5F5D725A3F27A4351351D433B
:10C89000002D8046894656DD0022724B504659468F
:10C8A00000F094FB52465B4600F090FB06460F46B4
:10C8B000002C68D132463B464046494600F0D4F948
:10C8C000DDE9022300F082FB02460B463046394682
:10C8D00000F0C8F902460B465046594600F0C2F92E
:10C8E00005B0BDE8F08F0022002300205E4900F073
:10C8F00097FC05B0BDE8F08F55A3D3E9002350465F
:10C90000594600F063FB02460B460020554900F0F3
:10C91000A9F9524606460F465B465046594600F076
:10C9200055FB02460B463046394600F04FFB0646A3
:10C930000F46002C40F09A8002460B46504659465E
:10C9400000F090F937E7002C00F0A4802EA3D3E983
:10C950000023DDE9000100F039FB42464B46044666
:10C960000D465046594600F07DF9DDE9022300F0FE
:10C970002DFB27A3D3E9002306460F46DDE900017E
:10C9800000F024FB21E020A3D3E90023DDE900012E
:10C9900000F01CFB32463B4604460D4640464946E5
:10C9A00000F062F9DDE9022300F010FB18A3D3E9DF
:10C9B000002380468946DDE9000100F007FB0246BE
:10C9C0000B464046494600F04FF902460B463046BA
:10C9D000394600F047F952465B4600F043F90246FB
:10C9E0000B462046294600F03DF905B0BDE8F08F22
:10C9F00002460B4600F036F90022002300F010FC3E
:10CA0000D9E600200021D6E60000E0FE422EE63FF7
:10CA1000763C7935EF39EA3D44523EDF12F1C23FB0
:10CA2000DE03CB966446C73F599322942449D23FF4
:10CA3000935555555555E53F9FC678D0099AC33F44
:10CA4000AF788E1DC571CC3F04FA97999999D93F5B
:10CA5000555555555555D53F00005043FFFFEF7FC5
:10CA60000000F03F0000E03F000050C3204600F00F
:10CA700047FA0FA3D3E900238046894600F0A6FABF
:10CA80000DA3D3E9002304460D464046494600F075
:10CA90009DFA9AE702460B465046594600F0E2F8E6
:10CAA000DDE9022300F092FA14E700BFAFF3008043
:10CAB0000000E0FE422EE63F763C7935EF39EA3D54
:10CAC0002DE9F8435D4EB6460E4076450C460546C8
:10CAD00000F0958000290B46024673DD0F157ED0CD
:10CAE000A7F2FF37C3F31303F80743F4801364D4AA
:10CAF00003EBD27100260B447F105200B64616207D
:10CB00004FF400110EEB01049C424FEAD2754FEA3C
:10CB1000420203DC1B1B04EB010E0E44013805EB43
:10CB200043034FEA5101EDD1844620244FF00041E8
:10CB300009E020D003EBD275013C4FEA51012B44B0
:10CB40004FEA420220D09E4501EB0C05F1DA002DA0
:10CB500005EB010C09DBF0469542CEEB030300D94F
:10CB6000013B521B0844C646E4E7BCF1000FF2DB70
:10CB70000EF10108F0E7954217D8002D05EB010CE6
:10CB800047DB98460023ECE7134310D140087310AD
:10CB900003F17F5303F50013F20703EB075948BF76
:10CBA00040F000404946BDE8F8837346C2E7411CA7
:10CBB00033D000F001031844E8E75B0003EBD273C5
:10CBC000520095E721F000460643ECD069BB0F46C2
:10CBD000D30A153F5205002BFAD0DD0220D40021E4
:10CBE00000E001465B00DC0201F10100F9D5C0F173
:10CBF000200422FA04F423437F1A824070E702469D
:10CC00000B4600F0E3F92A46234600F02DF8BDE874
:10CC1000F883BCF1000FABDAB3E701362046B6E784
:10CC200020244FF0FF310020E3E702460B4600F0DE
:10CC300019F802460B4600F0F3FAB4E70000F07F63
:10CC40000020704700200149704700BF0000F87FB6
:10CC50000B460146184601F0FFB900BF81F00041C4
:10CC600002E000BF83F0004330B54FEA41044FEAD1
:10CC7000430594EA050F08BF90EA020F1FBF54EA6C
:10CC8000000C55EA020C7FEA645C7FEA655C00F008
:10CC9000E2804FEA5454D4EB5555B8BF6D420CDDD9
:10CCA0002C4480EA020281EA030382EA000083EA5C
:10CCB000010180EA020281EA0303362D88BF30BDFC
:10CCC00011F0004F4FEA01314FF4801C4CEA113152
:10CCD00002D0404261EB410113F0004F4FEA0333B1
:10CCE0004CEA133302D0524263EB430394EA050F3C
:10CCF00000F0A780A4F10104D5F1200E0DDB02FAAB
:10CD00000EFC22FA05F2801841F1000103FA0EF23E
:10CD1000801843FA05F359410EE0A5F120050EF104
:10CD2000200E012A03FA0EFC28BF4CF0020C43FA35
:10CD300005F3C01851EBE37101F0004507D54FF042
:10CD4000000EDCF1000C7EEB00006EEB0101B1F592
:10CD5000801F1BD3B1F5001F0CD349085FEA3000D8
:10CD60004FEA3C0C04F101044FEA445212F5800FE3
:10CD700080F09A80BCF1004F08BF5FEA500C50F180
:10CD8000000041EB045141EA050130BD5FEA4C0C63
:10CD9000404141EB010111F4801FA4F10104E9D1EC
:10CDA00091F0000F04BF01460020B1FA81F308BFE3
:10CDB0002033A3F10B03B3F120020CDA0C3208DDAF
:10CDC00002F1140CC2F10C0201FA0CF021FA02F18A
:10CDD0000CE002F11402D8BFC2F1200C01FA02F1FA
:10CDE00020FA0CFCDCBF41EA0C019040E41AA2BF1F
:10CDF00001EB0451294330BD6FEA04041F3C1CDAE7
:10CE00000C340EDC04F11404C4F1200220FA04F006
:10CE100001FA02F340EA030021FA04F345EA0301B0
:10CE200030BDC4F10C04C4F1200220FA02F001FA72
:10CE300004F340EA0300294630BD21FA04F02946F4
:10CE400030BD94F0000F83F4801306BF81F480118D
:10CE50000134013D4EE77FEA645C18BF7FEA655C00
:10CE600029D094EA050F08BF90EA020F05D054EAD2
:10CE7000000C04BF1946104630BD91EA030F1EBFD7
:10CE80000021002030BD5FEA545C05D140004941DB
:10CE900028BF41F0004130BD14F580043CBF01F5CE
:10CEA000801130BD01F0004545F0FE4141F47001B4
:10CEB0004FF0000030BD7FEA645C1ABF194610468F
:10CEC0007FEA655C1CBF0B46024650EA013406BF90
:10CED00052EA033591EA030F41F4002130BD00BF4F
:10CEE00090F0000F04BF0021704730B54FF480640C
:10CEF00004F132044FF000054FF0000150E700BF8D
:10CF000090F0000F04BF0021704730B54FF48064EB
:10CF100004F1320410F0004548BF40424FF00001D8
:10CF20003EE700BF42004FEAE2014FEA31014FEA1B
:10CF300002701FBF12F07F4393F07F4F81F060516A
:10CF4000704792F0000F14BF93F07F4F704730B5D9
:10CF50004FF4607401F0004521F0004120E700BF6C
:10CF600050EA010208BF704730B54FF000050AE0F3
:10CF700050EA010208BF704730B511F0004502D5F4
:10CF8000404261EB41014FF4806404F132045FEAF6
:10CF9000915C3FF4DCAE4FF003025FEADC0C18BF9B
:10CFA00003325FEADC0C18BF033202EBDC02C2F191
:10CFB000200300FA03FC20FA02F001FA03FE40EA23
:10CFC0000E0021FA02F11444C1E600BF70B54FF023
:10CFD000FF0C4CF4E06C1CEA11541DBF1CEA135505
:10CFE00094EA0C0F95EA0C0F00F0DEF82C4481EA6D
:10CFF000030621EA4C5123EA4C5350EA013518BF8D
:10D0000052EA033541F4801143F4801338D0A0FB79
:10D0100002CE4FF00005E1FB02E506F00042E0FB26
:10D0200003E54FF00006E1FB03569CF0000F18BF2C
:10D030004EF0010EA4F1FF04B6F5007F64F54074D4
:10D0400004D25FEA4E0E6D4146EB060642EAC62167
:10D0500041EA55514FEAC52040EA5E504FEACE2ED4
:10D06000B4F1FD0C88BFBCF5E06F1ED8BEF1004FD7
:10D0700008BF5FEA500E50F1000041EB045170BD53
:10D0800006F0004646EA010140EA020081EA030197
:10D09000B4EB5C04C2BFD4EB0C0541EA045170BD93
:10D0A00041F480114FF0000E013C00F3AB8014F10D
:10D0B000360FDEBF002001F0004170BDC4F1000456
:10D0C000203C35DA0C341BDC04F11404C4F12005D7
:10D0D00000FA05F320FA04F001FA05F240EA020032
:10D0E00001F0004221F0004110EBD37021FA04F668
:10D0F00042EB06015EEA430E08BF20EAD37070BD22
:10D10000C4F10C04C4F1200500FA04F320FA05F080
:10D1100001FA04F240EA020001F0004110EBD37082
:10D1200041F100015EEA430E08BF20EAD37070BDF2
:10D13000C4F1200500FA05F24EEA020E20FA04F3CB
:10D1400001FA05F243EA020321FA04F001F000417A
:10D1500021FA04F220EA020000EBD3705EEA430EEB
:10D1600008BF20EAD37070BD94F0000F0FD101F01A
:10D170000046400041EB010111F4801F08BF013C53
:10D18000F7D041EA060195F0000F18BF704703F091
:10D190000046520043EB030313F4801F08BF013D18
:10D1A000F7D043EA0603704794EA0C0F0CEA1355D4
:10D1B00018BF95EA0C0F0CD050EA410618BF52EA8E
:10D1C0004306D1D181EA030101F000414FF0000094
:10D1D00070BD50EA410606BF1046194652EA4306A2
:10D1E00019D094EA0C0F02D150EA013613D195EA16
:10D1F0000C0F05D152EA03361CBF104619460AD15E
:10D2000081EA030101F0004141F0FE4141F4700167
:10D210004FF0000070BD41F0FE4141F4780170BD57
:10D2200070B54FF0FF0C4CF4E06C1CEA11541DBFBC
:10D230001CEA135594EA0C0F95EA0C0F00F0A7F8BE
:10D24000A4EB050481EA030E52EA03354FEA0131EB
:10D2500000F088804FEA03334FF0805545EA1313FE
:10D2600043EA12634FEA022245EA111545EA1065C6
:10D270004FEA00260EF000419D4208BF964244F15D
:10D28000FD0404F5407402D25B084FEA3202B61A7C
:10D2900065EB03055B084FEA32024FF480104FF450
:10D2A000002CB6EB020E75EB030E22BFB61A7546C4
:10D2B00040EA0C005B084FEA3202B6EB020E75EB57
:10D2C000030E22BFB61A754640EA5C005B084FEABF
:10D2D0003202B6EB020E75EB030E22BFB61A75468C
:10D2E00040EA9C005B084FEA3202B6EB020E75EB97
:10D2F000030E22BFB61A754640EADC0055EA060E58
:10D3000018D04FEA051545EA16754FEA06164FEA9A
:10D31000C30343EA52734FEAC2025FEA1C1CC0D146
:10D3200011F4801F0BD141EA00014FF000004FF0D3
:10D33000004CB6E711F4801F04BF01430020B4F194
:10D34000FD0C88BFBCF5E06F3FF6AFAEB5EB030C4C
:10D3500004BFB6EB020C5FEA500C50F1000041EB49
:10D36000045170BD0EF0004E4EEA113114EB5C0416
:10D37000C2BFD4EB0C0541EA045170BD41F48011E9
:10D380004FF0000E013C90E645EA060E8DE60CEAF1
:10D39000135594EA0C0F08BF95EA0C0F3FF43BAF0E
:10D3A00094EA0C0F0AD150EA01347FF434AF95EAC5
:10D3B0000C0F7FF425AF104619462CE795EA0C0FA9
:10D3C00006D152EA03353FF4FDAE1046194622E776
:10D3D00050EA410618BF52EA43067FF4C5AE50EA50
:10D3E00041047FF40DAF52EA43057FF4EBAE12E740
:10D3F0004FF0FF3C06E000BF4FF0010C02E000BF21
:10D400004FF0010C4DF804CD4FEA410C7FEA6C5C03
:10D410004FEA430C18BF7FEA6C5C1BD001B050EAA6
:10D42000410C0CBF52EA430C91EA030F02BF90EA91
:10D43000020F0020704710F1000F91EA030F58BF50
:10D44000994208BF90422CBFD8176FEAE37040F0B2
:10D45000010070474FEA410C7FEA6C5C02D150EA50
:10D46000013C07D14FEA430C7FEA6C5CD6D152EA0B
:10D47000033CD3D05DF8040B704700BF84461046D0
:10D4800062468C461946634600E000BF01B5FFF7CF
:10D49000B7FF002848BF10F1000F01BD4DF808ED9F
:10D4A000FFF7F4FF0CBF012000205DF808FB00BF70
:10D4B0004DF808EDFFF7EAFF34BF012000205DF8CA
:10D4C00008FB00BF4DF808EDFFF7E0FF94BF012017
:10D4D00000205DF808FB00BF4DF808EDFFF7CEFF18
:10D4E00094BF012000205DF808FB00BF4DF808ED57
:10D4F000FFF7C4FF34BF012000205DF808FB00BF28
:10D500004FEA410C7FEA6C5C02D150EA013C0AD13F
:10D510004FEA430C7FEA6C5C02D152EA033C02D131
:10D520004FF0000070474FF0010070474FEA410292
:10D5300012F5001215D211D56FF47873B3EB625265
:10D5400012D94FEAC12343F0004343EA505311F08C
:10D55000004F23FA02F018BF404270474FF000001E
:10D56000704750EA013005D111F0004008BF6FF05C
:10D57000004070474FF00000704700BF4A0011D2D2
:10D5800012F5001211D20DD56FF47873B3EB62521D
:10D590000ED44FEAC12343F0004343EA505323FA29
:10D5A00002F070474FF00000704750EA013002D19E
:10D5B0004FF0FF3070474FF0000070474FEA4102D4
:10D5C000B2F1E04324BFB3F5001CDCF1FE5C0DD9E1
:10D5D00001F0004C4FEAC0024CEA5070B2F1004F2B
:10D5E00040EB830008BF20F00100704711F0804F2E
:10D5F00021D113F13872BCBF01F00040704741F4F3
:10D6000080114FEA5252C2F11802C2F1200C10FAF6
:10D610000CF320FA02F018BF40F001004FEAC123DA
:10D620004FEAD32303FA0CFC40EA0C0023FA02F37E
:10D630004FEA4303CCE77FEA625307D150EA013354
:10D640001EBF4FF0FE4040F44000704701F0004024
:10D6500040F0FE4040F40000704700BF80F0004002
:10D6600002E000BF81F0004142001FBF5FEA4103BA
:10D6700092EA030F7FEA226C7FEA236C6AD04FEABA
:10D680001262D2EB1363C1BFD218414048404140FF
:10D69000B8BF5B42192B88BF704710F0004F40F4B1
:10D6A000000020F07F4018BF404211F0004F41F4CD
:10D6B000000121F07F4118BF494292EA030F3FD099
:10D6C000A2F1010241FA03FC10EB0C00C3F12003AC
:10D6D00001FA03F100F0004302D5494260EB40003B
:10D6E000B0F5000F13D3B0F1807F06D340084FEAA6
:10D6F000310102F10102FE2A51D2B1F1004F40EB9B
:10D70000C25008BF20F0010040EA03007047490002
:10D7100040EB000010F4000FA2F10102EDD1B0FACD
:10D7200080FCACF1080CB2EB0C0200FA0CF0AABFC2
:10D7300000EBC25052421843BCBFD0401843704760
:10D7400092F0000F81F4000106BF80F40000013266
:10D75000013BB5E74FEA41037FEA226C18BF7FEA3D
:10D76000236C21D092EA030F04D092F0000F08BF7F
:10D770000846704790EA010F1CBF0020704712F066
:10D780007F4F04D1400028BF40F00040704712F1A5
:10D7900000723CBF00F50000704700F0004343F00A
:10D7A000FE4040F4000070477FEA226216BF084640
:10D7B0007FEA23630146420206BF5FEA412390EA03
:10D7C000010F40F4800070474FF0000304E000BFF9
:10D7D00010F0004348BF40425FEA000C08BF7047AA
:10D7E00043F0964301464FF000001CE050EA01026E
:10D7F00008BF70474FF000030AE000BF50EA010283
:10D8000008BF704711F0004302D5404261EB41016F
:10D810005FEA010C02BF84460146002043F0B64394
:10D8200008BFA3F18053A3F50003BCFA8CF2083AB9
:10D83000A3EBC25310DB01FA02FC634400FA02FCC2
:10D84000C2F12002BCF1004F20FA02F243EB0200C9
:10D8500008BF20F00100704702F1200201FA02FC2B
:10D86000C2F1200250EA4C0021FA02F243EB02001E
:10D8700008BF20EADC7070474FF0FF0C1CEAD05262
:10D880001EBF1CEAD15392EA0C0F93EA0C0F6FD023
:10D890001A4480EA010C400218BF5FEA41211ED001
:10D8A0004FF0006343EA501043EA5111A0FB0131ED
:10D8B0000CF00040B1F5000F3EBF490041EAD371C2
:10D8C0005B0040EA010062F17F02FD2A1DD8B3F13E
:10D8D000004F40EBC25008BF20F00100704790F0AD
:10D8E000000F0CF0004C08BF49024CEA502040EAFF
:10D8F00051207F3AC2BFD2F1FF0340EAC2507047C5
:10D9000040F400004FF00003013A5DDC12F1190F02
:10D91000DCBF00F000407047C2F10002410021FA74
:10D9200002F1C2F1200200FA02FC5FEA310040F18C
:10D93000000053EA4C0308BF20EADC70704792F005
:10D94000000F00F0004C02BF400010F4000F013A3D
:10D95000F9D040EA0C0093F0000F01F0004C02BF38
:10D96000490011F4000F013BF9D041EA0C018FE7A7
:10D970000CEAD15392EA0C0F18BF93EA0C0F0AD0AD
:10D9800030F0004C18BF31F0004CD8D180EA0100D3
:10D9900000F00040704790F0000F17BF90F0004F6C
:10D9A000084691F0000F91F0004F14D092EA0C0F4E
:10D9B00001D142020FD193EA0C0F03D14B0218BFE1
:10D9C000084608D180EA010000F0004040F0FE4027
:10D9D00040F40000704740F0FE4040F440007047C3
:10D9E0004FF0FF0C1CEAD0521EBF1CEAD15392EA42
:10D9F0000C0F93EA0C0F69D0A2EB030280EA010C32
:10DA000049024FEA402037D04FF0805343EA1111CA
:10DA100043EA10130CF000408B4238BF5B0042F128
:10DA20007D024FF4000C8B4224BF5B1A40EA0C00CD
:10DA3000B3EB510F24BFA3EB510340EA5C00B3EBFF
:10DA4000910F24BFA3EB910340EA9C00B3EBD10FED
:10DA500024BFA3EBD10340EADC001B0118BF5FEA3F
:10DA60001C1CE0D1FD2A3FF650AF8B4240EBC25068
:10DA700008BF20F0010070470CF0004C4CEA502029
:10DA80007F32C2BFD2F1FF0340EAC250704740F478
:10DA900000004FF00003013A37E792F0000F00F06A
:10DAA000004C02BF400010F4000F013AF9D040EAE8
:10DAB0000C0093F0000F01F0004C02BF490011F47C
:10DAC000000F013BF9D041EA0C0195E70CEAD15374
:10DAD00092EA0C0F08D142027FF47DAF93EA0C0F5B
:10DAE0007FF470AF084676E793EA0C0F04D14B023F
:10DAF0003FF44CAF08466EE730F0004C18BF31F0F1
:10DB0000004CCAD130F000427FF45CAF31F00043EA
:10DB10007FF43CAF5FE700BF4FF0FF3C06E000BF83
:10DB20004FF0010C02E000BF4FF0010C4DF804CDA6
:10DB30004FEA40024FEA41037FEA226C18BF7FEAB6
:10DB4000236C11D001B052EA530C18BF90EA010FB8
:10DB500058BFB2EB030088BFC81738BF6FEAE17047
:10DB600018BF40F0010070477FEA226C02D15FEAE3
:10DB7000402C05D17FEA236CE4D15FEA412CE1D04F
:10DB80005DF8040B704700BF844608466146FFE716
:10DB90000FB5FFF7C9FF002848BF10F1000F0FBDF8
:10DBA0004DF808EDFFF7F4FF0CBF012000205DF8F1
:10DBB00008FB00BF4DF808EDFFF7EAFF34BF012076
:10DBC00000205DF808FB00BF4DF808EDFFF7E0FF0F
:10DBD00094BF012000205DF808FB00BF4DF808ED60
:10DBE000FFF7D2FF94BF012000205DF808FB00BFC3
:10DBF0004DF808EDFFF7C8FF34BF012000205DF8A5
:10DC000008FB00BF4FEA4002B2F1FE4F0FD34FF0C6
:10DC10009E03B3EB12620DD94FEA002343F0004399
:10DC200010F0004F23FA02F018BF404270474FF047
:10DC30000000704712F1610F01D1420205D110F0CE
:10DC4000004008BF6FF0004070474FF00000704781
:10DC500042000ED2B2F1FE4F0BD34FF09E03B3EB56
:10DC6000126209D44FEA002343F0004323FA02F082
:10DC700070474FF00000704712F1610F01D142026E
:10DC800002D14FF0FF3070474FF00000704700BFE7
:10DC90007BB972B90029BEBF00204FF0004106E0F9
:10DCA00008BF00281CBF6FF000414FF0FF3000F0AC
:10DCB000C9B9ADF1080C6DE904CE002909DB002BD0
:10DCC0001ADB00F04DF8DDF804E0DDE9022304B0D2
:10DCD0007047404261EB4101002B1BDB00F040F834
:10DCE000DDF804E0DDE9022304B0404261EB4101CC
:10DCF000524263EB43037047524263EB430300F02D
:10DD00002FF8DDF804E0DDE9022304B0404261EBC6
:10DD100041017047524263EB430300F021F8DDF804
:10DD200004E0DDE9022304B0524263EB4303704791
:10DD300053B94AB9002908BF00281CBF4FF0FF3172
:10DD40004FF0FF3000F07EB9ADF1080C6DE904CE64
:10DD500000F006F8DDF804E0DDE9022304B07047C6
:10DD60002DE9F0478C460E460446089D002B50D105
:10DD70008A4217466CD9B2FA82FEBEF1000F0BD070
:10DD8000CEF1200420FA04F401FA0EF644EA060C5F
:10DD900002FA0EF700FA0EF44FEA1749220CBCFB08
:10DDA000F9F01FFA87F809FB10C642EA064600FBA5
:10DDB00008F3B34209D9F61900F1FF3280F022814D
:10DDC000B34240F21F8102383E44F61AA2B2B6FBBB
:10DDD000F9F309FB136642EA064403FB08F8A04581
:10DDE00009D9E41903F1FF3280F00A81A04540F21D
:10DDF0000781023B3C44C8EB040443EA0040002195
:10DE0000002D62D024FA0EF400232C606B60BDE874
:10DE1000F0878B4207D9002D55D0002185E84100BD
:10DE20000846BDE8F087B3FA83F1002940F09080FE
:10DE3000B34202D3824200F2F880841A66EB0306F2
:10DE40000120B446002D40D085E81010BDE8F087D1
:10DE500012B90127B7FBF2F7B7FA87FEBEF1000F40
:10DE600035D1F31B4FEA17481FFA87FC0121B3FB9A
:10DE7000F8F0220C08FB103642EA06460CFB00F3D1
:10DE8000B34207D9F61900F1FF3202D2B34200F2D1
:10DE9000CE801046F61AA2B2B6FBF8F308FB136662
:10DEA00042EA06440CFB03FCA44507D9E41903F13C
:10DEB000FF3202D2A44500F2B5801346CCEB040435
:10DEC00043EA00409CE729462846BDE8F087CEF1AA
:10DED000200106FA0EF307FA0EF720FA01F94FEACD
:10DEE0001748CE4049EA0309B6FBF8FA4FEA19444D
:10DEF00008FB1A661FFA87FC44EA06430AFB0CF289
:10DF00009A4200FA0EF40AD9DB190AF1FF3180F0C7
:10DF100087809A4240F28480AAF1020A3B449B1A0D
:10DF20001FFA89F9B3FBF8F108FB113349EA0343FF
:10DF300001FB0CF69E4207D9DB1901F1FF326BD2CF
:10DF40009E4269D902393B449B1B41EA0A418EE754
:10DF5000C1F1200E22FA0EF48B40234320FA0EF773
:10DF600006FA01F44FEA134C26FA0EF63C43B6FBD0
:10DF7000FCF9270C0CFB19661FFA83F847EA0646E2
:10DF800009FB08F7B74202FA01F200FA01FA08D9D0
:10DF9000F61809F1FF3041D2B7423FD9A9F1020981
:10DFA0001E44F61BA0B2B6FBFCF40CFB146640EA60
:10DFB000064704FB08F8B84507D9FF1804F1FF30FD
:10DFC00028D2B84526D9023C1F4444EA0940C8EB90
:10DFD0000707A0FB02894F4544464E4614D329D07B
:10DFE00065B3BAEB040367EB060707FA0EFECB40F6
:10DFF000CF404EEA030385E888000021BDE8F087A2
:10E000001346F8E61046E0E6B8EB020469EB0306B7
:10E010000138E5E70446D8E7114695E78146C0E7B1
:10E020008A467CE7023B3C4448E708460AE7023858
:10E030003E442FE7C245E7D33E46D1E72946BDE837
:10E04000F08700BF704700BF0A22002102F0F6BC33
:10E050000A22002102F0F2BC13460A4601460220C1
:10E0600004F0F2BF014B1868704700BF689AFF1FA9
:10E0700070B50F4E0F4D761BB61018BF002405D09B
:10E08000013455F8043B9847A642F9D10A4E0B4D8E
:10E09000761B09F025FBB61018BF002406D001340A
:10E0A00055F8043B9847A642F9D170BD70BD00BF3A
:10E0B0000877010008770100207701000877010048
:10E0C00010B5044600F042F82044407800F0070004
:10E0D00010BD00BF10B5044600F038F82044407869
:10E0E00000F0030010BD00BF10B5044600F02EF88C
:10E0F0002044407800F0970010BD00BF10B50446E2
:10E1000000F024F82044407800F0440010BD00BF27
:10E11000034A044B1268506B002808BF184670472A
:10E12000689AFF1F6C9AFF1F044B054A1B685B6BC4
:10E13000002B08BF134693F828017047689AFF1F09
:10E140006C9AFF1FD0F8EC00704700BF08B5034B76
:10E150001868FFF7DDFFD0F8EC0008BD689AFF1FD4
:10E16000024B0146186800F00BB800BF689AFF1F09
:10E17000024B0146186805F0EDBF00BF689AFF1F0B
:10E180002DE9F04F01F10B05162D83B0064640F244
:10E190009F8035F0070500F1BF80A94200F2BC80E6
:10E1A00000F06EFBB5F5FC7FC0F09C826B0A00F0BE
:10E1B000BA80042B00F28381A80900F1390E4FEADE
:10E1C0004E033830C44F07EB8303A3F108015C68AA
:10E1D000A14207D1ACE0002A80F2AC80E468A14201
:10E1E00000F0A680636823F003035A1B0F2AF2DDB8
:10E1F000B9493C6901F1080E744500F0B3816368C8
:10E2000023F003035A1B0F2A00F39981002AC1F857
:10E2100014E0C1F810E080F29E80B3F5007F80F03A
:10E220006781DB0803F1010C01229B1002FA03F362
:10E230004A6851F83C80C4F8088001EBCC091A43C5
:10E24000A9F10803E3604A6041F83C40C8F80C407B
:10E25000831001249C40944200F28A80144206D12B
:10E2600020F003006400144200F10400FAD007EB30
:10E27000C009CC468046DCF80C108C4507D173E110
:10E28000002A80F28181C9688C4500F06D814B685D
:10E2900023F003035A1B0F2AF2DD0C46D1F80CC001
:10E2A00054F8088F4B1945F001054D6042F001010B
:10E2B000C8F80CC03046CCF808807B613B61C3F8DD
:10E2C0000CE0C3F808E059609A5000F0DBFA1FE058
:10E2D000102921D800F0D4FA1025062302207E4F01
:10E2E00007EB8303A3F108025C68944200F04581C8
:10E2F0006368E168A56823F00303234430465A6845
:10E30000E96042F001028D605A6000F0BBFA083407
:10E31000204603B0BDE8F08F00240C232046336074
:10E3200003B0BDE8F08F80234FF0400E3F2049E757
:10E3300070465DE72344E1685A68A56842F001022F
:10E34000E96030468D605A6000F09CFA083420463F
:10E3500003B0BDE8F08F234430465A6842F0010212
:10E360005A6000F08FFA0834204603B0BDE8F08F01
:10E37000BC68636823F00308A84504D3C5EB080311
:10E380000F2B00F38C80554BDFF860911A68D9F899
:10E39000003001332A4404EB080A00F0608102F5E2
:10E3A00080520F3222F47F6222F00F021146304673
:10E3B000019200F027FFB0F1FF3F8346019A00F081
:10E3C0005881824500F2FC80454B1968DA451144BA
:10E3D000196000F05381D9F80000DFF810E1013036
:10E3E0001BBFCAEB0B0A5144CEF800B019601BF0FA
:10E3F000070100F01781C1F10800C1F58051834485
:10E4000008315A44C2F30B02C2EB010949463046B7
:10E41000019300F0F7FE431C019B00F03F81CBEB22
:10E4200000024A4442F001021968C7F808B04944A2
:10E43000BC42CBF804201960DFF8A49016D0B8F1E4
:10E440000F0F40F2FD806268A8F10C0323F0070370
:10E45000E01802F001024FF0050E1A430F2B626024
:10E46000C0F804E0C0F808E000F21C811D4BBC6855
:10E470001A68914288BF19601B4B1A689142626802
:10E4800088BF196022F003029542A2EB050301D870
:10E490000F2B04DC304600F0F5F9002438E7621950
:10E4A00043F0010345F0010565603046BA605360F2
:10E4B00000F0E8F90834204603B0BDE8F08F142BD3
:10E4C00071D9542B00F2A480280B00F16F0E4FEA93
:10E4D0004E036E3076E600BFD89BFF1FFCA4FF1FE3
:10E4E00000A5FF1FF8A4FF1FF4A4FF1FE49FFF1F58
:10E4F0005A0A042A5ED9142A00F2B38002F15C01A0
:10E5000049005B3207EB810C57F82110DFF8DC8102
:10E51000ACF1080C8C4500F088804A6822F00302B8
:10E52000934202D289688C45F7D1D1F80CC07A6841
:10E53000C4F80CC0A160CCF80840CC6088E6631930
:10E5400042F0010745F00105656030464B610B6103
:10E55000C3F80CE0C3F808E05F609A50083400F09C
:10E5600091F9D5E64A6873E608F1010818F0030F3F
:10E570000CF1080C7FF47FAE30E0DC68A34208BFEA
:10E5800002303FF435AEB3E60B440C465A68C96816
:10E5900054F8085F42F001025A603046E9608D602D
:10E5A00000F070F9B4E603F15C0E03F15B004FEA92
:10E5B0004E0307E69A0902F1390149003832A1E712
:10E5C000BC424A4B3FF400AF9C68626822F00302F1
:10E5D0005AE759F80839994540F0828010F0030F46
:10E5E00000F1FF30F5D17B6823EA04037B6064000F
:10E5F0009C423FF6BDAE002C3FF4BAAE1C424046F2
:10E600007FF435AE64001C4200F10400FAD02EE61F
:10E61000B3F5AA7F18D8E80B00F1780E4FEA4E0345
:10E620007730CFE54FF48051EBE60121D8F8043084
:10E63000921001FA02F21A43C8F80420614677E703
:10E640000123CBF8043025E740F25452934220D8FE
:10E65000A80C00F17D0E4FEA4E037C30B2E510327B
:10E66000A4E6542A26D81A0B02F16F0149006E3233
:10E6700048E7BC68626822F0030205E7CAF30B00B2
:10E6800000287FF4A8AE4244BB6842F001025A6001
:10E69000ECE6FE234FF07F0E7E2093E501224FF043
:10E6A0000009C1E604F10801304605F053FDD9F830
:10E6B0000010DBE6B2F5AA7F05D8DA0B02F178018B
:10E6C000490077321EE740F254518A4205D89A0C2D
:10E6D00002F17D0149007C3214E7FE217E2211E720
:10E6E0007B6884E7E808431C5B00F8E5D89BFF1FC4
:10E6F00082B049B15AB16BB113780B601278101C1B
:10E7000018BF012002B0704701A9002AF3D11046BA
:10E7100002B070476FF00100F4E700BF8842F0B527
:10E720000DD98B1898420AD28118002A51D09A1A12
:10E7300013F8014D01F8014D9342F9D1F0BD0F2AB4
:10E7400048D941EA00039B0746D100F1100401F1CA
:10E750001003154653F8106C44F8106C53F80C6C09
:10E7600044F80C6C53F8086C44F8086C103D53F8EE
:10E77000046C44F8046C0F2D03F1100304F1100431
:10E78000E8D8A2F1100323F00F0302F00F0E1033AC
:10E79000BEF1030F1944034421D91E1F0D467446D0
:10E7A000043C55F8047B46F8047F032CF8D8AEF1FE
:10E7B000040424F0030404342344214402F003023B
:10E7C00062B1013B0A4411F8014B03F8014F8A4240
:10E7D000F9D1F0BD0346F3E70346F2E7F0BD724618
:10E7E000EEE700BF70B4840746D0541E002A41D023
:10E7F000CDB2034602E0621EE4B3144603F8015BA7
:10E800009A07F8D1032C2ED9CDB245EA05250F2C55
:10E8100045EA054519D903F110022646103E0F2E90
:10E8200042F8105C42F80C5C42F8085C42F8045C68
:10E8300002F11002F2D8A4F1100222F00F0204F04B
:10E840000F041032032C13440DD91E462246043AFD
:10E85000032A46F8045BFAD8221F22F0030204328E
:10E86000134404F003042CB1C9B21C4403F8011B87
:10E87000A342FBD170BC704714460346C2E700BFF9
:10E88000704700BF704700BF2DE9F04F154689B0B3
:10E8900002EB420206461F4653000793B2074FEAB7
:10E8A00095030391029355D1AB0753D1039BB5F167
:10E8B000040A18BF4FF0010A062B50D9039A5308D7
:10E8C000072A05FB036B40F00581079BF418BAF19A
:10E8D000000F40F01C813268DBF800103160CBF88B
:10E8E000002073194FF000095A19059304934B4601
:10E8F00006920192A1469B46019BC5EB0308444545
:10E900006AD25B46CB46002B00F01982049A039B27
:10E91000C2EB0801921B8A42A8BF0A4605FB0369A5
:10E92000002A40F01881CBEB0902C4EB0B04531B07
:10E93000A34228BF2346002B40F038818D42C0F00F
:10E940000281A54245D2B4FBF5F3C4EB0906B20738
:10E950000393A9D0039B062B4FF0020AAED805FB08
:10E96000036306EB05089845019332D26C422346B7
:10E9700054469A46464528D2C1460AE0D9F80030A6
:10E98000DBF80010C9F80010CBF800305E45D9461E
:10E990001BD209EB0A0B58464946B847002814DD3C
:10E9A000002CEBD0012C00F0148229465B46013983
:10E9B00099F8000093F800E009F801EB002903F84A
:10E9C000010BF4DC5E45D946E3D3019BA84498458E
:10E9D000D0D309B0BDE8F08F31464046B847002893
:10E9E0000DDC58E02368D9F800202260C9F8003017
:10E9F000C5EB09094FF0010B641B444581D3314637
:10EA00002046B847002814DBF6D1BAF1000FE9D050
:10EA1000BAF1010F20D029464A4623460139187819
:10EA200092F800E003F801EB002902F8010BF5DC95
:10EA3000DEE74445FFF465AFBAF1000F1BD1D8F80B
:10EA400000302168C8F800102360641B4FF0010BF0
:10EA5000019B2B4401934FE7029B48462146A64663
:10EA6000013B0A68046841F8044B002B40F8042B72
:10EA7000F6DC7446BCE7BAF1010F1ED029462346E6
:10EA8000013998F80020187808F8010B002903F8DC
:10EA9000012BF5DCD9E7DBD1BAF1000F40F0DE80C5
:10EAA000049AD8F8001013681160C8F80030049B6D
:10EAB0002B4404934FF0010BCAE7029B2046013B15
:10EAC000D8F80020016848F8041B002B40F8042BFC
:10EAD000F5DCBAE7039A541E282A05FB046478D8AB
:10EAE000A146B04659464046B847002849465846D0
:10EAF0001EDBB84700283FF7EAAE49464046B84714
:10EB000000281EDBCB46BAF1000F3FF4E4AEBAF1A9
:10EB1000010F00F0CF8029463246013913789BF867
:10EB2000000002F8010B00290BF8013BF5DCD8E6E8
:10EB3000B8470028FFF6CBAE49464046B847002804
:10EB4000E0DBC346C3E6B1FBF5F130463B462A465F
:10EB5000FFF79AFEF5E6BAF1020FC2EB080040F0AB
:10EB60008D80B646013A9EF8003090F800C00EF84D
:10EB700001CB002A00F8013BF4DCCBEB0902C4EB2B
:10EB80000B04531BA34228BF2346002B3FF4D6AEF1
:10EB9000C3EB0900013B98F8002090F800E008F86A
:10EBA00001EB002B00F8012BF4DCC7E6BAF1020FF1
:10EBB000C3EB0900EED09B088E46013BD8F800203D
:10EBC000016848F8041B002B40F8042BF5DC714663
:10EBD000B4E64FEAD20905FB09F306EB03080193FB
:10EBE000414608EB030930465B000593B84700280F
:10EBF00049464046C0F29780B847002840F302815A
:10EC0000019AC2EB0B03594618460BEB0209049319
:10EC1000B84700284946584676DBB847002840F3F5
:10EC2000E580059B019AE31A1A441146184691465D
:10EC30000493B84700282146484648DBB8470028D7
:10EC40003FF750AFDDF8109021464846B8474B4695
:10EC500013EA200338BF2346994643E7BAF1010F70
:10EC600045D0049B294601391A7898F8000003F82A
:10EC7000010B002908F8012BF5DC18E79208B646CD
:10EC80008C46013ADEF8003001684EF8041B002A79
:10EC900040F8043BF5DCCBEB0902C4EB0B04531B3F
:10ECA000A34228BF23466146002B3FF447AEC3EB87
:10ECB000090080E7029A3046013A0368DBF8001049
:10ECC00040F8041B002A4BF8043BF5DC09E6B84782
:10ECD0000028FFF607AFDDF8109021464846B847F8
:10ECE0004B4633EA200328BF23469946FAE60498A8
:10ECF000029B0268D8F8001040F8041B013B002B6F
:10ED000048F8042BF5DCD2E6B847002889DBDDF8AB
:10ED100010B049465846B8475B4633EA200328BF3F
:10ED20004B469B467DE7B8470028FFF669AF49464A
:10ED30003046B84736EA200828BFC84660E7039B3C
:10ED400005FB0364059B9C427FF643AE0194DDF80E
:10ED500014905446DDF818A0C5F100084E4512D2B3
:10ED600009EB080B58464946B84700280BDD8CB91B
:10ED7000D9F80030DBF80010C9F80010CBF80030EB
:10ED8000D9464E45ECD3019B5345D1467FF621AE83
:10ED9000AA44E3E7012C0ED029465B46013999F8D5
:10EDA000000093F800E009F801EB002903F8010BDB
:10EDB000F4DCD946E5E7029B5846013BD9F8002030
:10EDC000016849F8041B002B40F8042BF5DCD946F8
:10EDD000D7E7029B5846013BD9F80020016849F863
:10EDE000041B002B40F8042BF5DCCFE5DDF810B058
:10EDF00049465846B8475B4613EA200338BF4B469E
:10EE00009B460EE749463046B84739EA200828BFF6
:10EE1000B046F5E6024B0A460146186800F002B813
:10EE2000689AFF1F2DE9F04F174683B0002900F0C4
:10EE3000C1800E46814607F10B05FFF721FD56F80C
:10EE400004EC162D2EF00304A6F1080840D8102279
:10EE50001546AF4241D8944275DAC94B996808EB20
:10EE600004008842416800F0D98021F00103034486
:10EE70005B68DB077DD51EF0010F35D0394648466B
:10EE8000FFF77EF90746E0B156F8043C23F0010392
:10EE90004344A0F108029A4200F04481221F242A30
:10EEA00000F23181132A00F20481034632461168D0
:10EEB00019605168596092689A603146484605F079
:10EEC00049F94846FFF7DEFC384603B0BDE8F08F4D
:10EED00025F00705002D2A46BBDA0C230020C9F8CF
:10EEE000003003B0BDE8F08F56F8083CC3EB080AC9
:10EEF000DAF8043023F0030C04EB0C039342BDDB7F
:10EF00005746DAF80C1057F8080F221F242AC16060
:10EF1000886000F21781132A40F212813168CAF822
:10EF200008107168CAF80C101B2A00F22B810836F1
:10EF30000AF110023168116071685160B168916026
:10EF40003E461C46D046631B0F2B1DD8D8F8043014
:10EF500003F0010323434444C8F80430636843F0DA
:10EF6000010363604846FFF78DFC304603B0BDE8FF
:10EF7000F08F21F003012144914221DBC3688268B4
:10EF80000C46D3609A60DEE7D8F8042008EB050150
:10EF900002F00102154343F001020B44C8F804508B
:10EFA0004A605A6842F0010208315A60484605F04A
:10EFB000D1F8D7E7114603B0BDE8F04FFFF7E0B84E
:10EFC0001EF0010F7FF45AAF56F8083CC3EB080A55
:10EFD000DAF8043023F0030C01EB0C0E96458BDBC2
:10EFE000C36882685746D3609A6057F8081FDAF8FA
:10EFF0000C30CB60221F242A996000F29980132ADA
:10F0000062D93368CAF808307368CAF80C301B2A12
:10F0100000F2A08008360AF1100356E021F0030B3D
:10F02000A34405F11000834559DA1EF0010F7FF467
:10F0300025AF56F8081CC1EB080ADAF8041021F0D5
:10F04000030CE34458453FF757AF5746DAF80C1026
:10F0500057F8080F221F242AC160886000F2B4808C
:10F06000132A40F2A5803168CAF808107168CAF8FE
:10F070000C101B2A00F2AF8008360AF1100231682A
:10F08000116071685160B16891600AEB0501C5EBD0
:10F090000B0242F0010299604A60DAF8043003F092
:10F0A00001031D434846CAF80450FFF7EBFB3846FE
:10F0B0005CE733680360736843601B2A27D800F15C
:10F0C000080306F10802F2E63B4632681A607268ED
:10F0D0005A60B2689A603E467446D04633E708EB01
:10F0E0000501C5EB0B0B4BF0010299604A6056F825
:10F0F000043C03F001031D43484646F8045CFFF757
:10F10000C1FB304632E73146FFF708FBD5E6B3686E
:10F110008360F368C360242A28D000F1100306F14D
:10F120001002C4E650F8043C23F003031C440AE731
:10F13000314638467446D046FFF7F0FA3E4602E7BD
:10F140003A46F7E6314638461C46D046FFF7E6FA1F
:10F150003E46F8E6B368CAF81030F368CAF81430CF
:10F16000242A1BD010360AF11803AEE73369036175
:10F170007369436106F1180200F1180397E600BFB6
:10F18000D89BFF1FB168CAF81010F168CAF81410B4
:10F19000242A0FD010360AF11802CBE63369CAF8D8
:10F1A00018307369CAF81C3018360AF120038CE74E
:10F1B0003A4664E73269CAF818207269CAF81C2016
:10F1C00018360AF12002B5E6314638460193FFF7BA
:10F1D000A5FA019B59E7B168CAF81010F168CAF89E
:10F1E0001410242A03D010360AF1180247E73269B6
:10F1F000CAF818207269CAF81C2018360AF12002D1
:10F200003DE700BF38B5074C00230546084623609C
:10F21000FBF790F8431C00D038BD2368002BFBD0CF
:10F220002B6038BD50A5FF1F0CB4F0B5244B00294E
:10F230009DB01D683EDB4FF402730C4602900690B1
:10F24000ADF8143023AE17D04C1E229A04943346E6
:10F250004FF6FF7702A9284607940196ADF816707D
:10F2600001F002FC421C1BDB029B00221A701DB045
:10F27000BDE8F04002B0704733464FF6FF77229A60
:10F28000049402A9284607940196ADF8167001F07F
:10F29000EBFB431C07DB1DB0BDE8F04002B070473C
:10F2A0008B232B60E0E78B232B601DB0BDE8F04083
:10F2B00002B070478B232B604FF0FF30EBE700BFAD
:10F2C000689AFF1F0EB4F0B59CB021AC4FF40172E8
:10F2D00054F8046BADF814200290069000F070FA18
:10F2E0000C4B0194054632460B4F18680395234694
:10F2F0004FF6FF76002402A907950A970E941394FF
:10F30000ADF8166002F008FF1CB0BDE8F04003B095
:10F31000704700BF689AFF1F1DF300000020704770
:10F3200070B411F0FF0434D085070FD00378002BA0
:10F330005AD09C422BD0431C05E013F8012B002A25
:10F340004FD0944223D09A071846F6D10E0206F405
:10F350007F462643036846EA064601E050F8043F2C
:10F3600086EA0305A5F10132A3F1013122EA050283
:10F3700021EA0303134313F0803FEFD0037823B94E
:10F3800032E010F8013F002B2ED09C42F9D170BC26
:10F39000704784070BD00378002BF8D0431C03E0A0
:10F3A00002780133002AF2D099071846F8D1026892
:10F3B000A2F1013323EA020313F0803F08D150F891
:10F3C000042FA2F1013323EA020313F0803FF6D0A9
:10F3D0000378002BDBD010F8013F002BFBD170BC71
:10F3E0007047104670BC7047184670BC704700BF2D
:10F3F000FFFFFFFFFFFFFFFFFFFFFFFFFFFFFFFF1D
:10F40000A2EB0300704700BF02780B78012A28BFE7
:10F410009A42F5D16DE9044540EA0104CDE902675D
:10F420006FF0000C4FEA447212B380EA010414F04A
:10F43000070F6AD100F0070420F0070004F003056D
:10F4400021F007014FEAC505F0E8042314F0040F8A
:10F45000F1E804670CFA05F462EA040266EA0406BD
:10F460000AD063EA0403624667EA0407664603E0DB
:10F47000F0E80423F1E8046782FA4CF582EA060416
:10F48000A4FA8CF46CBB83FA4CF583EA0705A5FA61
:10F490008CF595B950E9022351E9026782FA4CF5DF
:10F4A00082EA0604A4FA8CF483FA4CF583EA070591
:10F4B000A5FA8CF52543DBD09CB92DBAB5FA85F4B5
:10F4C00024F0070427FA04F1DDE9026723FA04F3C4
:10F4D00003F0FF0001F0FF01FDE80445A0EB01008F
:10F4E000704724BAB4FA84F424F0070426FA04F12D
:10F4F000DDE9026722FA04F202F0FF0001F0FF01E9
:10F50000FDE80445A0EB0100704714F0030F3CD167
:10F5100010F0030428D150F8082B51F8083B82FA68
:10F520004CF582EA0305A5FA8CF55DB950F8042C78
:10F5300051F8043C82FA4CF582EA0305A5FA8CF5F1
:10F54000002DE8D02DBAB5FA85F424F0070423FA8B
:10F5500004F122FA04F202F0FF0001F0FF01FDE8DD
:10F560000445A0EB010070474FEAC40420F00300FB
:10F5700050F8082B21F0030151F8083B0CFA04F471
:10F5800062EA040263EA0403C9E710F003041AD034
:10F59000A1EB040120F00300E40750F8042B06D08F
:10F5A0000FD28B785FFAA2F4E41A06D12BB1CB7894
:10F5B0005FFAB2F4E41A00D11BB920465DF8104B93
:10F5C000704701F1040150F8042BCC0721F003012E
:10F5D00051F8043B48D824D222F07F4482FA4CF5FB
:10F5E00094EA1325A5FA8CF50AD165B951F8043BC4
:10F5F00084EA0204B4EB036F0ED150F8042BEBE75E
:10F600004FEA132355E035F07F454DD10878FDE8EA
:10F610000445C0F1000070474FEA126203F0FF0397
:10F6200047E002EA1C4482FA4CF594EA1345A5FA35
:10F630008CF50AD165B951F8043B84EA0204B4EBB5
:10F64000034F0CD150F8042BEBE74FEA134330E0A3
:10F6500015EA1C4528D10B884FEA124229E04FEAEF
:10F66000124203EA1C4324E002F0FF0482FA4CF544
:10F6700094EA1365A5FA8CF50AD165B951F8043BF3
:10F6800084EA0204B4EB032F09D150F8042BEBE712
:10F690004FEA13630DE015F0FF0F05D10B684FEA39
:10F6A000122223F07F4304E04FF00000FDE8044500
:10F6B000704712BA1BBA82FA4CF482EA0304A4FA25
:10F6C0008CF5B5FA85F402FA04F203FA04F34FEA72
:10F6D0001260FDE80445A0EB1360704780EA010268
:10F6E000844612F0030F4FD111F0030F32D14DF8C1
:10F6F000044D11F0040F51F8043B0BD0A3F101327B
:10F700009A4312F0803F04BF4CF8043B51F8043B8D
:10F7100016D100BF51F8044BA3F101329A4312F005
:10F72000803FA4F101320BD14CF8043BA24312F00C
:10F73000803F04BF51F8043B4CF8044BEAD0234609
:10F740000CF8013B13F0FF0F4FEA3323F8D15DF8BB
:10F75000044B704711F0010F06D011F8012B0CF883
:10F76000012B002A08BF704711F0020FBFD031F8FB
:10F77000022B12F0FF0F16BF2CF8022B8CF8002082
:10F7800012F47F4FB3D1704711F8012B0CF8012B05
:10F79000002AF9D1704700BFFFFFFFFFFFFFFFFF07
:10F7A000FFFFFFFFFFFFFFFFFFFFFFFFFFFFFFFF69
:10F7B000FFFFFFFFFFFFFFFFFFFFFFFFFFFFFFFF59
:10F7C00090F800F06DE9024520F007016FF0000CA1
:10F7D00010F0070491F820F040F049804FF0000449
:10F7E0006FF00700D1E9002391F840F000F1080024
:10F7F00082FA4CF2A4FA8CF283FA4CF3A2FA8CF35C
:10F800004BBBD1E9022382FA4CF200F10800A4FAC2
:10F810008CF283FA4CF3A2FA8CF3E3B9D1E9042316
:10F8200082FA4CF200F10800A4FA8CF283FA4CF34D
:10F83000A2FA8CF37BB9D1E9062301F1200182FA07
:10F840004CF200F10800A4FA8CF283FA4CF3A2FA0D
:10F850008CF3002BC6D0002A04BF04301A4612BA1B
:10F86000B2FA82F2FDE8024500EBD2007047D1E91E
:10F87000002304F00305C4F100004FEAC50514F0AD
:10F88000040F91F840F00CFA05F562EA05021CBF7E
:10F8900063EA050362464FF00004A9E7002A41D05D
:10F8A00040EA010313F00303F0B425D1032A23D95E
:10F8B00004680D68AC421FD1043A35D0A4F101357B
:10F8C00025EA040414F0803F31D1071D0D1D0DE021
:10F8D00057F8043B0E68A3F10134B34224EA030451
:10F8E0000AD1043A20D014F0803F23D1032A2946BC
:10F8F000384605F10405EBD803780C789C4202F1F8
:10F90000FF320CD182B114B916E06AB17BB110F8A4
:10F91000013F11F8014FA34202F1FF32F5D0181B4D
:10F92000F0BC7047104670471046F0BC7047184650
:10F93000F0BC70470020F3E72046F1E740EA0103FE
:10F940009B0770B42BD1032A29D90C4603462146C4
:10F9500054F8046BA6F1013525EA060515F0803F41
:10F9600006D1043A032A43F8046B2146EFD8A2B12A
:10F970000C781C70013A013301313CB16AB111F8C5
:10F98000014B03F8014B013A002CF7D12AB11A447C
:10F99000002103F8011B9A42FBD170BC704703465B
:10F9A000E5E700BF71B138B503460C46002501E01C
:10F9B000431C054618462146FFF7B2FC0028F7D144
:10F9C000284638BDFFF7ACBC2DE9F0410F46904604
:10F9D00005F0FCFB04460D46B8F1000F11D0C7F34B
:10F9E0000A53C3F16B03002B0BDD1B0503F17F559D
:10F9F000002405F5401522462B46FDF7E7FABDE841
:10FA0000F08120462946BDE8F08100BFFFFFFFFFDF
:10FA10002DE9F04F1D46A1B00023834628460E462F
:10FA200007921C9305F040F80024002382460068EA
:10FA3000CDE90434FFF7C4FE1B96814632461446D6
:10FA400012F8017B2D2F00F2B180DFE807F017AF2D
:10FA5000AFAFAFAFAFAFAF8383838383AFAFAFAF92
:10FA6000AFAFAFAFAFAFAFAFAFAFAFAFAFAF83AFD2
:10FA7000AFAFAFAFAFAFAFAFAF2DAF80079B4FF022
:10FA800000094FF0000A53B100230893079B1E6042
:10FA9000089B23B149460AF1004389469A464846E5
:10FAA000514621B0BDE8F08F00230893621C1B92E1
:10FAB0006778002FE2D0302F14467BD000230A94C1
:10FAC0000993A7F13003092B00F2DB834FF0000804
:10FAD000204645464446082CC8BF08EB880805EB7D
:10FAE000850300F1010007EB43031B90C4BF07EB44
:10FAF0004807A7F130080778D8BFA3F13005A7F170
:10FB00003003092B04F10104E5D9DAF800104A4664
:10FB1000FFF7C4FE00B300203B4681460746A246DD
:10FB2000652B00F0B280452B00F0AF800022002C46
:10FB300052D118B9099A002A00F0C7824FF0000983
:10FB40004FF0000A079B002BA2D01B9E9EE70123CB
:10FB50000893ABE71B9272E71B9B03EB09021B9216
:10FB600013F809300746A246A3F13002092A00F231
:10FB70007182411C1346002A00F06E8601290F4451
:10FB800018BF001905D100F063BE4D00844200F09B
:10FB9000AE840134611E082905EB8501F5DD102CCA
:10FBA000DCBF08EB88084FEA4808EFE70023302F56
:10FBB000089383D16378582B00F04783782B00F0AB
:10FBC000448301341B942778302FFAD0002FB5D00E
:10FBD00001230A94099374E7102CA2EB070328462B
:10FBE000A1460C93A8BF4FF01009FDF779F9BAF1BF
:10FBF000000F08BFA246B9F1090FCDE9040113DDDA
:10FC0000494B03EBC90353E91223FDF7DFF906461D
:10FC100040460F46FDF764F902460B46304639462A
:10FC2000FDF722F8CDE904010F2C00F385800C9B31
:10FC3000002B27D040F3F3840C9B162B00F3708429
:10FC4000394F07EBC307D7E90001DDE90423FDF7CE
:10FC5000BDF981468A4675E71BA8344904F03EFE8B
:10FC600000283FF40BAF1B9B3149013B1BA81B93A2
:10FC700004F034FE10B91B9B01331B932D4B0593ED
:10FC800000230493DDE9049A5CE7002C00F0D681A0
:10FC90001B9E731C1B9373782B2B00F0D3822D2B90
:10FCA00000F00B824FF0000CA3F13002092A00F2A1
:10FCB000C682302B05D11B9A01321B921378302B50
:10FCC000FAD0A3F13102082A3FF630AF1B9A0D9209
:10FCD000511C303B1B910C935378A3F1300EBEF1B5
:10FCE000090F0FD80C9A01311B9102EB820203EB32
:10FCF00042020B78A3F1300EBEF1090FA2F13002DF
:10FD0000F1D90C920D9A891A082900F301840C9AF2
:10FD100044F61F618A42A8BF0A46BCF1000F3FF4B7
:10FD200006AF524203E700BFE0750100F072010028
:10FD3000F47201000000F07F0C9BC9EB04099944A8
:10FD4000B9F1000F40F37A8319F00F010AD0B44BD8
:10FD500003EBC101D1E90001DDE90423FDF736F928
:10FD6000CDE9040139F00F0640F006820023099323
:10FD70000095234652460A99584604F099FF109080
:10FD8000002800F0D9820C9A0026002AC2F1000354
:10FD9000A8BF33460D9322EAE2730C933746B2466E
:10FDA000109C5846616804F013FF8046002800F05C
:10FDB00025832269023204F10C0192000C30FAF71B
:10FDC000BBF9DDE904341EA81DA9CDE90A341A46A1
:10FDD000019023460091584605F084FA1C900028B3
:10FDE00000F02F840121584604F0FCFF074600284C
:10FDF00000F004831D9A002AC0F228810D9B0C9DFF
:10FE00009E1809981E9B8749121A1A44013A8A4281
:10FE1000C3F1360380F2E780891A1F29A3EB01039F
:10FE200000F31B8101228A400F9200221192F418E4
:10FE30001D44099BA64232461D44A8BF2246AA4241
:10FE4000A8BF2A46002A02DDA41AAD1AB61A0D9BD5
:10FE5000BBB139461A46584605F066F807460028F1
:10FE600000F0CC8201461C9A584604F0C5FF0028D9
:10FE700000F0C4820E901C99584604F0CFFE0E9AF2
:10FE80001C92002C08DD22461C99584605F09CF86F
:10FE90001C90002800F0D5830C9B43B141460C9A7E
:10FEA000584605F041F88046002800F0A782002D52
:10FEB00008DD41462A46584605F086F88046002867
:10FEC00000F09C82002E08DD39463246584605F087
:10FED0007BF80746002800F0918242461C9958465C
:10FEE00005F0EAF88246002800F088820026C36800
:10FEF000C66039460E9305F0BFF8B042C0F2B88331
:10FF000000F007843946504605F048FA00224FF0C9
:10FF1000804304460D46FDF7D5FA002868D00E9BB5
:10FF2000002B00F0A280059B3F4D0F9699463E4B5B
:10FF3000119300243D4E3E4B4A4616409E4200F02F
:10FF4000D181099B33B3B6F1D46F23D8DDF8449047
:10FF50000F98494630A3D3E90023FDF7B3FAB0B1B7
:10FF60000F984946FDF70AFB002800F03583FCF79F
:10FF7000B7FF0F9011910E9B002B40F028830F9B31
:10FF80001493119B03F100431593DDE9144505F12A
:10FF9000D6639D1BDDE90A0105F018F902460B4600
:10FFA00020462946FDF712F8DDE90A23FCF75CFE3E
:10FFB000CDE904010C46099B23B91C4B23409E420A
:10FFC00000F0DE811C99584604F028FE4146584650
:10FFD00004F024FE3946584604F020FE51465846A7
:10FFE00004F01CFEDCE60022119201220F921EE7B3
:10FFF000104B204629460022FCF7E8FF0E9B0F908D
:020000021000EC
:100000001191002B54D101F1004312901393059BE1
:10001000DDE9124599468DE70000C0FFFFFFDF4193
:10002000E075010002FCFFFF0000F03F0000F07FE0
:100030000000E07F0000E03F4FF00109002842D1BE
:10004000099B002B3FF41AAD044621E60C9B0D9E44
:100050009D1AD6E64FF0010962E5BD4CA41A0122B3
:1000600002FA04F111910F92E1E6DDE90412002990
:1000700040F0C780C2F313039146002B40F0C780C5
:100080000022B44B20462946FDF712FA002840F022
:100090006283B14B204629460022FCF797FF01F10D
:1000A00000430F90189011911993DDE9184541E72D
:1000B0000F9A119BCDE91223A9E74FF0010CB31C55
:1000C0001B93B378F0E50024E2E5B9F1000F7FF46B
:1000D000D5AC493B252B3FF6D1AC01A252F823F019
:1000E00059FC00007DFA00007DFA00007DFA000056
:1000F0007DFA00001D0201007DFA00007DFA00007B
:100100007DFA00007DFA00007DFA00007DFA000013
:100110007DFA00007DFA00007DFA00007DFA000003
:100120007DFA00007DFA00007DFA00007DFA0000F3
:100130007DFA00007DFA00007DFA00007DFA0000E3
:100140007DFA00007DFA00007DFA00007DFA0000D3
:100150007DFA00007DFA00007DFA00007DFA0000C3
:1001600059FC00007DFA00007DFA00007DFA0000D5
:100170007DFA00001D020100B6F59A7F00F3DC80D5
:100180003611012EDFF8F49140F30283DDE904011A
:1001900000234F46984616F0010F08F101084FEA78
:1001A000660604D0D7E90023FCF710FF0123012ED7
:1001B00007F10807EFD1002B40F05C83059BA3F10A
:1001C0005473059309EBC808DDE90423D8E900015D
:1001D000FCF7FCFE21F000431B0D604A1B05934217
:1001E000CDE9040100F2A880A2F58012934240F20A
:1001F000BB825B4B0593002309934FF0FF330493BD
:10020000B6E5DDE90412012900F0EA8191460023F8
:100210000F93504B534D119300248BE61BA852496A
:1002200004F05CFB00283FF429AC1B9B1B78282BB7
:1002300000F0FC824D4B05930023049322E51B96AE
:10024000002274E44FF0000C39E7089A02951CABC9
:1002500001920093464A1DAB1BA9584604F0B6F81C
:1002600010F0070605463FF469AC062E40F0748195
:10027000013400231B944FF000094FF0000A08934B
:1002800060E4DAF8001020464A46FFF707FB48B161
:100290004FF0000A3B46D046554650465746544616
:1002A000D1463DE41B9B03EB09021B9213F8093076
:1002B000302B06D101321B921378302B00F1010054
:1002C000F8D0A3F13102082A40F29A814FF0000AD7
:1002D000652BD046554657463FF4AEAE54464FF0D8
:1002E000010920E4A9F154730593DDE904231046C4
:1002F000194604F06BFF02460B4620462946FCF7E0
:1003000065FEDDE90423FCF7AFFC21F00043CDE9F5
:1003100004011B0D174ADDE90A011B059342CDE9D3
:10032000160140F2F8800E4B994264D00C4B0593B5
:100330004FF0FF33049345E60F4B05930022222331
:100340000492DDE9049ACBF80030FFF7FBBB00BF55
:10035000E2FBFFFF0000F03F0000E03F0000A07C58
:10036000FFFFEF7F0000F0BFFC7201000000F8FF0C
:1003700040730100FFFF9F7C0000F07FB876010012
:100380000F9E119D30462946FDF7D0F8FCF7B8FDC9
:100390000B46024629463046FCF764FC0E9B054698
:1003A0000E46002B36D1049B002B33D1C4F313042B
:1003B00084BBA5A3D3E90023FDF77AF800283FF416
:1003C00001AE5646DDE9049A1C980146584604F0F1
:1003D00025FC4146584604F021FC3946584604F0B5
:1003E0001DFC1099584604F019FC3146584604F09B
:1003F00015FCFFF7A7BB169B013397D156461C98F7
:10040000974B0593002222230492DDE9049ACBF84E
:100410000030DAE78EA3D3E9002328463146FDF702
:1004200047F80028CDD1284631468BA3D3E90023D5
:10043000FDF75CF800283FF4C5ADC2E73FF496AC89
:10044000C9F1000616F00F020AD0864B03EBC20377
:10045000DDE90401D3E90023FCF7E2FECDE9040164
:1004600036113FF483AC1F2E38DC16F0100300F079
:10047000C2816A23002E099313DDDDE904017A4F5E
:100480000023F20704D5D7E90023FCF79FFD0123E1
:10049000761007F10807F4D1002B40F0EE81099B9C
:1004A0009BB1DDE90412C2F30A53C3F16B03002BC5
:1004B00011460ADD1F2B40F3A6810022342B049243
:1004C00040F3D0814FF05C73059300220023DDE9F7
:1004D0000401FCF7E3FF00283FF44AAC2223CBF8E9
:1004E00000304FF000094FF0000AFFF72BBB1B99BB
:1004F0000134082840F38D80102CDCBF08EB8808FD
:1005000002EB480800204B1C1B934B78FFF72CBBD9
:1005100044F61F6201E4059B03F1547405944AE517
:100520000C9EC4F125039E423FF706AC4D4DC4F12D
:100530000F0405EBC401341BDDE90423D1E90001FC
:1005400005EBC405FCF742FDD5E90023FCF73EFDB1
:1005500081468A46FFF7F6BA1C9A3AB135211EA8A1
:1005600004F046FF58461C9904F058FB062E0BD8A1
:10057000DFE806F0291D1813041D29006FF0004361
:1005800005934FF0FF33049329077FF57BAB059B61
:1005900043F000430593FFF775BB314B05930023F0
:1005A0000493F1E71E9B04931F9B0593ECE71D9AB0
:1005B0001F9B1E99049102F2334223F4801343EAF5
:1005C00002530593E0E7002305930493DCE70F9AB9
:1005D000119BCDE91423D8E4244A11920F90CAE468
:1005E000DDE904129146002A7FF411AE564622231B
:1005F000CBF800301C984FF000094FF0000AE4E6F9
:100600001B9A0A920025303B471C1146AA46A84671
:10061000012405EB850503EB4505002073E70C99E4
:1006200011F1160FFFF688AB0E4AA2EBC102D2E918
:100630000023DDE90401FCF7F3FD81468A46FFF75C
:1006400081BA5646DCE600BF9535A094FFFFCF3F48
:100650009535A094FFFFDF3F35E5AF350000E03F63
:100660000000F07FE0750100187301000000F03F0A
:100670000E9B5646DDE90A9A7BBBDDE9041261BB9D
:10068000C2F31303144643BB22F000431B0D1B05AA
:10069000B3F1D66F21D9736913B93369012B1CDD0E
:1006A00031460122584604F08FFC3946064604F0D4
:1006B000E3FC002811DD099B002B40F0AC80704B5F
:1006C0002340A3F580136FEA13536FEA0353059396
:1006D0004FF0FF330493DDE9049A099BBBB1694BEA
:1006E000179300231693DDE9162348465146FCF77D
:1006F0006DFC03460C4681468A46CDE9043431B987
:10070000049B23B922231C98CBF800305DE61C988B
:100710005BE60E9B5646DDE90A9A53B3DDE90445D4
:10072000594BC5F3130199422A4646D0119B53B346
:10073000059A1342D1D00E9B099ADDE9040153B307
:10074000FFF742F902460B4648465146FCF78CFA41
:1007500081468A46C1E74D4B4D4C11930023CDE9AC
:1007600018340E9B0F93A0E401F154730593FFF727
:10077000FDBADDE90412C2F313031446002BD5D1F0
:100780000029D3D197E70F9B049A1342A5D0D2E753
:100790004FF0000812E5FFF717F902460B464846EE
:1007A0005146FCF75FFA0022002381468A46FCF797
:1007B00075FE00287FF41BAF8FE7099B0499FBB1FE
:1007C0002F4B2B40B3F1D46F1AD81B0DC3F16B0321
:1007D0004FF0FF3000FA03F38B42A7D12D498A4234
:1007E0003DD0274B134003F580130593002304935A
:1007F000DDE9049A71E7002E09933FF73EAE64E607
:100800004FF0FF33E8E74FF0FF3202FA03F3049AA8
:100810001A40049259E61A4B2340B3F1D66F3FF7C2
:1008200050AFB3F15C7F3FF75AAFE0E61BA81EAABA
:10083000194904F06BF805287FF4FCAC1F9B43F0CA
:10084000FF4343F4E00305931E9B0493FFF71ABA9A
:1008500020461B9901344CE608461B9953E60133A8
:10086000BFD1CCE5203B4FF0FF3202FA03F30B403F
:1008700005932AE6CDE90401A0E4CDE904010EE6E2
:100880000000F07F00005039FFFF0F000000E03F44
:100890000000E0BFFFFFEF7F00730100054B1B6806
:1008A00010B45B6B044C002B08BF234610BCFFF751
:1008B000AFB800BF689AFF1F6C9AFF1F064B30B499
:1008C0001C68064D636B0A46002B08BF2B46014689
:1008D000204630BCFFF79CB8689AFF1F6C9AFF1F38
:1008E0002DE9F84FDDF828900F46804616461D4644
:1008F0008B4600E0A3465C46484614F801ABFDF782
:1009000021FC5044417801F0080101F0FF0C00295E
:10091000F0D152462D2A61D02B2A04BF9BF801202A
:100920000BF10204002D43D0102D65D0A946BCF177
:10093000000F0CBF6FF0004A4FF0004A0021BAFBD5
:10094000F9FE084609FB1EAA05E029D009FB003084
:10095000012114F8012BA2F13003092B05D9A2F1D2
:100960004103192B0AD8A2F137039D420EDD4A1C20
:10097000EFD08645E9D24FF0FF31EAE7A2F16103FB
:10098000192B03D8A2F157039D42F0DC4B1C15D064
:10099000BCF1000F10D14EB1E1B93760BDE8F88F5E
:1009A0009A45D3DA70464FF0FF31D2E7BDE8F88FB1
:1009B000302A1AD00A25B9E74042ECE7BCF1000F13
:1009C0004FF022030CBF6FF000404FF00040C8F81A
:1009D0000030F6B1671E3760BDE8F88F0BF10204F6
:1009E0009BF801204FF0010C9CE7237803F0DF0314
:1009F000582B08D0082599E7302A97D1237803F09F
:100A0000DF03582B92D14FF0100962784D46023423
:100A10008DE7BDE8F88F00BF30B5064C064D246861
:100A2000646B83B0002C08BF2C460094FFF758FF7E
:100A300003B030BD689AFF1F6C9AFF1F30B5084C99
:100A4000084B25686C6B83B0002C08BF1C460094D3
:100A500013460A4601462846FFF742FF03B030BD61
:100A6000689AFF1F6C9AFF1F2DE9F04FC1B00C462A
:100A7000099115460E930A9004F018F8036817932D
:100A80001846FEF79DFEA38916901E0603D523691E
:100A9000002B01F01A8100231A4612932593249308
:100AA00019930B93DFF864A4149230AB2393994607
:100AB0001592A84698F800304446EBB1252B02D198
:100AC0001AE0252B03D014F8013F002BF9D1C8EB15
:100AD00004058DB1249B259AC9F8008001332A446E
:100AE000072BC9F804502592249300F3A68009F13E
:100AF00008090B9B2B440B932378002B00F0A68056
:100B000000231A468DF86F3019460C9307934FF067
:100B1000FF3B637804F101085D4608F10108A3F189
:100B20002000582800F22584DFE810F08803230411
:100B30002304900323042304230423042304230411
:100B40009703A50323045D00E2002304FE000501D2
:100B50000501050105010501050105010501050165
:100B6000230423042304230423042304230423044D
:100B70002304230415018102230481022304230496
:100B800023042304C60223042304CD0223042304E4
:100B9000230423042304F70223042304250323044A
:100BA000230423042304230423042304230423040D
:100BB00023046603790381028102810281037903A0
:100BC00023042304D1032304DB03A3006400EE0306
:100BD0002304F5032304AA0323042304BC030C9871
:100BE0000E9340420C90079B43F00403079398F840
:100BF000003092E70E98AB46002104688DF86F1024
:100C0000071D0798302378228B458DF870304FF000
:100C100000058DF8712040F00203C0F2C78320F078
:100C2000800343F00203079354EA05030E9700F094
:100C300093830F461192B348CEE223AA09990A98EA
:100C400004F042FF48B90DF1C00952E7259B23B1DA
:100C50000A98099923AA04F037FF099B9B8913F08E
:100C6000400F0B9B18BF4FF0FF33184641B0BDE853
:100C7000F08F1193AB46002A41F03382079A12F0AD
:100C8000200300F02E820E9F073727F0070300276E
:100C900003F10801BB450E91D3E900458DF86F7053
:100CA000C0F2798722F08003079354EA050300F02D
:100CB000758330AEE20842EA4572E90804F00703A2
:100CC0000D461446303354EA050206F8013DF1D1D1
:100CD000079AD10740F18480302B00F081803022C8
:100CE000731E06F8012C30AAD21A0D921E467AE025
:100CF00098F800302A2B08F1010401F0B981A3F122
:100D00003000092898BF002501F26C8114F8013BDE
:100D100005EB850500EB4505A3F130000928F5D961
:100D200045EAE575A046FAE6079B43F08003079382
:100D300098F80030F1E6A3F1300000231C4618F8C3
:100D4000013B04EB840400EB4404A3F130000928C8
:100D5000F5D90C94E3E61193AB46002A41F0AB8140
:100D6000079B43F010030793079B980640F13085DB
:100D70000E9F073727F00707D7E9002307F108017F
:100D80000E9114461D46002A73F10003C0F25B85E4
:100D9000BBF1000F9DF86F70C0F23885079B23F000
:100DA0008003079354EA050300F0DB81002D08BFA0
:100DB0000A2CC0F0DB8130AE204629460A220023EF
:100DC000FCF7B6FF303206F8012D204629460023F5
:100DD0000A22FCF7ADFF04460D4654EA0503EBD1A9
:100DE00030AB9B1B0D930D9B5B45B8BF5B460893D7
:100DF0000023139317B1089B01330893079B13F04B
:100E000002030F9302D0089B02330893079B13F051
:100E10008403109340F0D7820C9B089A9D1A002DF2
:100E200040F3D182102D2599249A374F27DD18964B
:100E300048461024B946099E2F460A9D04E0103FFB
:100E4000102F00F1080016DD01322F4B24921031D3
:100E5000072A259180E81800F1DD23AA31462846AB
:100E600004F032FE00287FF4F8AE103F102F2599D1
:100E7000249A30A8E8DC189E3D464F468146013250
:100E80006C18072A25942492C9F80070C9F80450F8
:100E900000F328849DF86F7009F1080977B1249B4D
:100EA000013301340DF16F010122072B25942493A6
:100EB00089E8060000F3A08309F108090F9B6BB1D4
:100EC000249B013302341CA90222072B259424936E
:100ED00089E8060000F39C8309F10809109B802B28
:100EE00000F0D5820D9BC3EB0B07002F39DD074ABD
:100EF000249B0F92102F28DD22464FF0100B0A9DE5
:100F0000099C0AE07473010090730100547301009E
:100F1000103F102F09F1080916DD01331032072B9D
:100F20002592249389E8000CF2DD23AA2146284665
:100F300004F0CAFD00287FF490AE103F102F259AD0
:100F4000249B0DF1C009E8DC144601330F9A249369
:100F50003C44072B259489E8840000F3418309F180
:100F60000809079BDA0500F13082249B0D99C9F826
:100F7000006001330C44072B2594C9F80410249316
:100F800000F3188309F10809079B59073FD50C9B0B
:100F9000089A9D1A002D3ADD102D249BBC4F23DDAD
:100FA00022461026DDF828B0099C04E0103D102DE3
:100FB00009F1080917DD0133B54924931032072BD5
:100FC000259289E84200F1DD23AA2146584604F023
:100FD0007BFD00287FF441AE103D102D259A249B07
:100FE0000DF1C009E7DC144601332C44072B25948E
:100FF0002493C9F80070C9F8045008DD23AA0999A0
:101000000A9804F061FD00287FF427AE259C0B9B15
:101010000C9A08998A42ACBF9B185B180B93002C62
:1010200040F0D482002324930DF1C00942E51193CE
:10103000AB46002A41F051800E9F073727F0070387
:1010400003F108020E921A6814925B681593159BBF
:10105000149D23F00044284621464FF0FF328D4B6B
:10106000FCF74EFA002840F0C284284621464FF093
:10107000FF32884BFCF726FA002840F0B884149819
:10108000159900220023FCF713FA002840F04F873F
:101090009DF86F70804E814B079921F08001079178
:1010A000119903224FF0000B08924729D8BF1E4622
:1010B0000D92CDF84CB09DE6079B43F008030793D3
:1010C00098F8003029E51193AB46002A41F01180D1
:1010D000079B43F010030793079A12F020037FF455
:1010E000D2AD079911F0100200F02C850E988DF802
:1010F0006F30BBF1000F046800F104074FF00005EA
:10110000C0F248850A4622F08002079254EA05029E
:101110000E9700F043811F46CBE51193AB46002AA2
:1011200040F0E387079B43F010030793079A12F000
:10113000200300F032830E9F073727F007030027B4
:1011400003F10801BB450E91D3E900458DF86F709E
:10115000C0F25C8322F08003079354EA05037FF416
:1011600025AEBBF1000F00F0FE80002440AE30340D
:1011700006F8414D34E61193AB46002A40F09787BC
:10118000079B47489D0640F197800E9F073727F041
:101190000703D3E9004503F108020E92079A12F003
:1011A000010700F0418254EA050300F005859DF82F
:1011B00044208DF871200027079A8DF86F70302336
:1011C000BB458DF8703042F00203C0F2B58622F0C4
:1011D000800343F00203079330AE230904F00F01AC
:1011E00043EA05732A091C461546435C06F8013D8F
:1011F00054EA0503F1D1F3E50E9911930A688DF8CD
:10120000982000230A461F468DF86F3004320123D0
:101210000893BB4613970E920D9326AEEEE51193FD
:10122000AB46002A3FF4A0AD8DF86F109CE5079BFC
:1012300043F04003079398F800306EE498F80030CC
:1012400000297FF46AAC0122202166E4079B43F069
:101250000103079398F800305FE40E9C23680C9319
:1012600018460028234603F10403FFF6B8AC0E939A
:1012700098F8003051E498F8003001222B214CE41A
:101280001193AB46002A3FF451AF8DF86F104DE734
:1012900090730100FFFFEF7F68730100647301002A
:1012A000D06C01001193AB46002A40F02A87079BBF
:1012B00099489D063FF569AF079BDC0640F13584F0
:1012C0000E9A1346043314680E93002566E798F8C7
:1012D00000306C2B00F0E284079840F0100007907B
:1012E0001BE4002A40F00987079B9B0640F1068417
:1012F0000E9A0B991368CD170846043229460E92B0
:10130000C3E90001FFF7D6BB079B43F02003079317
:1013100098F8003001E40E9A1193166800248DF8B5
:101320006F40171D002E00F0CD85002DC0F21885EE
:101330002A462146304603F0FBFB002800F02A86AF
:10134000831B0D93A34623EAE3730E970893CDF80E
:101350004CB09DF86F704DE56F481192BBF1000FD6
:1013600040F073815F464FF0000BCDF834B030AEE3
:1013700039E51193002A40F0AC86119A002A3FF417
:1013800065AC002301211F4608918DF898208DF847
:101390006F309B4613930D9126AE2FE5BBF1000FE6
:1013A00000F0038600270024002582E45A480793B2
:1013B000119254EA05030E974FF000077FF40CAF2B
:1013C0000024002508E7259C68E5119B652B40F368
:1013D000A9801498159900220023FCF75FF80028D3
:1013E00000F03581249B4D4AC9F8002001330134B7
:1013F0000122072B25942493C9F8042000F3E883E5
:1014000009F108091D9B129A934203DB079BDB0736
:101410007FF5BAAD249B1699179AC9F800200133BD
:101420000C44072B2594C9F80410249300F340843E
:1014300009F10809129B5D1E002D7FF7A5AD384A02
:10144000249B0F92102D40F3E68110260A9FDDF8B1
:1014500024B005E009F10809103D102D40F3DB81AF
:1014600001331034072B25942493C9F800A0C9F840
:101470000460EFDD23AA5946384604F025FB002816
:101480007FF4EBAB259C249B0DF1C009E4E70C9B9A
:10149000089A9F1A002F7FF725AD214A249B0F92AF
:1014A000102F2BDD4A462146B946102537460A9CA7
:1014B000099E06E0A9F11009B9F1100F02F1080226
:1014C00018DD01331031072B25912493C2F800A0B9
:1014D0005560EFDD23AA3146204604F0F5FA0028D6
:1014E0007FF4BBABA9F11009B9F1100F2599249B2A
:1014F00030AAE6DC3E460C464F46914601330F9A31
:1015000024933C44072B259489E8840000F345820A
:1015100009F10809E6E400BF7473010028650100C1
:1015200054730100129B249D012B40F30882013566
:1015300001340123072D25942495C9F80060C9F8CA
:10154000043000F30D8209F10809169A179BC9F8B7
:10155000003001351444072D25942495C9F8042042
:1015600000F30E8209F1080900231498159900224E
:10157000FBF794FF129B002840F0C380013B01352C
:1015800001361C44072D24952594C9F80060C9F83C
:10159000043000F3F58009F10809199AC9F804200C
:1015A000013514441FAB072D25942495C9F800304C
:1015B0007FF7E8AC23AA09990A9804F085FA002875
:1015C0007FF44BAB259C0DF1C009DDE423AA0999FA
:1015D0000A9804F079FA00283FF424ADFFF73DBBE8
:1015E00023AA09990A9804F06FFA00287FF435AB12
:1015F000259C0DF1C009B4E423AA09990A9804F0C6
:1016000063FA00287FF429AB259C0DF1C00955E44D
:1016100023AA09990A9804F057FA00287FF41DAB11
:10162000259C0DF1C00959E4BBF1000F8DF86F70D6
:10163000C0F2DA8222F08003079354EA05037FF4B4
:10164000CBADBBF1000F3FF48DAE0027B8E61D9D7A
:10165000002D40F3CC82139B129A9342A8BF1346ED
:10166000002B1D460DDD249BC9F8006001332C447E
:10167000072B2594C9F80450249300F3A38309F1A0
:101680000809139B002DA8BF5B1B002B1D4640F3D0
:10169000F680BA4A249B0F92102D40F38082224696
:1016A0001027DDF828B0099C05E009F10809103D74
:1016B000102D40F3738201331032072B25922493AF
:1016C000C9F800A0C9F80470EFDD23AA21465846E6
:1016D00004F0FAF900287FF4C0AA259A249B0DF1A2
:1016E000C009E4E723AA09990A9804F0EDF9002853
:1016F0007FF4B3AA9DF86F70259C0DF1C009FFF728
:10170000CDBB5E1E002E7FF748AF9C4B0F93102E73
:101710002CDDCDF834801027B046DDF828B0099EC6
:1017200006E0A8F11008B8F1100F09F108091ADD58
:1017300001351034072D25942495C9F800A0C9F867
:101740000470EEDD23AA3146584604F0BDF90028A6
:101750007FF483AAA8F11008B8F1100F259C249DEE
:101760000DF1C009E4DC4646DDF834800F9B0135FD
:101770003444072D2594249589E848007FF70BAF62
:1017800023AA09990A9804F09FF900287FF465AA12
:10179000259C249D0DF1C009FFE6079911F0100268
:1017A00000F008810E988DF86F30BBF1000F0468CF
:1017B00000F104074FF0000526DB0A4622F0800204
:1017C000079254EA05020E971F467FF4EFAAC8E479
:1017D000079BD9062AD4079B5A0627D50E99B1F93B
:1017E00000400431E51722462B460E91FFF7CBBA95
:1017F0000E998DF86F30BBF1000F0C6801F10407F2
:101800004FF0000580F245820E971F4654EA05030B
:101810007FF4CCAAAAE401330F9A24932C44072B1B
:10182000259489E824007FF7ADABC3E60E9A1468CF
:1018300013460433E51722460E93002A2B4673F114
:101840000003BFF6A5AA64424FF02D0765EB4505DE
:10185000BBF1000F8DF86F70FFF6A8AA079B23F06D
:1018600080030793FFF7A2BA23AA09990A9804F004
:101870002BF900287FF4F1A9259C0DF1C009139ADA
:101880001D9B32441746129A934247DB079AD507AD
:1018900044D412990E44F51BCB1A9D42A8BF1D4695
:1018A000002D2E460DDD249AC9F8007001322C441B
:1018B000072A2594C9F80450249200F3128309F1F1
:1018C0000809002EACBF9D1B1D46002D7FF75CABA9
:1018D0002A4A249B0F92102D9DDD10260A9FDDF8C9
:1018E00024B004E009F10809103D102D93DD013307
:1018F0001034072B25942493C9F800A0C9F804607C
:10190000F0DD23AA5946384604F0DEF800287FF4BB
:10191000A4A9259C249B0DF1C009E5E7249A1698FB
:101920001799C9F8001001320444072A2594C9F810
:101930000400249200F3A58209F10809A9E7079B96
:10194000D8073FF5F4AD013501340123072D259467
:101950002495C9F80060C9F804307FF71CAE0FE782
:1019600023AA09990A9804F0AFF800287FF475A912
:10197000259C249D0DF1C009E7E500BF54730100CB
:1019800023AA09990A9804F09FF800287FF465A912
:10199000259C249D0DF1C009E6E523AA09990A9822
:1019A00004F092F800287FF458A9259C0DF1C00995
:1019B000FFF798BA079911F040033FF419AF0E985A
:1019C0008DF86F200346BBF1000F03F10403048878
:1019D0004FF00005C0F2B98121F08001079154EA6F
:1019E00005010E9317467FF4E1A9FFF7BABB149CDB
:1019F00022462046159C23462146FBF781FD002800
:101A000040F01583119BBBF1FF3F23F020030D93A2
:101A100000F07682472B00F09281079B43F480739D
:101A20001093159B1F1E149B0893BBBF3B4603F1ED
:101A3000004700232D230F93119B662B00F0638238
:101A4000462B00F05E810D9B089A452B21A81EA90C
:101A50000CBF0BF101055D46049003911DA8022106
:101A60003B460290019500910A9801F0E5FB119B1D
:101A7000672B064640F07D82079BDA0740F1BF8264
:101A800074190898394600220023FBF707FD002847
:101A900040F0A481219B9C4206D930215A1C2192FE
:101AA0001970219B9C42F9D89B1B12930D9B472BCD
:101AB00000F08181119B652B40F36A82119B662B9C
:101AC0001D9B139300F04782139A12998A42C0F229
:101AD0003682079BD90700F1898222EAE2730D92D0
:101AE000672211920F9A002A40F05B810893109BA5
:101AF000079393469DF86F70FFF77CB9079BDF064D
:101B00000BD4079B5E0608D50E9A136804320E921A
:101B1000BDF82C201A80FEF7CDBF0E9A1368043250
:101B20000E920B9A1A60FEF7C5BF079B0E9A13F030
:101B3000400F134600F00E81043314880E930025E5
:101B4000FFF72CBB079911F0400317D00E988DF8C2
:101B50006F200346BBF1000F03F1040304884FF02C
:101B60000005C0F2F58021F08001079154EA0501DB
:101B70000E933FF413AC1746FFF79BB80E998DF800
:101B80006F30BBF1000F0C6801F104074FF0000546
:101B900080F281800E970027FFF78BB8144601333F
:101BA0000F9A24932C44072B259489E824003FF7AF
:101BB0005BAE09F1080962E60027BB458DF86F703E
:101BC000FFF6FEAB079B23F080030793FFF7C6BB2E
:101BD00023AA09990A9803F077FF00287FF43DA80B
:101BE000259C0DF1C0090DE40E9FFFF7E2BB249B7D
:101BF000B14AC9F80020013301340122072B259492
:101C00002493C9F804206FDC09F108092DB9129B4F
